:100000000C944F050C94650A0C943E0A0C94620FF4
:100010000C943D0F0C94180F0C9477050C947705F5
:100020000C9477050C94CF0D0C9477050C94570E17
:100030000C9477050C9477050C9477050C94770550
:100040000C94F4090C9477050C94D8080C94B2081D
:100050000C9477050C9477050C9477050C94770530
:100060000C948C0A0C947705084AD73B3BCE016E62
:1000700084BCBFFDC12F3D6C74319ABD56833DDAFF
:100080003D00C77F11BED9E4BB4C3E916BAAAABE0E
:10009000000000803F0001B202FFFF01900409232D
:1000A000A135016A0206000160080000000000009E
:1000B00000000060044000000001620200000060D7
:1000C0000400400000037B034CCD6C03AB033656A9
:1000D0007600680402CB47A202180400058BC10118
:1000E0000C0400000000037F060CC92C97979703AF
:1000F0008903264666006C022000024004000000CE
:100100000002440400000000024804000000000255
:100110004C040000000002500400000000025404DF
:100120000000000002580400000000025C0400000F
:10013000000002BC040000000001EC0400004000CC
:10014000037F060CC92C9797970402030D355D04B5
:100150000904872D353D00A301000000000107863A
:1001600001FE074105F120283038077E013007469F
:10017000019A074704F1283038076C04F128303819
:100180000216020001FB00003E000B0036000100D9
:10019000020003000000650054FFEF0000FA800039
:1001A0000B128200010002000000000000000000AD
:1001B000000000000000280000FFFF4581FFFFFA5B
:1001C0007200000000000003E80000000100017F51
:1001D000FFFFFE8001001B00000000000000000087
:1001E0000000000000003E03304000000002CAE3AF
:1001F000093E8000002000000000000000400000D8
:10020000006000000041FF000000000B2A00001603
:100210005500002182FD872650FD800000001F0050
:100220000000058000000000000001000000020046
:100230000000030000400000000000046F000265A1
:100240003200005EC040000000000000000000001E
:100250000000000000FB8C6F5DFD5D08D9007C7321
:100260003B006C12CC3200139D3200D0D632000815
:1002700000400001F4FFE68079020000000000D099
:10028000D600002710FB0000004000000000000026
:10029000000000000000000001000000000000015C
:1002A00000010000000000FA36FFBC308E0005FBA4
:1002B000F0FFD95BC8FFD09ABE000010A9FFF41E62
:1002C000B200CEBBF70000000100000004000200F5
:1002D000020200000CFFC280000001800000CF80FD
:1002E00000400000000000000100000000000006C7
:1002F00000000000140000000000000000000000EA
:1003000000000000000000000000000000000000ED
:1003100000000000000000000000000000000000DD
:10032000000000000000000000033F68B679352897
:10033000BCC67ED16C80000000400000000000B20E
:100340006A00000000000000000000000000003F04
:10035000F00000003000000000000000000000007D
:10036000000000000000000000000000000000008D
:1003700000000000000000254D002F706D000005FA
:10038000AE000C02D00000000000650054FFEF003A
:100390000000000000000001000044000000000C0C
:1003A0000000000100000000000065000000540093
:1003B00000FFEF000000000000000000000000004F
:1003C00000000000004000000000000000000000ED
:1003D00000000000004000000000000000000000DD
:1003E000000000000000000001000000020000000A
:1003F00000000000000000000000000000000000FD
:1004000000000000000000000000000000000000EC
:100410000000000000001B000000000000000000C1
:1004200000000000000000000000000000000000CC
:1004300000000000000000000000000000000000BC
:100440000040000000001B00000000000000000051
:10045000000000000000000000000000000000009C
:10046000000000000000000000000000000000008C
:10047000000000000000000000000000000000007C
:100480000000000000D8DCBAA2F1DEB2B8B4A88146
:1004900091F74A907F916AF3F9DBA8F9B0BAA0808E
:1004A000F2CE81F3C2F1C1F2C3F3CCA2B280F1C6A5
:1004B000D880BAA7DFDFDFF2A7C3CBC5B6F087A22B
:1004C000942448703C95406834589B78A2F18392FC
:1004D0002D557DD8B1B4B8A1D09180F270F370F2EF
:1004E0007C80A8F101B09887D943D886C988BAA181
:1004F000F20EB89780F1A9DFDFDFAADFDFDFF2AA13
:10050000C5CDC7A90CC92C97979797F1A9892646FD
:1005100066B0B4BA80ACDEF2CAF1B28C02A9B69869
:1005200000890E161EB8A9B4992C547CB08AA896DE
:10053000365676F1B9AFB4B083C0B8A89711B18F71
:1005400098B9AFF0240844106418F1A329557DAF81
:1005500083B593AFF0002850F1A3869F61A6DADE41
:10056000DFD9FAA38696DB31A6D9F8DFBAA68FC207
:10057000C5C7B28CC1B8A2DFDFDFA3DFDFDFD8D809
:10058000F1B8A8B286B4980D355DB8AA98B0872D99
:10059000353DB2B6BAAF8C96198F9FA70E161EB412
:1005A0009AB8AA872C547CB9A3DEDFDFA3B180F20E
:1005B000C4CDC9F1B8A9B499830D355D89B9A32D0E
:1005C000557DB593A30E161EA92C547CB8B4B0F17A
:1005D0009783A81184A50998A383F0DA240844100E
:1005E0006418D8F1A529557DA58595021A2E3A568D
:1005F0005A4048F9F3A3D9F8F098832408441064CA
:10060000189782A8F111F098A2240844106418DA0F
:10061000F3DED883A59401D9A302F1A2C3C5C7D83C
:10062000F18492A24DDA2AD84869D92AD86855DAD5
:1006300032D85071D932D8705DDA3AD85879D93A6F
:10064000D87893A34DDA2AD84869D92AD86855DAD8
:1006500032D85071D932D8705DDA3AD85879D93A4F
:10066000D878A88A9AF02850789EF38818F19F1DB0
:1006700098A8D908D8C89F129EF315A8DA1210D8E6
:10068000F1AFC8978734B5B994A421F3D922D8F231
:100690002DF3D92AD8F235F3D932D881A46060611C
:1006A000D961D86C6869D969D8747071D971D8B1B9
:1006B000A384193D5DA3831A3E5E9310308110110F
:1006C000B8B0AF8F94F2DA3ED8B49AA88729DAF896
:1006D000D8879A35DAF8D8879A3DDAF8D8B1B9A42C
:1006E0009885022E56A581000C14A397B08AF12D8F
:1006F000D928D84DD948D86DD968D8B1840DDA0E2B
:10070000D8A32983DA2C0ED8A3844983DA2C4C0E83
:10071000D8B8B0A88A9AF520AADADFD8A840AAD01B
:10072000DADED8A860AADAD0DFD8F19786A8319BA4
:10073000069907AB9728889BF00C201440B8B0B4FA
:10074000A88C9CF0042851791D301438B282ABD0AB
:10075000982C505078789BF11AB0F08A9CA82951B7
:10076000798B2951798A2470598B2058718A446970
:10077000388B3940688A6448318B304960A58820BD
:100780000971584468113964493019F1AC002C548E
:100790007CF08CA804285078F1889726A85998AC4A
:1007A0008C02264666F0899CA82951792470594408
:1007B0006938644831A98809205970AB11384069FB
:1007C000A8193148608CA83C415C207C00F18798D6
:1007D0001986A86E767EA999882D557D9EB9A38A23
:1007E000228A6E8A568A5E9FB183062646660E2E40
:1007F0004E6E9DB8AD002C547CF2B18CB499B9A367
:100800002D557D8191AC38AD3AB58391AC2DD92869
:10081000D84DD948D86DD968D88C9DAE29D904AEA9
:10082000D851D904AED879D904D881F39DAD008DC3
:10083000AE1981ADD901D8F2AEDA26D88E912983CE
:10084000A7D9ADADADADF32AD8D8F1B0AC89913E02
:100850005E76F3AC2E2EF1B18C5A9CAC2C28282855
:100860009CAC3018A8988128343C9724A728343CA5
:100870009C24F2B089AC912C4C6C8A9B2DD9D8D891
:1008800051D9D8D879D9D8D8F19E88A331DAD8D817
:10089000912DD928D84DD948D86DD968D8B183932E
:1008A000353D8025DAD8D88569DAD8D8B49381A3C4
:1008B00028343CF3AB8BF8A391B609B4D9ABDEFA7C
:1008C000B0879CB9A3DDF1A3A3A3A395F1A3A3A330
:1008D0009DF1A3A3A3A3F2A3B49080F2A3A3A3A327
:1008E000A3A3A3A3A3A3B2A3A3A3A3A3A3B087B5C6
:1008F00099F1A3A3A398F1A3A3A3A397A3A3A3A34D
:10090000F39BA3A3DCB9A7F1262626D8D8FF29009C
:10091000444D5020496E697469616C697A617469EB
:100920006F6E206661696C65642028636F64652062
:1009300000444D50207265616479212057616974CB
:10094000696E6720666F7220666972737420696EC3
:10095000746572727570742E2E2E00456E61626C15
:10096000696E6720696E7465727275707420646553
:1009700074656374696F6E202841726475696E6F67
:100980002065787465726E616C20696E7465727230
:100990007570742030292E2E2E00456E61626C69B0
:1009A0006E6720444D502E2E2E004D50553630355A
:1009B0003020636F6E6E656374696F6E2066616967
:1009C0006C6564004D50553630353020636F6E6E67
:1009D000656374696F6E20737563636573736675A1
:1009E0006C00496E697469616C697A696E6720444C
:1009F0004D502E2E2E0054657374696E6720646509
:100A00007669636520636F6E6E656374696F6E737C
:100A10002E2E2E00496E697469616C697A696E6761
:100A20002049324320646576696365732E2E2E005B
:100A3000000000002300260029000404040404042C
:100A4000040402020202020203030303030301027D
:100A5000040810204080010204081020010204084C
:100A6000102000000008000201000003040700003D
:100A70000000000000004649464F206F7665726610
:100A80006C6F77210000000000240027002A00007E
:100A9000000000250028002B0000911C7F1C112461
:100AA0001FBECFEFD8E0DEBFCDBF11E0A0E0B1E0C8
:100AB000EAECF7E402C005900D92AA39B107D9F724
:100AC00024E0AAE9B1E001C01D92A035B207E1F728
:100AD00015E0CEE4D5E004C02197FE010E94B11DCF
:100AE000CD34D107C9F70E9499120C94D8230C94E5
:100AF0000000CF92DF92EF92FF920F931F93CF935C
:100B0000DF936C017A018B01C0E0D0E0CE15DF05E8
:100B100089F0D8016D918D01D601ED91FC91019084
:100B2000F081E02DC6010995892B11F47E0102C0E8
:100B30002196ECCFC701DF91CF911F910F91FF90CC
:100B4000EF90DF90CF900895FC01918D828D9817E2
:100B500061F0828DDF01A80FB11D5D968C91928DA1
:100B60009F5F9F73928F90E008958FEF9FEF08959E
:100B7000FC01918D828D981731F0828DE80FF11D67
:100B8000858D90E008958FEF9FEF0895FC01918D82
:100B9000228D892F90E0805C9F4F821B91098F737B
:100BA0009927089588E293E00E94C60521E0892BE9
:100BB00009F420E0822F0895FC01848DDF01A80F45
:100BC000B11DA35ABF4F2C91848D90E001968F7375
:100BD0009927848FA689B7892C93A089B1898C9194
:100BE00080648C93938D848D981306C00288F3895A
:100BF000E02D80818F7D80830895EF92FF920F9387
:100C00001F93CF93DF93EC0181E0888F9B8D8C8DB8
:100C1000981305C0E889F989808185FD24C0F62EE6
:100C20000B8D10E00F5F1F4F0F731127E02E8C8D7F
:100C3000E8120CC00FB607FCFACFE889F989808169
:100C400085FFF5CFCE010E94DC05F1CF8B8DFE0133
:100C5000E80FF11DE35AFF4FF0820B8FEA89FB8901
:100C60008081806207C0EE89FF896083E889F98905
:100C700080818064808381E090E0DF91CF911F913B
:100C80000F91FF90EF900895CF93DF93EC01888D43
:100C90008823C9F0EA89FB89808185FD05C0A88980
:100CA000B9898C9186FD0FC00FB607FCF5CF808106
:100CB00085FFF2CFA889B9898C9185FFEDCFCE0150
:100CC0000E94DC05E7CFDF91CF9108953FB7F894FC
:100CD0008091D1029091D202A091D302B091D4021E
:100CE00026B5A89B05C02F3F19F00196A11DB11D87
:100CF0003FBFBA2FA92F982F8827820F911DA11DC2
:100D0000B11DBC01CD0142E0660F771F881F991FFE
:100D10004A95D1F70895089585ED8093BC008091A0
:100D2000BC0084FDFCCF1092FB0208954091A70205
:100D3000262F30E0240F311D21323105DCF42091C3
:100D4000FB022430C9F4FC0180E090E0861758F4DF
:100D50003091A7022191DC01AB57BD4FA30FB11D0C
:100D60002C930196F3CF8091A702680F6093A7029E
:100D700080E0089581E0089582E008950895E0916B
:100D8000FB018091FA01E81730F4F0E0EB59FD4FD8
:100D9000808190E008958FEF9FEF08959091FB017F
:100DA0008091FA01981750F4E92FF0E0EB59FD4FCC
:100DB000208130E09F5F9093FB0102C02FEF3FEF57
:100DC000C90108958091FA0190E02091FB01821BF6
:100DD00091090895CF92DF92EF92FF920F931F93A4
:100DE000CF93DF937C01262F972F8A018091FC02FD
:100DF000882391F0C62FD72F6E01C40ED51ECC15B7
:100E0000DD0571F06991D701ED91FC910190F081C0
:100E1000E02DC7010995F3CF642F822F0E9496061B
:100E2000C801DF91CF911F910F91FF90EF90DF905C
:100E3000CF900895CF93DF931F92CDB7DEB769832C
:100E40002091FC022223D1F020911F03203240F098
:100E500021E030E0FC013383228380E090E015C084
:100E60008091FD02E82FF0E0E250FD4F99819083E0
:100E70008F5F8093FD0280931F0305C061E0CE0168
:100E800001960E94960681E090E00F90DF91CF914D
:100E90000895DF92EF92FF920F931F93CF93DF930A
:100EA000282F30E0F901EE0FFF1FEC5CF54FA59104
:100EB000B4910C91F901E45AFD4FD080D026008303
:100EC000220F331FF901EE5EFE4F0190F081E02DFD
:100ED0009081D922C9F1182F110F110F110FE12C98
:100EE000F12CC1E0D0E09E010E2C01C0220F0A942B
:100EF000EAF78D2D822309F1E12FEE0DF0E0EE0FE0
:100F0000FF1FDF01A653BE4F8D919C91813091054B
:100F100051F08330910519F4202329F40EC0029773
:100F200061F4202351F4E656FE4F80819181892B94
:100F300021F00190F081E02D09958FEFE81AF80A71
:100F400088E0E816F10479F6DF91CF911F910F91B7
:100F5000FF90EF90DF9008958091FC019091FD014A
:100F600001969093FD018093FC0181E08093000243
:100F7000089581E08093FF0108950E94C621FC013D
:100F800024813581232B31F421E061157105A1F015
:100F9000FB0108C0FC01808191816115710531F46C
:100FA00021E0FC018081882339F005C00E94E12105
:100FB00021E0892B09F020E0822F08950F931F93E1
:100FC000CF93DF93EC0188819981009729F02A81E2
:100FD0003B812617370788F48B016F5F7F4F0E9494
:100FE000FC20009761F0998388831B830A832C81FE
:100FF0003D81232B11F4FC01108281E001C080E0CF
:10100000DF91CF911F910F910895EF92FF920F936F
:101010001F93CF93DF9300D0CDB7DEB78C016983E8
:101020001A82FC01E480F580FFEFEF1AFF0AB70196
:101030000E94DE07882381F0F801208131818481BC
:101040009581BE016F5F7F4F820F931F0E94EA213F
:10105000F801F582E48281E00F900F90DF91CF914B
:101060001F910F91FF90EF9008951F93CF93DF93FF
:10107000D1E088E293E00E94C605892B49F188E21D
:1010800093E00E94A405C82F8C3411F4D0935B0226
:1010900010915B026C2F111103C08DE394E002C02C
:1010A00083E494E00E940508C33559F48DE394E08D
:1010B0000E948C1283E494E00E948C1210925B02D6
:1010C000D8CFCD30B1F61123A1F2D093FE01D1CF0C
:1010D000DF91CF911F9108950E94D20581110C9448
:1010E00035080895EF92FF920F931F93CF93DF93EC
:1010F000EC017B018A01BA010E94DE072881398157
:1011000081110DC02115310519F0C9010E9464201B
:10111000198218821D821C821B821A8206C01D83BE
:101120000C83B701C9010E94EA21CE01DF91CF9162
:101130001F910F91FF90EF900895FC011182108292
:1011400013821282158214826115710551F0FB0120
:1011500001900020E9F73197AF01461B570B0C9423
:10116000720808951F920F920FB60F9211242F93B9
:101170003F934F935F936F937F938F939F93AF931F
:10118000BF93EF93FF9388E293E00E94DC05FF9109
:10119000EF91BF91AF919F918F917F916F915F91EF
:1011A0004F913F912F910F900FBE0F901F90189568
:1011B0001F920F920FB60F9211242F938F939F932C
:1011C000EF93FF93E0913803F09139038081E09130
:1011D0003E03F0913F0382FD12C090818091410354
:1011E0008F5F8F7320914203821751F0E09141038A
:1011F000F0E0E85DFC4F958F8093410301C0808152
:10120000FF91EF919F918F912F910F900FBE0F90B3
:101210001F901895833081F028F4813099F0823046
:10122000A1F008958730A9F08830B9F08430D1F466
:10123000809180008F7D03C0809180008F778093A4
:101240008000089584B58F7702C084B58F7D84BDFA
:1012500008958091B0008F7703C08091B0008F7D9A
:101260008093B00008951F93CF93DF93282F30E031
:10127000F901EE59F54F8491F901E25BF54FD491F4
:10128000F901E65CF54FC491CC23C9F0162F81110A
:101290000E940A09EC2FF0E0EE0FFF1FE157F54F17
:1012A000A591B4918FB7F894111105C09C91ED2FC1
:1012B000E095E92302C0EC91ED2BEC938FBFDF9119
:1012C000CF911F91089560915A0281E06827609341
:1012D0005A028FE00C94330960915A0281E068272A
:1012E00060935A028EE00C9433096091590281E0B8
:1012F00068276093590283E00C943309CF93DF93FE
:1013000090E0FC01E25BF54F2491FC01E65CF54FB7
:101310008491882361F190E0880F991FFC01EB57BD
:10132000F54FC591D491FC01E157F54FA591B491CA
:10133000611109C09FB7F894888120958223888322
:10134000EC912E230BC0623061F49FB7F894388182
:10135000822F809583238883EC912E2B2C939FBF23
:1013600006C08FB7F894E8812E2B28838FBFDF91BA
:10137000CF9108958F929F92AF92BF92CF92DF92BA
:10138000EF92FF926B017C010E9466064B015C01AB
:10139000C114D104E104F104F1F00E946606DC01FD
:1013A000CB0188199909AA09BB09883E9340A10578
:1013B000B10570F321E0C21AD108E108F10888EE06
:1013C000880E83E0981EA11CB11CC114D104E10455
:1013D000F10419F7DDCFFF90EF90DF90CF90BF9031
:1013E000AF909F908F9008951F920F920FB60F921B
:1013F00011242F933F938F939F93AF93BF9380912B
:10140000CD029091CE02A091CF02B091D002309146
:10141000CC0223E0230F2D3720F40196A11DB11D2E
:1014200005C026E8230F0296A11DB11D2093CC0212
:101430008093CD029093CE02A093CF02B093D002BE
:101440008091D1029091D202A091D302B091D402A6
:101450000196A11DB11D8093D1029093D202A09359
:10146000D302B093D402BF91AF919F918F913F91DE
:101470002F910F900FBE0F901F9018951F920F92F3
:101480000FB60F9211242F933F934F935F936F9357
:101490007F938F939F93AF93BF93EF93FF93E091CD
:1014A0000201F09103010995FF91EF91BF91AF9176
:1014B0009F918F917F916F915F914F913F912F916C
:1014C0000F900FBE0F901F9018951F920F920FB69E
:1014D0000F9211242F933F934F935F936F937F93BA
:1014E0008F939F93AF93BF93EF93FF93E09100018E
:1014F000F09101010995FF91EF91BF91AF919F91FB
:101500008F917F916F915F914F913F912F910F90AC
:101510000FBE0F901F9018951F920F920FB60F924B
:1015200011242F933F934F935F936F937F938F93E8
:101530009F93AF93BF93EF93FF938091B900887F00
:10154000803609F49CC068F5883209F45BC090F4D9
:10155000803109F454C038F4882309F4F6C0883087
:1015600009F44DC0F6C0883109F44CC0803209F44A
:101570005DC0EFC0803409F468C048F4803309F4DA
:1015800055C0883309F0E5C08093F902D8C0803592
:1015900009F44FC0883509F45DC0883409F0D9C01A
:1015A000D6C0883909F4C7C0A8F4883709F467C0E1
:1015B00038F4883609F463C0803709F460C0C9C0C4
:1015C000883809F4B8C0803909F45FC0803809F060
:1015D000C0C05BC0803B09F486C038F4803A09F48F
:1015E00066C0883A09F47FC0B4C0803C09F4A7C043
:1015F000883C09F4A4C0883B09F48AC0AAC0809141
:10160000D60210C09091F8028091F702981770F5F9
:10161000E091F80281E08E0F8093F802F0E0E95249
:10162000FD4F80818093BB0085EC86C08093F902DA
:101630008EC0E091F80281E08E0F8093F8028091D5
:10164000BB00F0E0E952FD4F80839091F802809159
:10165000F7026EC0E091F80281E08E0F8093F802ED
:101660008091BB00F0E0E952FD4F80838091FA0247
:1016700081116DC081E08093D50284EA61C083E06E
:101680008093FB021092CB02CFCF8091CB028032AD
:1016900008F051C0E091CB0281E08E0F8093CB0225
:1016A0008091BB00F0E0E555FD4F8083BDCF85EC18
:1016B0008093BC001092FB028091CB02803230F408
:1016C000E091CB02F0E0E555FD4F10826091CB0236
:1016D00070E0E091A902F091AA028BEA92E00995EC
:1016E0001092CB0236C084E08093FB021092A802D5
:1016F0001092A702E091A502F091A60209958091AF
:10170000A702811105C081E08093A7021092850293
:10171000E091A80281E08E0F8093A802F0E0EB57E1
:10172000FD4F80818093BB009091A8028091A70219
:10173000981708F479CF85E88093BC000AC085EC3F
:101740008093BC001092FB0204C01092F9020E9428
:101750008C06FF91EF91BF91AF919F918F917F91F7
:101760006F915F914F913F912F910F900FBE0F900E
:101770001F901895EF92FF920F931F93CF93DF93D3
:1017800000D0CDB7DEB7142F91E09093FC02809388
:101790001E031092FD0210921F0385EC93E0298333
:1017A0003A830E941A072981022FE22E3A81F32EF2
:1017B0008E2D801B811740F4F70161917F0185EC2C
:1017C00093E00E941A07F4CF0E948A1091E08111E1
:1017D00090E0892F0F900F90DF91CF911F910F9183
:1017E000FF90EF9008951F93CF93DF9300D0CDB774
:1017F000DEB75A83498391E09093FC0280931E03E5
:101800001092FD0210921F0385EC93E00E941A07CC
:1018100019816A8185EC93E00E941A07612F85EC9B
:1018200093E00E941A070E948A1091E0811190E0D3
:10183000892F0F900F90DF91CF911F910895CF9333
:10184000DF931F92CDB7DEB749839E012F5F3F4FD5
:1018500041E00E94BA0B0F90DF91CF9108952F9233
:101860003F924F925F926F927F928F929F92AF9230
:10187000BF92CF92DF92EF92FF920F931F93CF937D
:10188000DF93CDB7DEB727970FB6F894DEBF0FBE54
:10189000CDBF8F83962E742F59018FB7F894C090C7
:1018A000CD02D090CE02E090CF02F090D0028FBF58
:1018B0005F81550F5B83812C312C2224239450E0CF
:1018C0005D834C832801612C712C871608F0A4C01D
:1018D0002092FC025F8150931E031092FD02109231
:1018E0001F03692D85EC93E07E830E941A070E94F6
:1018F0008A102092FC025F8150931E031092FD0219
:1019000010921F037E818091FB028111FCCF2C81FC
:101910003D81281931092132310514F020E230E0EF
:10192000213208F020E22092FB022092FA028FEF8F
:101930008093F9021092F802820F8093F7022092AE
:10194000D6028091D6024B81842B8093D60280915F
:10195000D502813071F41092D5028091D602809325
:10196000BB008091BC0083FDF8CF55EC5093BC00C8
:1019700003C085EE8093BC008091FB028130E1F3CF
:101980008091F802821710F42091F802A7EDB2E0DE
:10199000E5E6F2E08E2F45E652E0841B821718F44C
:1019A0008D918193F7CF1092FB012093FA019091D2
:1019B000FA018091FB01981749F10115110591F485
:1019C000A501430D511D37FC5A955A83498385EC77
:1019D00093E07E830E94CE06E981FA81808333946E
:1019E0007E81E5CF2FB7F8948091CD029091CE0201
:1019F000A091CF02B091D0022FBF8C199D09AE09E2
:101A0000BF0984159505A605B705D0F2872F713259
:101A100008F080E2880E59CF0115110509F12FB7A2
:101A2000F8948091CD029091CE02A091CF02B09116
:101A3000D0022FBF8C199D09AE09BF0920E030E00C
:101A400080179107A207B30758F0272F30E0832DA6
:101A5000032C000C990B8217930714F433243A9447
:101A6000832D27960FB6F894DEBF0FBECDBFDF9152
:101A7000CF911F910F91FF90EF90DF90CF90BF908B
:101A8000AF909F908F907F906F905F904F903F901E
:101A90002F900895BF92CF92DF92EF92FF920F9313
:101AA0001F93CF93DF931F92CDB7DEB7F82EE62EAC
:101AB000C42EB22ED02E08EE13E09E012F5F3F4FB2
:101AC00041E00E942F0C882321F1EC2DF0E0EB196E
:101AD000F109319621E030E002C0220F331FBA94A1
:101AE000E2F7215031090E2E01C0220F0A94EAF7C5
:101AF0008D2D01C0880FEA95EAF7422F4095998114
:101B000049232823422B49836E2D8F2D0E941F0CC1
:101B100001C080E00F90DF91CF911F910F91FF9056
:101B2000EF90DF90CF90BF900895CF92DF92EF9229
:101B3000FF920F931F93CF93DF931F92CDB7DEB722
:101B4000F82EE62ED42EC22E08EE13E09E012F5F53
:101B50003F4F41E00E942F0C9981CC2041F041E0A1
:101B600050E001C0440FDA94EAF7492B09C021E0A4
:101B700030E0A90101C0440FDA94EAF74095492307
:101B800049836E2D8F2D0E941F0C0F90DF91CF91F6
:101B90001F910F91FF90EF90DF90CF9008951F92CB
:101BA0000F920FB60F9211242F933F934F935F9391
:101BB0006F937F938F939F93AF93BF93EF93FF9315
:101BC00080912003909121038093B2008091610263
:101BD00090916202A0916302B09164020196A11DEE
:101BE000B11D8093610290936202A0936302B0934F
:101BF00064028091610290916202A0916302B091AF
:101C00006402409124035091250360912603709152
:101C1000270384179507A607B70710F18091600284
:101C200081111EC081E080936002809161029091D9
:101C30006202A0916302B0916402841B950BA60B13
:101C4000B70B8093610290936202A0936302B093FA
:101C50006402E0912203F09123030995109260023F
:101C6000FF91EF91BF91AF919F918F917F916F9174
:101C70005F914F913F912F910F900FBE0F901F904A
:101C800018951092610210926202109263021092F3
:101C9000640210926002809120039091210380934E
:101CA000B200E0E7F0E080818160808308951F92B8
:101CB0000F920FB60F9211242F933F934F935F9380
:101CC0006F937F938F939F93AF93BF93EF93FF9304
:101CD00080915F0287FF05C01092850010928400FA
:101CE0001BC020915F02022E000C330B8091F50384
:101CF00090E02817390784F480915F02082E000CC9
:101D0000990BFC01EE0FFF1F8E0F9F1FFC01EF527E
:101D1000FC4F808186FD15C080915F028F5F8093AC
:101D20005F0220915F02022E000C330B8091F503BD
:101D300090E028173907C4F480915F028C3064F179
:101D400013C080915F02082E000C990BFC01EE0F6E
:101D5000FF1F8E0F9F1FFC01EF52FC4F808160E040
:101D60008F730E943309D8CF8091840090918500B1
:101D7000049680349C4918F480E49CE905C0809165
:101D80008400909185000496909389008093880048
:101D90008FEF80935F023BC02091840030918500DB
:101DA00080915F02082E000C990BFC01EE0FFF1FC3
:101DB0008E0F9F1FFC01EF52FC4F81819281820F99
:101DC000931F909389008093880080915F02082E72
:101DD000000C990BFC01EE0FFF1F8E0F9F1FFC01E3
:101DE000EF52FC4F808186FF12C080915F02082E67
:101DF000000C990BFC01EE0FFF1F8E0F9F1FFC01C3
:101E0000EF52FC4F808161E08F730E943309FF9194
:101E1000EF91BF91AF919F918F917F916F915F9162
:101E20004F913F912F910F900FBE0F901F901895DB
:101E30001F920F920FB60F9211242F933F934F933F
:101E40005F936F937F938F939F93AF93BF93EF9322
:101E5000FF9382E00E944907FF91EF91BF91AF91FC
:101E60009F918F917F916F915F914F913F912F91B2
:101E70000F900FBE0F901F9018951F920F920FB6E4
:101E80000F9211242F933F934F935F936F937F9300
:101E90008F939F93AF93BF93EF93FF9381E00E9443
:101EA0004907FF91EF91BF91AF919F918F917F91E2
:101EB0006F915F914F913F912F910F900FBE0F90B7
:101EC0001F9018951F920F920FB60F9211242F9307
:101ED0003F934F935F936F937F938F939F93AF93B2
:101EE000BF93EF93FF9380E00E944907FF91EF912A
:101EF000BF91AF919F918F917F916F915F914F9122
:101F00003F912F910F900FBE0F901F901895E0E713
:101F1000F0E080818E7F808360E08EE00E94330954
:101F200060E08FE00E94330960E08BE00E9433099B
:101F300060E08DE00E94330960E080E10E94330997
:101F400060E081E10C943309CF93DF9387E48093C1
:101F50007C0080917A00806480937A0080917A007E
:101F600086FDFCCFC091780080917900D0E0D82B1D
:101F7000D0935802C0935702CE01855691098D39EE
:101F8000924010F580915602811109C085E799E0D1
:101F90000E94F90F0E94410E81E080935602C43ED8
:101FA000D24094F48FE791E00E94E70F60E083E075
:101FB0000E94330960E088E00E94330961E089E013
:101FC000DF91CF910C943309DF91CF910895009761
:101FD00069F0FC0101900020E9F73197AF01481B3F
:101FE000590BBC0188E293E00C94790580E090E005
:101FF0000895CF93DF9344EF51E060E070E04093A9
:102000002403509325036093260370932703909332
:10201000230380932203A0E7B0E08C918E7F8C9302
:10202000E0EBF0E080818C7F8083E1EBF0E0808169
:10203000877F8083C6EBD0E088818F7D88838C91F9
:102040008D7F8C9380818460808380818C7F80836E
:1020500086E090E09093210380932003DF91CF915D
:102060000895809149048C3008F051C061E08AE005
:102070000E947E0980914904E82FF0E09F01220F21
:10208000331FE20FF31FEF52FC4F9081907C9A6058
:10209000908310924A0410924B046CE00E94761DCB
:1020A0009CE0899FB001112440E050E09A01260F86
:1020B000371FF901EE0FFF1F2E0F3F1FF901EF52DF
:1020C000FC4F908196FD16C04F5F5F4F4C3051051D
:1020D00069F781110FC01092800082E08093810027
:1020E0001092850010928400B19A80916F008260F6
:1020F00080936F00E0914904F0E0CF01880F991FB1
:10210000E80FF91FEF52FC4F80818064808380913B
:102110004904089520911F0390911E03213208F075
:102120004AC08091FB028111FCCF32E03093FB0268
:1021300031E03093FA023FEF3093F9021092F80247
:102140002093F702AEEFB2E047ED52E0FA013E2FE6
:10215000341B321718F43D913193F9CF1092D60207
:102160002091D602990F922B9093D6029091D5028E
:10217000913061F41092D5029091D6029093BB00F9
:102180009091BC0093FDF8CF95EC01C095EE909333
:10219000BC009091FB029230E1F39091F9029F3FD5
:1021A00079F08091F902803241F08091F902803318
:1021B00031F084E005C081E003C082E001C083E02B
:1021C0001092FD0210921F031092FC0208950F93CB
:1021D0001F93CF93DF93C4E2D4E008EE13E025E22F
:1021E00034E041E06AE388810E942F0C8981DF910D
:1021F000CF911F910F91089521E042E06AE680910E
:1022000024040C94950D482F6EE6809124040C94C0
:102210001F0C2F923F924F925F926F927F928F92FC
:102220009F92AF92BF92CF92DF92EF92FF920F9365
:102230001F93CF93DF933C015B01342ED22F202ECE
:102240004F716DE6809124040E941F0C8D2F0E9417
:10225000031180E190E00E94CF1F6C01002339F050
:1022600080E190E00E94CF1FC82F492E02C0C0E03D
:10227000412CE12CF12CEA14FB0408F06EC0C701DC
:102280004096A816B90618F45A2C5E1802C080E1D0
:10229000582E852D90E020E031E02D1B31092817C4
:1022A000390714F45D2E5194F301EE0DFF1D222029
:1022B00059F09C2FAC2FB42D8A2F891B851530F433
:1022C00084918D933196F8CFCE2F4F2E2C2F342D15
:1022D000452D6FE6809124040E94BA0B852C912C29
:1022E000C114D10429F1432D4F716DE6809124046E
:1022F0000E941F0C8D2F0E94031108EE13E096011F
:10230000452D6FE6809124040E942F0CA401B60194
:102310008C2F942D0E94CB21892B51F0C6010E9455
:102320006420222021F18C2F942D0E9464201FC054
:10233000E80CF91CD50DEA14FB0408F09CCFD11170
:1023400001C03394432D4F716DE6809124040E94A7
:102350001F0C8D2F0E9403118ECFC6010E94642096
:10236000222039F08C2F942D0E94642002C080E03E
:1023700001C081E0DF91CF911F910F91FF90EF900D
:10238000DF90CF90BF90AF909F908F907F906F9095
:102390005F904F903F902F9008950F931F93662367
:1023A00051F0462F9C0108EE13E064E7809124046D
:1023B0000E942F0C02C0FC0110821F910F91089502
:1023C0000F931F93CF93DF93C4E2D4E008EE13E0A2
:1023D00025E234E042E062E788810E942F0C898187
:1023E00090E0982F88272A81822BDF91CF911F912F
:1023F0000F910895EF92FF920F931F93CF93DF9366
:102400001F92CDB7DEB77A0189019E012F5F3F4F42
:1024100041E00E942F0C882339F029812E7730E08B
:1024200035952795F70120830F90DF91CF911F916C
:102430000F91FF90EF9008950F931F93CF93DF9329
:102440008C01C0E0D0E0F801EC0FFD1F6491662321
:1024500071F0E0912803F09129030190F081E02DC3
:1024600088E293E00995892B11F02196ECCFCE01FB
:10247000DF91CF911F910F910895CF93DF930E9429
:102480001C12EC018CE791E00E94E70F8C0F9D1F5E
:10249000DF91CF9108958F929F92AF92BF920F9349
:1024A0001F93CF93DF93CDB7DEB7A1970FB6F89404
:1024B000DEBF0FBECDBF19A2423008F44AE08E0144
:1024C0000F5D1F4F842E912CA12CB12CA5019401DE
:1024D0000E94A723E62FB901CA0101501109EA3071
:1024E00014F4E05D01C0E95CD801EC93232B242BAC
:1024F000252B61F7C8010E94E70FA1960FB6F8944B
:10250000DEBF0FBECDBFDF91CF911F910F91BF9066
:10251000AF909F908F900895CF93DF93EC0140E0B0
:1025200050E06FE671E00E947208CE01DF91CF911A
:102530000895CF93DF93CDB7DEB7CA5AD1090FB64E
:10254000F894DEBF0FBECDBF789484B5826084BDA1
:1025500084B5816084BD85B5826085BD85B58160A7
:1025600085BD80916E00816080936E001092810025
:1025700080918100826080938100809181008160E0
:1025800080938100809180008160809380008091A1
:10259000B10084608093B1008091B000816080932D
:1025A000B00080917A00846080937A0080917A00F4
:1025B000826080937A0080917A00816080937A00B3
:1025C00080917A00806880937A001092C1008AE539
:1025D00090E090930701809306010E943110E091F2
:1025E0003803F091390382E08083E0913403F09165
:1025F00035031082E0913603F091370380E1808348
:1026000010924003E0913C03F0913D0386E080830B
:10261000E0913A03F0913B03808180618083E091F7
:102620003A03F0913B03808188608083E0913A0314
:10263000F0913B03808180688083E0913A03F091C0
:102640003B0380818F7D808364E670E083E494E0C7
:102650000E94DE0768EC70E08DE394E00E94DE07E4
:1026600061E088E00E947E0961E089E00E947E09C5
:1026700060E084E00E947E0960E085E00E947E09BF
:1026800061E083E00E947E0961E08BE00E947E09A8
:1026900061E08DE00E947E0961E08EE00E947E098B
:1026A00061E08FE00E947E0961E080E10E947E0986
:1026B00061E081E10E947E0960E083E00E943309CD
:1026C00060E088E00E94330960E089E00E943309FD
:1026D0000E94870F87E394E00E948C128091700023
:1026E0008E7F8093700068EE73E080E090E00E943F
:1026F000BA090E94A40FE2E5FAE02491EEE3FAE0C1
:10270000E491EE23A1F13EEF3E0FA32FB0E0AA0F1C
:10271000BB1FAE5EBE4F0D90BC91A02D313031F08D
:10272000832F880F880F880F8C5F01C08EEF90E099
:10273000880F991FAC0146535E4F62E070E0FA01CA
:102740007183608386569E4F4CEA57E0FC015183AB
:1027500040838C91282B2C932091680081E090E09D
:1027600001C0880F3A95EAF7822B80936800109297
:10277000FB011092FA011092FD0210921F031092B9
:10278000FB0281E08093FA021092D50261E082E1BF
:102790000E94330961E083E10E9433098091B9000E
:1027A0008E7F8093B9008091B9008D7F8093B900AE
:1027B00088E48093B80085E48093BC0088E180932E
:1027C000B80084E19AE00E943D1201E023E042E07B
:1027D0006BE6809124040E944A0D00E022E044E070
:1027E0006BE1809124040E944A0D22E044E06CE1F8
:1027F000809124040E944A0D20E046E06BE680911F
:1028000024040E94950D86EF99E00E943D1228EE67
:1028100033E045E254E065E7809124040E94FA1118
:1028200080912504843319F08AEA99E002C084EC8F
:1028300099E00E943D1282EE99E00E943D1221E053
:1028400047E06BE6809124040E94950D6EE170E0F4
:1028500080E090E00E94BA0920E046E06BE68091BB
:1028600024040E94950D40E76DE6809124040E94A7
:102870001F0C86E00E94031140E06DE68091240465
:102880000E941F0C28EE33E045E254E060E08091A6
:1028900024040E94FA118090250428EE33E045E2DA
:1028A00054E061E0809124040E94FA119090250484
:1028B00028EE33E045E254E062E0809124040E9477
:1028C000FA11A09025044FE765E2809124040E944C
:1028D0001F0C20E045E06AE6809124040E94950DDB
:1028E00048E665E2809124040E941F0C21E041E04B
:1028F0006AE6809124040E94950D64E170E080E016
:1029000090E00E94BA0901E020E040E069E877E049
:1029100085E891E00E940911882309F4CDC288E07E
:1029200090E00E94CF1FB82E192FE12CF12CF70157
:10293000EB53FF4F4491F701EA53FF4F2491670196
:10294000F3E0CF0ED11CF701E953FF4FE491EE23E2
:10295000D1F1EE2EF12CE330D8F0B7018B2D912F71
:10296000C655DF4F2883CA5AD040C755DF4F48832A
:10297000C95AD0400E94FC20B82E192FC755DF4FEE
:102980004881C95AD040C655DF4F2881CA5AD04025
:10299000AB2DB12F80E090E08E159F0548F4F60135
:1029A000E80FF91FEB53FF4FE491ED930196F4CF3D
:1029B00000E0B7018B2D912F0E940911EC0CFD1C3A
:1029C000811117C010C024E0E20EF11CF601EB5398
:1029D000FF4FE491E13039F442E368E3809124044D
:1029E0000E941F0C06C08B2D912F0E94642012E0C4
:1029F00064C280ECE816F10408F499CF8B2D912F76
:102A00000E94642003E023E042E06BE6809124040E
:102A10000E944A0D42E168E3809124040E941F0C49
:102A200044E069E1809124040E941F0C01E023E04E
:102A300045E06AE1809124040E944A0D03E023E00E
:102A400042E06AE1809124040E944A0D22E044E0C1
:102A50006BE1809124040E944A0D43E060E780917D
:102A600024040E941F0C40E061E7809124040E942E
:102A70001F0C20E040E060E0809124040E94950D4E
:102A8000082D26E046E060E0809124040E944A0D73
:102A9000092D26E046E061E0809124040E944A0D61
:102AA0000A2D26E046E062E0809124040E944A0D4F
:102AB000E12CF12CF701EA56FF4FE491A1E8B0E0D8
:102AC000AC0FBD1FAE0DB11DEC9381E08E0D9FEFDD
:102AD000E91AF90AA3E0AE1568F7CD57DF4F688110
:102AE000C358D04070E09B012E5F3F4F90E0281705
:102AF000390704F700E0CE57DF4F2881C258D04095
:102B0000CF57DF4F4881C158D04081E890E08C0F0B
:102B10009D1F03960E94091180E0F701EA56FF4FBE
:102B2000E491A1E8B0E0AC0FBD1FA80FB11DEC937C
:102B30008F5FBFEFEB1AFB0A843078F3CD57DF4F7E
:102B40006881C358D04070E0AB014E5F5F4F282FC3
:102B500030E0421753070CF700E0CE57DF4F2881D3
:102B6000C258D040CF57DF4F4881C158D04081E88C
:102B700090E08C0F9D1F03960E9409110E94FC108B
:102B80000E94E011682FCE0101960E94CD1142E013
:102B90006FE1809124040E941F0C4CE961E2809156
:102BA00024040E941F0C40E560E2809124040E94EE
:102BB0001F0C40E062E2809124040E941F0C0E94DE
:102BC000FC1021E046E06AE6809124040E94950D05
:102BD00021E047E06AE6809124040E94950D21E0FF
:102BE00043E06AE6809124040E94950D80E0F7019D
:102BF000EA56FF4FE491A1E8B0E0AC0FBD1FA80F6B
:102C0000B11DEC938F5FEFEFEE1AFE0A843078F37C
:102C1000CD57DF4F6881C358D04070E0AB014E5FA5
:102C20005F4F282F30E0421753070CF700E0CE57D4
:102C3000DF4F2881C258D040CF57DF4F4881C1585D
:102C4000D04081E890E08C0F9D1F03960E940911EF
:102C500080E0F701EA56FF4FE491A1E8B0E0AC0F45
:102C6000BD1FA80FB11DEC938F5FFFEFEF1AFF0A96
:102C7000843078F3CD57DF4F6881C358D04070E07F
:102C8000AB014E5F5F4F282F30E0421753070CF720
:102C900000E0CE57DF4F2881C258D040CF57DF4FDA
:102CA0004881C158D04081E890E08C0F9D1F039669
:102CB0000E94091180E0F701EA56FF4FE491A1E874
:102CC000B0E0AC0FBD1FA80FB11DEC938F5F2FEFCD
:102CD000E21AF20A843078F3CD57DF4F6881C35887
:102CE000D04070E0AB014E5F5F4F282F30E04217BD
:102CF00053070CF700E0CE57DF4F2881C258D04071
:102D0000CF57DF4F4881C158D04081E890E08C0F09
:102D10009D1F03960E9409110E94E01183309105C6
:102D2000D8F3682FCE0101960E94CD1180E0F70103
:102D3000EA56FF4FE491A1E8B0E0AC0FBD1FA80F29
:102D4000B11DEC938F5F9FEFE91AF90A843078F395
:102D5000CD57DF4F3880C358D040832C912CA4012D
:102D60004E5F5F4F282F30E04217530704F7CE57CE
:102D7000DF4FB880C258D040CF57DF4F2880C158AE
:102D8000D040422D4F716DE6809124040E941F0CAB
:102D90008B2D0E940311C12CD12C612C77247394AC
:102DA00081E8482E512C4C0E5D1EA3E04A0E511CAA
:102DB000C814D90498F5C60140968816990618F4E7
:102DC000A32CAC1802C010E1A12E8A2D90E0930133
:102DD0002B1931092817390714F4AB2CA19492014F
:102DE0002C0D3D1D08EE13E04A2D6FE68091240462
:102DF0000E942F0CCA0CD11CBA0CC814D904C0F6FE
:102E0000B11001C02394422D4F716DE680912404CE
:102E10000E941F0C8B2D0E940311CACF0E94E0114B
:102E200083309105D8F3682FCE0101960E94CD1111
:102E3000F701EA56FF4F80E09491A1E8B0E0AC0FB3
:102E4000BD1FA80FB11D9C938F5F843010F4319685
:102E5000F3CFCD57DF4F6881C358D04070E0AB014E
:102E60004E5F5F4F282F30E04217530784F700E092
:102E7000CE57DF4F2881C258D040CF57DF4F48810F
:102E8000C158D04081E890E08C0F9D1F03960E94AE
:102E9000091120E047E06AE6809124040E94950D24
:102EA0008AE290E090932704809326040E94FC100D
:102EB0000E94E71010E001C011E01093020248E602
:102EC00050E063E1809124040E94F30B4AEF5FEF2E
:102ED00065E1809124040E94F30B41E150E067E139
:102EE000809124040E94F30B47ED57E06AE0809143
:102EF00024040E94F30B47E55EEF68E08091240410
:102F00000E94F30B4CE054EF66E0809124040E9491
:102F1000F30B11112FC08AE999E00E943D1221E0C4
:102F200047E06AE6809124040E94950D8BE599E0C4
:102F30000E943D1289EB97E090930101809300017C
:102F400080916900836080936900E89A0E94E7108D
:102F50008093510281E399E00E943D1281E08093C9
:102F6000010280912604909127049093530280934C
:102F7000520210C080E199E00E941C12609102028E
:102F800070E080E090E04AE00E944B128EE099E011
:102F90000E943D12B8E82B2E312C08E512E08091FA
:102FA00000028823C1F0109200028091FC019091F0
:102FB000FD0180FD02C060E007C062E070E00E9499
:102FC000821D019741F461E088E00E94330960E0CE
:102FD00089E00E943309209154023091550280917A
:102FE0005202909153024091FF01411103C02817F2
:102FF0003907C8F30E9435088091FE01882309F43F
:1030000034C16AE371E083E494E00E94BF0788233F
:1030100079F06AE371E087E394E00E94BF078111D1
:1030200072C060E08FE00E9433098CE699E016C020
:103030006FE371E083E494E00E94BF07882399F076
:103040006FE371E087E394E00E94BF0781115BC0EA
:1030500060E08EE00E94330983E699E00E94F90F58
:103060000E94410E50C064E471E083E494E00E9449
:10307000BF07882359F064E471E087E394E00E947D
:10308000BF07811140C061E08BE022C06BE471E0BA
:1030900083E494E00E94BF07811108C060E571E0FD
:1030A00083E494E00E94BF078823A9F06BE471E0F9
:1030B00087E394E00E94BF07811125C060E571E0BD
:1030C00087E394E00E94BF0781111DC061E08DE09D
:1030D0000E94330918C065E571E083E494E00E9422
:1030E000BF078111E2C36AE571E083E494E00E94C6
:1030F000BF078111E5C36FE571E083E494E00E94AE
:10310000BF078111E8C360914304709144046115C5
:10311000710549F0409147045091480487E394E0D9
:103120000E94720814C0809137049091380400976F
:1031300011F00E946420109238041092370410920B
:103140003C0410923B0410923A041092390465E654
:1031500071E08DE394E00E94BF07882319F00E947C
:1031600031107DC068E671E08DE394E00E94BF07F6
:10317000882371F0E0914904F0E0CF01880F991F96
:10318000E80FF91FEF52FC4F80818F7B808367C06F
:1031900080913D0490913E04009719F00E94F12126
:1031A00003C060E070E0CB017093070160930601FB
:1031B000653B710508F053C0DB0120EB34E00E9451
:1031C000961D24EB30E040E050E00E94512369015D
:1031D0007A01BCEBCB0EB2E0DB1EE11CF11CD092FD
:1031E0000501C0920401809149048C3080F59091D2
:1031F0004A04A101491B510997FD5395440F551FDE
:10320000440F551FC416D50684F090914B04B801A5
:10321000691B710997FD7395660F771F660F771FFE
:10322000A6016C157D050CF4AB0142505109440F09
:10323000551F6FB7F89490E09C01220F331F820F47
:10324000931FFC01EF52FC4F528341836FBF80916B
:10325000040190910501909304028093030283E49A
:1032600094E00E948C121092FE011092FF010E94C5
:10327000E710F82E809351020E94E01190935502BE
:1032800080935402F4FC03C08115944039F40E94E9
:10329000FC1086E79AE00E943D12E9C2F1FEE7C207
:1032A000E0905402F0905502C0905202D090530228
:1032B000EC14FD0438F40E94E011909355028093C1
:1032C0005402EECF6C2D81E192E00E94CD11EC18FA
:1032D000FD08F0925502E0925402A0901502B12C24
:1032E000BA2CAA2480911602A82AE0901902F12C87
:1032F000FE2CEE2480911A02E82AC0901D02D12CE7
:10330000DC2CCC2480911E02C82A6091110270E04E
:10331000762F662780911202682B072E000C880BEF
:10332000990B0E94342220E030E040E858E30E94EC
:1033300093222B013C016093140470931504809335
:10334000160490931704B501BB0C880B990B0E94CF
:10335000342220E030E040E858E30E9493224B0101
:103360005C01609318047093190480931A0490937D
:103370001B04B701FF0C880B990B0E94342220E03C
:1033800030E040E858E30E949322CF56DF4F688335
:1033900079838A839B83C159D04060931C047093C6
:1033A0001D0480931E0490931F04B601DD0C880B4E
:1033B000990B0E94342220E030E040E858E30E945C
:1033C0009322CB56DF4F688379838A839B83C559C9
:1033D000D040609320047093210480932204909342
:1033E00023049B01AC01C501B4010E9493226B012F
:1033F0007C01CF56DF4F288139814A815B81C159D9
:10340000D040C301B2010E9493229B01AC01C701CD
:10341000B6010E94B71D9B01AC010E94B81DC756A2
:10342000DF4F688379838A839B83C959D040609337
:10343000F6037093F7038093F8039093F903A501C3
:103440009401C301B2010E9493226B017C01CB560F
:10345000DF4F288139814A815B81C559D040CF56E1
:10346000DF4F688179818A819B81C159D0400E9458
:1034700093229B01AC01C701B6010E94B81D9B01BC
:10348000AC010E94B81DC356DF4F688379838A83DD
:103490009B83CD59D0406093FA037093FB038093D4
:1034A000FC039093FD03A3019201C301B2010E94AA
:1034B00093226B017C01A5019401C501B4010E9416
:1034C00093229B01AC01C701B6010E94B71D6B019D
:1034D0007C01CF56DF4F288139814A815B81C159F8
:1034E000D040CA01B9010E9493229B01AC01C701DF
:1034F000B6010E94B71D6B017C01CB56DF4F2881BE
:1035000039814A815B81C559D040CA01B9010E9405
:1035100093229B01AC01C701B6010E94B81D6B014B
:103520007C016093FE037093FF03809300049093EB
:103530000104A3019201C301B2010E94B81DCF553D
:10354000DF4F688379838A839B83C15AD040A5016A
:103550009401C501B4010E94B81DCB55DF4F6883AB
:1035600079838A839B83C55AD040A3019201CF55AA
:10357000DF4F688179818A819B81C15AD0400E9446
:1035800093222B013C01A5019401CB55DF4F6881AB
:1035900079818A819B81C55AD0400E9493229B01E8
:1035A000AC01C301B2010E94B81D20E030E040E848
:1035B0005FE30E94B71D2B013C01CF56DF4F2881EE
:1035C00039814A815B81C159D040CB55DF4F688139
:1035D00079818A819B81C55AD0400E9493224B01F8
:1035E0005C01CB56DF4F288139814A815B81C55907
:1035F000D040CF55DF4F688179818A819B81C15A44
:10360000D0400E9493229B01AC01C501B4010E94ED
:10361000B71DA30192010E94371E609305027093AB
:1036200006028093070290930802A7019601C70142
:10363000B6010E9493226B017C01C356DF4F2881A3
:1036400039814A815B81CD59D040CA01B9010E94BC
:103650009322A70196010E94B81D0E94711F9B0131
:10366000AC01C756DF4F688179818A819B81C95936
:10367000D0400E94961E0E94671E609309027093BC
:103680000A0280930B0290930C02C756DF4F2881E9
:1036900039814A815B81C959D040CA01B9010E9470
:1036A0009322A70196010E94B81D0E94711F9B01E1
:1036B000AC01C356DF4F688179818A819B81CD59E6
:1036C000D0400E94961E0E94671E60930D02709368
:1036D0000E0280930F02909310028BE691E00E94FD
:1036E000E70F20E030E044E353E46091050270917D
:1036F000060280910702909108020E9493222BED0E
:103700003FE049E450E40E94961E6B017C014B01AE
:103710005C019B01AC010E94B51F882319F080E772
:1037200091E01AC026013701E89477F82FEF3FEFB8
:103730004FE75FE7C301B2010E94B51F81110FC0BF
:103740002FEF3FEF4FE75FE7C301B2010E942D2249
:1037500018162CF484E791E00E94E70F84C02FEF45
:103760003FEF4FE75FE4C701B6010E945E1F1816E6
:103770001CF488E791E0F0CF2FEF3FEF4FE75FECCD
:10378000C701B6010E942D2287FDF3CF20E030E073
:10379000A901C701B6010E942D2287FF11C0E09147
:1037A0002803F09129030190F081E02D6DE288E279
:1037B00093E0099546015701B7FAB094B7F8B09471
:1037C0002AE037ED43EA5BE3C501B4010E94B81D6E
:1037D0004B015C010E94081F6B017C010E94322298
:1037E0009B01AC01C501B4010E94B71D4B015C01F6
:1037F0004AE0C701B6010E944B12E0912803F09104
:1038000029030190F081E02D6EE288E293E00995B2
:1038100020E030E040E251E4C501B4010E9493226F
:103820006B017C010E94081F4B01A12CB12C4AE0C6
:10383000C501B4010E944B12C501B4010E9432229D
:103840009B01AC01C701B6010E94B71D20E030E02A
:1038500040E251E40E9493220E94081F80E090E021
:103860004AE00E944B128CE791E00E94E70F0E9411
:10387000A40FE7E6FAE08491E3E5FAE0F490EFE3E1
:10388000FAE0E490EE2091F181110E940A09EE2DF8
:10389000F0E0EE0FFF1FE05DF54FA591B4918C9124
:1038A000F82221F10E946C087ACB65E571E087E38C
:1038B00094E00E94BF07811126CC61E080E108CC32
:1038C0006AE571E087E394E00E94BF0781111BCC99
:1038D00061E081E1FDCB6FE571E087E394E00E9458
:1038E000BF07811110CC0E94870F0DCC61E088E0EA
:1038F0000E94330961E089E00E943309D3CF8091AF
:103900003704909138040E94642080913D04909186
:103910003E040E94642080914304909144040C94DE
:10392000642010922B0310922A0388EE93E0A0E00B
:10393000B0E080932C0390932D03A0932E03B093BB
:103940002F032EE131E0309329032093280325EC47
:1039500030E0309335032093340324EC30E030938F
:1039600037032093360320EC30E030933903209363
:10397000380321EC30E030933B0320933A0322ECF0
:1039800030E030933D0320933C0326EC30E030934D
:103990003F0320933E031092410310924203109282
:1039A0004303109244031092C8031092C7038093FC
:1039B000C9039093CA03A093CB03B093CC038EE2C8
:1039C00091E09093C6038093C5038091F5038C30FA
:1039D000A0F491E0980F9093F5038093490490E050
:1039E000FC01EE0FFF1F8E0F9F1FFC01EF52FC4FDB
:1039F00088EB9BE09283818303C08FEF809349041F
:103A00006FE671E083E494E00E949D086FE671E048
:103A10008DE394E00E949D086FE671E087E394E0F7
:103A20000E949D0888E68093240480E090E0A0E84E
:103A3000BFE38093140490931504A0931604B093ED
:103A40001704109218041092190410921A0410927C
:103A50001B0410921C0410921D0410921E0410925C
:103A60001F0410922004109221041092220410923C
:103A7000230410920F0410920E041092110410925D
:103A80001004109213041092120410920904109260
:103A9000080410920B0410920A0410920D04109264
:103AA0000C04109203041092020410920504109268
:103AB000040410920704109206041092F603109268
:103AC000F7031092F8031092F9031092FA03109280
:103AD000FB031092FC031092FD031092FE03109260
:103AE000FF0310920004109201040895991B79E0DD
:103AF00004C0991F961708F0961B881F7A95C9F77E
:103B00008095089597FB072E16F4009407D077FD53
:103B100009D00E949D1D07FC05D03EF4909581952B
:103B20009F4F0895709561957F4F08950E94C92316
:103B3000B7FF0895821B930B0895AA1BBB1B51E18D
:103B400007C0AA1FBB1FA617B70710F0A61BB70B0D
:103B5000881F991F5A95A9F780959095BC01CD01B2
:103B60000895EE0FFF1F0590F491E02D0994505831
:103B7000BB27AA270E94CF1D0C9417230E9409235C
:103B800038F00E94102320F039F49F3F19F426F4F6
:103B90000C9406230EF4E095E7FB0C940023E92F28
:103BA0000E94282358F3BA17620773078407950702
:103BB00020F079F4A6F50C944A230EF4E0950B2E30
:103BC000BA2FA02D0B01B90190010C01CA01A0016F
:103BD0001124FF27591B99F0593F50F4503E68F1CA
:103BE0001A16F040A22F232F342F4427585FF3CF0B
:103BF000469537952795A795F0405395C9F77EF4DC
:103C00001F16BA0B620B730B840BBAF09150A1F024
:103C1000FF0FBB1F661F771F881FC2F70EC0BA0FAA
:103C2000621F731F841F48F4879577956795B79532
:103C3000F7959E3F08F0B0CF9395880F08F099272D
:103C4000EE0F9795879508950E94092360F080E80C
:103C500091E009F49EEF0E94102328F040E851E023
:103C600071F45EEF0CC00C9406230C944A23E92FE8
:103C7000E0780E94282340F3092E052AB1F3261785
:103C800037074807590738F00E2E07F8E02569F086
:103C9000E025E0640AC0EF6307F8009407FADB014F
:103CA000B9019D01DC01CA01AD01EF930E94AD1E77
:103CB0000E9417230E94671E5F91552339F02BED58
:103CC0003FE049E450FD49EC0C94B81D0895DF93A2
:103CD000DD27B92FBF7740E85FE3161617064807C0
:103CE0005B0718F4D92F0E94631F9F938F937F93D4
:103CF0006F930E94B11FE8E6F0E00E94371F0E9418
:103D000017232F913F914F915F910E94A622DD23AF
:103D100051F09058A2EA2AED3FE049EC5FE3D078F9
:103D20005D270E94CF1DDF910C9417230E94AA1ECD
:103D30000C9417230E94102358F00E94092340F08E
:103D400029F45F3F29F00C94002351110C944B236C
:103D50000C9406230E94282368F39923B1F355237A
:103D600091F3951B550BBB27AA276217730784078E
:103D700038F09F5F5F4F220F331F441FAA1FA9F324
:103D800035D00E2E3AF0E0E832D091505040E69512
:103D9000001CCAF72BD0FE2F29D0660F771F881F73
:103DA000BB1F261737074807AB07B0E809F0BB0B66
:103DB000802DBF01FF2793585F4F3AF09E3F51057A
:103DC00078F00C9400230C944B235F3FE4F3983E6F
:103DD000D4F3869577956795B795F7959F5FC9F763
:103DE000880F911D9695879597F90895E1E0660FE4
:103DF000771F881FBB1F621773078407BA0720F05D
:103E0000621B730B840BBA0BEE1F88F7E0950895C5
:103E10000E94302388F09F5798F0B92F9927B75107
:103E2000B0F0E1F0660F771F881F991F1AF0BA955E
:103E3000C9F714C0B13091F00E944A23B1E008954F
:103E40000C944A23672F782F8827B85F39F0B93F41
:103E5000CCF3869577956795B395D9F73EF4909511
:103E60008095709561957F4F8F4F9F4F0895DF9399
:103E7000CF931F930F93FF92EF92DF927B018C0100
:103E8000689406C0DA2EEF010E94A622FE01E89493
:103E9000A5912591359145915591A6F3EF010E9489
:103EA000CF1DFE019701A801DA9469F7DF90EF902A
:103EB000FF900F911F91CF91DF9108950E946F2283
:103EC00008F48FEF08959B01AC0160E070E080E89A
:103ED0009FE30C94961E19F416F40C9406230C948C
:103EE000BA1F0E943023B8F39923C9F3B6F39F5742
:103EF000550B87FF0E94C81F0024A0E640EA9001EE
:103F000080585695979528F4805C660F771F881F18
:103F100020F026173707480730F4621B730B840B19
:103F2000202931294A2BA69517940794202531255D
:103F30004A2758F7660F771F881F20F02617370784
:103F4000480730F4620B730B840B200D311D411DAB
:103F5000A09581F7B901842F9158880F9695879580
:103F600008959B01AC010C9493220E946F22880B50
:103F7000990B08959F3F31F0915020F487957795E4
:103F80006795B795880F911D9695879597F9089530
:103F900091505040660F771F881FD2F70895CF9336
:103FA000DF938230910510F482E090E0E0914E04BE
:103FB000F0914F0420E030E0C0E0D0E0309711F104
:103FC0004081518148175907C0F04817590761F4DB
:103FD00082819381209719F09B838A832BC09093D1
:103FE0004F0480934E0426C02115310519F0421765
:103FF000530718F49A01BE01DF01EF010280F3813B
:10400000E02DDCCF2115310509F1281B390B2430B7
:10401000310590F412968D919C911397611571055D
:1040200021F0FB019383828304C090934F0480931B
:104030004E04FD01329644C0FD01E20FF31F81934F
:104040009193225031092D933C933AC020914C0416
:1040500030914D04232B41F420910A0130910B0142
:1040600030934D0420934C042091080130910901B4
:104070002115310541F42DB73EB740910C01509107
:104080000D01241B350BE0914C04F0914D04E21717
:10409000F307A0F42E1B3F0B2817390778F0AC016B
:1040A0004E5F5F4F2417350748F04E0F5F1F509348
:1040B0004D0440934C048193919302C0E0E0F0E002
:1040C000CF01DF91CF9108950F931F93CF93DF938B
:1040D000009709F48CC0FC01329713821282009180
:1040E0004E0410914F040115110581F42081318196
:1040F000820F931F20914C0430914D0428173907EB
:1041000079F5F0934D04E0934C0471C0D80140E080
:1041100050E0AE17BF0750F412962D913C911397C3
:10412000AD012115310509F1D901F3CF9D01DA0166
:104130003383228360817181860F971F82179307D3
:1041400069F4EC0128813981260F371F2E5F3F4F1C
:10415000318320838A819B8193838283452B29F439
:10416000F0934F04E0934E0442C01396FC93EE93F9
:104170001297ED01499159919E01240F351FE217C5
:10418000F30771F480819181840F951F0296119637
:104190009C938E938281938113969C938E93129716
:1041A000E0E0F0E0D80112968D919C911397009772
:1041B00019F0F8018C01F6CF8D919C9198012E5F3A
:1041C0003F4F820F931F20914C0430914D042817CC
:1041D000390769F4309729F410924F0410924E0475
:1041E00002C01382128210934D0400934C04DF919D
:1041F000CF911F910F910895A0E0B0E0E2E0F1E2CD
:104200000C947423EC01009721F4CB010E94CF1F82
:10421000B8C0FC01E60FF71F9C0122503109E217DC
:10422000F30708F4ACC0D9010D911C911197061742
:104230001707B0F00530110508F49FC0C8010497B6
:104240008617970708F499C002501109061B170B2F
:10425000019311936D937C93CF010E9464208DC0D4
:104260005B01A01AB10A4C01800E911EA0914E0470
:10427000B0914F0440E050E0E12CF12C109709F48C
:104280004AC0A815B905D1F56D907C9011976301CE
:1042900082E0C80ED11CCA14DB0480F1A3014A19C4
:1042A0005B096A0182E0C80ED11C1296BC9012977D
:1042B0001396AC91B5E0CB16D10440F0B282A38343
:1042C00051834083D9016D937C930AC00E5F1F4FC9
:1042D000C301800F911FF90191838083EB2DFA2F89
:1042E000E114F10431F0D7011396FC93EE93129789
:1042F00044C0F0934F04E0934E043FC08D919C91D5
:1043000011974817590708F4AC017D0112960D90DA
:10431000BC91A02DB3CF80914C0490914D04881591
:104320009905E1F446175707C8F480910801909168
:104330000901009741F48DB79EB740910C0150914F
:104340000D01841B950BE817F907C8F4F0934D0491
:10435000E0934C04F901718360830FC0CB010E948C
:10436000CF1F7C01009759F0A801BE010E94D821FF
:10437000CE010E946420C70104C0CE0102C080E0CB
:1043800090E0CDB7DEB7EEE00C94902381E090E0B2
:10439000F8940C94D823FB01DC0104C08D910190AA
:1043A000801921F441505040C8F7881B990B08959B
:1043B000FB01DC0102C001900D9241505040D8F742
:1043C0000895FB01DC018D91019080190110D9F352
:1043D000990B0895FB01DC0101900D920020E1F79B
:1043E00008951F93FC0199278827BC01E894119137
:1043F0001032E9F3193010F01E30C8F31B3251F0BF
:104400001D3249F4689406C00E941822610F711D84
:10441000811D911D119110531A30B0F33EF4909507
:104420008095709561957F4F8F4F9F4F1F91089595
:10443000592F482F372F262F660F771F881F991F58
:10444000660F771F881F991F620F731F841F951FA8
:10445000660F771F881F991F08950E946F2208F426
:1044600081E00895E89409C097FB3EF4909580950B
:10447000709561957F4F8F4F9F4F9923A9F0F92F2A
:1044800096E9BB279395F695879577956795B795A8
:10449000F111F8CFFAF4BB0F11F460FF1BC06F5F8E
:1044A0007F4F8F4F9F4F16C0882311F096E911C0A0
:1044B000772321F09EE8872F762F05C0662371F0C1
:1044C00096E8862F70E060E02AF09A95660F771FD5
:1044D000881FDAF7880F9695879597F90895990FB1
:1044E0000008550FAA0BE0E8FEEF16161706E807BE
:1044F000F907C0F012161306E407F50798F0621BDF
:10450000730B840B950B39F40A2661F0232B242BB3
:10451000252B21F408950A2609F4A140A6958FEFD2
:10452000811D811D08950E94A6220C9417230E94CC
:10453000092338F00E94102320F0952311F00C94E9
:1045400000230C94062311240C944B230E9428234F
:1045500070F3959FC1F3950F50E0551F629FF001D6
:10456000729FBB27F00DB11D639FAA27F00DB11DEF
:10457000AA1F649F6627B00DA11D661F829F222778
:10458000B00DA11D621F739FB00DA11D621F839FFF
:10459000A00D611D221F749F3327A00D611D231FD5
:1045A000849F600D211D822F762F6A2F11249F5723
:1045B00050409AF0F1F088234AF0EE0FFF1FBB1F26
:1045C000661F771F881F91505040A9F79E3F5105E5
:1045D00080F00C9400230C944B235F3FE4F3983E4F
:1045E000D4F3869577956795B795F795E7959F5F8F
:1045F000C1F7FE2B880F911D9695879597F9089521
:1046000097F99F6780E870E060E008959FEF80EC85
:10461000089500240A941616170618060906089528
:1046200000240A9412161306140605060895092E8E
:104630000394000C11F4882352F0BB0F40F4BF2BFD
:1046400011F460FF04C06F5F7F4F8F4F9F4F08953D
:1046500057FD9058440F551F59F05F3F71F0479533
:10466000880F97FB991F61F09F3F79F08795089518
:10467000121613061406551FF2CF4695F1DF08C037
:10468000161617061806991FF1CF86957105610554
:1046900008940895E894BB2766277727CB0197F9FC
:1046A0000895052E97FB1EF400940E94682357FD81
:1046B00007D00E94A72307FC03D04EF40C94682374
:1046C00050954095309521953F4F4F4F5F4F08953E
:1046D00090958095709561957F4F8F4F9F4F08956E
:1046E0002F923F924F925F926F927F928F929F9202
:1046F000AF92BF92CF92DF92EF92FF920F931F93F0
:10470000CF93DF93CDB7DEB7CA1BDB0B0FB6F894A0
:10471000DEBF0FBECDBF09942A88398848885F84E0
:104720006E847D848C849B84AA84B984C884DF8051
:10473000EE80FD800C811B81AA81B981CE0FD11D35
:104740000FB6F894DEBF0FBECDBFED010895A1E214
:104750001A2EAA1BBB1BFD010DC0AA1FBB1FEE1FFB
:10476000FF1FA217B307E407F50720F0A21BB30B46
:10477000E40BF50B661F771F881F991F1A9469F7C2
:1047800060957095809590959B01AC01BD01CF011E
:104790000895A29FB001B39FC001A39F700D811D1A
:1047A0001124911DB29F700D811D1124911D08953A
:1047B00015E0CEE4D5E004C0FE010E94B11D2196B3
:0A47C000CF34D107C9F7F894FFCFFA
:1047CA008B068B06DC055A000000500480000100AD
:1047DA0000006B006C006D00E80300000000FD059E
:1047EA007905C605A405B8054406000000001A07A5
:1047FA00EA06E206CE06BF06BE064C6C650D004C04
:10480A0072690D004C73746F700D004C70610D006D
:10481A004C74610D004C72650D004C66720D004CB3
:10482A0064694C0D00656E00646900797072090054
:10483A006E616E00696E66006F7666000D0A005042
:10484A006C65617365206368617267652074686569
:0A485A002042617474657279210038
:107800000C94343C0C94513C0C94513C0C94513CE1
:107810000C94513C0C94513C0C94513C0C94513CB4
:107820000C94513C0C94513C0C94513C0C94513CA4
:107830000C94513C0C94513C0C94513C0C94513C94
:107840000C94513C0C94513C0C94513C0C94513C84
:107850000C94513C0C94513C0C94513C0C94513C74
:107860000C94513C0C94513C11241FBECFEFD8E036
:10787000DEBFCDBF11E0A0E0B1E0ECE9FFE702C060
:1078800005900D92A230B107D9F712E0A2E0B1E065
:1078900001C01D92AD30B107E1F70E942D3D0C945F
:1078A000CC3F0C94003C982F959595959595959582
:1078B000905D8F708A307CF0282F295A8091C0000B
:1078C00085FFFCCF9093C6008091C00085FFFCCF60
:1078D0002093C6000895282F205DF0CF982F809127
:1078E000C00085FFFCCF9093C6000895EF92FF92F1
:1078F0000F931F93EE24FF2487018091C00087FD22
:1079000017C00894E11CF11C011D111D81E4E8164B
:1079100082E4F8068FE0080780E0180770F3E09132
:107920000401F091050109958091C00087FFE9CF1E
:107930008091C6001F910F91FF90EF9008950E94D3
:10794000763C982F8091C00085FFFCCF9093C600B5
:1079500091362CF490330CF09053892F089597555D
:10796000892F08951F930E949F3C182F0E949F3CCF
:107970001295107F810F1F9108951F93182F882350
:1079800021F00E94763C1150E1F71F9108951F935A
:10799000182F0E94763C803249F0809103018F5F5E
:1079A000809303018530C1F01F9108958091C0003C
:1079B00085FFFCCF84E18093C6008091C00085FFE5
:1079C000FCCF1093C6008091C00085FFFCCF80E102
:1079D0008093C6001F910895E0910401F091050184
:1079E00009951F9108950E94763C803241F0809164
:1079F00003018F5F80930301853081F008958091AA
:107A0000C00085FFFCCF84E18093C6008091C00058
:107A100085FFFCCF80E18093C6000895E0910401CA
:107A2000F09105010995089540E951E08823A1F0FE
:107A30002D9A28EE33E0FA013197F1F721503040CA
:107A4000D1F72D9828EE33E0FA013197F1F7215064
:107A50003040D1F7815061F708953F924F925F9285
:107A60006F927F928F929F92AF92BF92CF92DF924E
:107A7000EF92FF920F931F93CF93DF93000080E16B
:107A80008093C4001092C50088E18093C10086E015
:107A90008093C2005098589A259A81E00E94143D24
:107AA00024E1F22E9EE1E92E85E9D82E0FE0C02ECA
:107AB00010E1B12EAA24A394B1E49B2EA6E58A2E50
:107AC000F2E57F2EE0E26E2E79E4572E63E5462E36
:107AD00050E5352E0E94763C8033B1F18133B9F107
:107AE000803409F46FC0813409F476C0823409F41B
:107AF00085C0853409F488C0803531F1823521F1A3
:107B0000813511F1853509F485C0863509F48DC0BC
:107B1000843609F496C0843709F403C1853709F423
:107B200072C1863709F466C0809103018F5F80932C
:107B30000301853079F6E0910401F0910501099582
:107B40000E94763C803351F60E94F33CC3CF0E94E2
:107B5000763C803249F78091C00085FFFCCFF092DF
:107B6000C6008091C00085FFFCCF9092C600809136
:107B7000C00085FFFCCF8092C6008091C00085FFC9
:107B8000FCCF7092C6008091C00085FFFCCF609250
:107B9000C6008091C00085FFFCCF5092C600809146
:107BA000C00085FFFCCF4092C6008091C00085FFD9
:107BB000FCCF3092C6008091C00085FFFCCFB09210
:107BC000C60088CF0E94763C863808F4BDCF0E945C
:107BD000763C0E94F33C7ECF0E94763C803809F4CC
:107BE0009CC0813809F40BC1823809F43CC1883942
:107BF00009F48FC080E00E94C73C6CCF84E10E94F2
:107C0000BD3C0E94F33C66CF85E00E94BD3C0E94D3
:107C1000F33C60CF0E94763C809306010E94763C44
:107C2000809307010E94F33C55CF0E94763C80333D
:107C300009F41DC183E00E94BD3C80E00E94C73C66
:107C400049CF0E94763C809309020E94763C809343
:107C5000080280910C028E7F80930C020E94763C79
:107C6000853409F415C18091080290910902892B8D
:107C700089F000E010E00E94763CF801E85FFE4FDA
:107C800080830F5F1F4F80910802909109020817AF
:107C9000190788F30E94763C803209F045CF809125
:107CA0000C0280FF01C16091060170910701660F0F
:107CB000771F7093070160930601A0910802B091AD
:107CC00009021097C9F0E8E0F1E09B01AD014E0F09
:107CD0005F1FF999FECF32BD21BD819180BDFA9A17
:107CE000F99A2F5F3F4FE417F50799F76A0F7B1F4B
:107CF00070930701609306018091C00085FFFCCF5F
:107D0000F092C6008091C00085FFFCCFB092C60003
:107D1000E1CE83E00E94C73CDDCE82E00E94C73CFA
:107D2000D9CE0E94763C809309020E94763C8093D3
:107D300008028091060190910701880F991F909386
:107D40000701809306010E94763C853409F4A6C0A1
:107D500080910C028E7F80930C020E94763C8032D0
:107D600009F0B8CE8091C00085FFFCCFF092C6002C
:107D7000609108027091090261157105B9F140E046
:107D800050E080910C02A82FA170B82FB27011C0E2
:107D9000BB2309F45CC0E0910601F0910701319624
:107DA000F0930701E09306014F5F5F4F46175707B7
:107DB000E8F4AA2369F3F999FECF209106013091E6
:107DC000070132BD21BDF89A90B58091C00085FFB2
:107DD000FCCF9093C6002F5F3F4F30930701209355
:107DE00006014F5F5F4F4617570718F38091C00099
:107DF00085FDE5CE8091C00085FFF8CFE0CE81E023
:107E00000E94C73C67CE0E94763C803209F08CCE3F
:107E10008091C00085FFFCCFF092C6008091C00029
:107E200085FFFCCFE092C6008091C00085FFFCCFAB
:107E3000D092C6008091C00085FFFCCFC092C600E2
:107E40008091C00085FFFCCFB092C60043CEE09188
:107E50000601F091070194918091C00085FFFCCF4D
:107E60009093C6009CCF80E10E94C73C33CE0E9415
:107E7000763C0E94763C182F0E94763C112309F430
:107E800083C0113009F484C08FE00E94C73C22CE29
:107E900080910C02816080930C02E5CE80910C02EF
:107EA000816080930C0259CF809107018823880F4D
:107EB000880B8A2180930B02809106019091070123
:107EC000880F991F90930701809306018091080203
:107ED00080FF09C080910802909109020196909359
:107EE000090280930802F894F999FECF1127E091D6
:107EF0000601F0910701C8E0D1E08091080290915D
:107F00000902103091F40091570001700130D9F34B
:107F100003E000935700E89500915700017001308D
:107F2000D9F301E100935700E89509901990009169
:107F3000570001700130D9F301E000935700E89534
:107F40001395103498F011270091570001700130FB
:107F5000D9F305E000935700E895009157000170B0
:107F60000130D9F301E100935700E895329602976A
:107F700009F0C7CF103011F00296E5CF112480919F
:107F8000C00085FFB9CEBCCE8EE10E94C73CA2CD19
:0C7F900085E90E94C73C9ECDF894FFCF0D
:027F9C00800063
:040000030000780081
:00000001FF
