:100000000C94A2060C94E41B0C94BD1B0C94B81722
:100010000C9493170C946E170C94CA060C94CA0691
:100020000C94CA060C944D090C94CA060C94940ABC
:100030000C94CA060C94CA060C94CA060C94CA0600
:100040000C94731B0C94CA060C94661A0C94401AF8
:100050000C94CA060C94CA060C94CA060C94CA06E0
:100060000C940B1C0C94CA06084AD73B3BCE016E7D
:1000700084BCBFFDC12F3D6C74319ABD56833DDAFF
:100080003D00C77F11BED9E4BB4C3E916BAAAABE0E
:10009000000000803F0001B202FFFF01900409232D
:1000A000A135016A0206000160080000000000009E
:1000B00000000060044000000001620200000060D7
:1000C0000400400000037B034CCD6C03AB033656A9
:1000D0007600680402CB47A202180400058BC10118
:1000E0000C0400000000037F060CC92C97979703AF
:1000F0008903264666006C022000024004000000CE
:100100000002440400000000024804000000000255
:100110004C040000000002500400000000025404DF
:100120000000000002580400000000025C0400000F
:10013000000002BC040000000001EC0400004000CC
:10014000037F060CC92C9797970402030D355D04B5
:100150000904872D353D00A301000000000107863A
:1001600001FE074105F120283038077E013007469F
:10017000019A074704F1283038076C04F128303819
:100180000216020001FB00003E000B0036000100D9
:10019000020003000000650054FFEF0000FA800039
:1001A0000B128200010002000000000000000000AD
:1001B000000000000000280000FFFF4581FFFFFA5B
:1001C0007200000000000003E80000000100017F51
:1001D000FFFFFE8001001B00000000000000000087
:1001E0000000000000003E03304000000002CAE3AF
:1001F000093E8000002000000000000000400000D8
:10020000006000000041FF000000000B2A00001603
:100210005500002182FD872650FD800000001F0050
:100220000000058000000000000001000000020046
:100230000000030000400000000000046F000265A1
:100240003200005EC040000000000000000000001E
:100250000000000000FB8C6F5DFD5D08D9007C7321
:100260003B006C12CC3200139D3200D0D632000815
:1002700000400001F4FFE68079020000000000D099
:10028000D600002710FB0000004000000000000026
:10029000000000000000000001000000000000015C
:1002A00000010000000000FA36FFBC308E0005FBA4
:1002B000F0FFD95BC8FFD09ABE000010A9FFF41E62
:1002C000B200CEBBF70000000100000004000200F5
:1002D000020200000CFFC280000001800000CF80FD
:1002E00000400000000000000100000000000006C7
:1002F00000000000140000000000000000000000EA
:1003000000000000000000000000000000000000ED
:1003100000000000000000000000000000000000DD
:10032000000000000000000000033F68B679352897
:10033000BCC67ED16C80000000400000000000B20E
:100340006A00000000000000000000000000003F04
:10035000F00000003000000000000000000000007D
:10036000000000000000000000000000000000008D
:1003700000000000000000254D002F706D000005FA
:10038000AE000C02D00000000000650054FFEF003A
:100390000000000000000001000044000000000C0C
:1003A0000000000100000000000065000000540093
:1003B00000FFEF000000000000000000000000004F
:1003C00000000000004000000000000000000000ED
:1003D00000000000004000000000000000000000DD
:1003E000000000000000000001000000020000000A
:1003F00000000000000000000000000000000000FD
:1004000000000000000000000000000000000000EC
:100410000000000000001B000000000000000000C1
:1004200000000000000000000000000000000000CC
:1004300000000000000000000000000000000000BC
:100440000040000000001B00000000000000000051
:10045000000000000000000000000000000000009C
:10046000000000000000000000000000000000008C
:10047000000000000000000000000000000000007C
:100480000000000000D8DCBAA2F1DEB2B8B4A88146
:1004900091F74A907F916AF3F9DBA8F9B0BAA0808E
:1004A000F2CE81F3C2F1C1F2C3F3CCA2B280F1C6A5
:1004B000D880BAA7DFDFDFF2A7C3CBC5B6F087A22B
:1004C000942448703C95406834589B78A2F18392FC
:1004D0002D557DD8B1B4B8A1D09180F270F370F2EF
:1004E0007C80A8F101B09887D943D886C988BAA181
:1004F000F20EB89780F1A9DFDFDFAADFDFDFF2AA13
:10050000C5CDC7A90CC92C97979797F1A9892646FD
:1005100066B0B4BA80ACDEF2CAF1B28C02A9B69869
:1005200000890E161EB8A9B4992C547CB08AA896DE
:10053000365676F1B9AFB4B083C0B8A89711B18F71
:1005400098B9AFF0240844106418F1A329557DAF81
:1005500083B593AFF0002850F1A3869F61A6DADE41
:10056000DFD9FAA38696DB31A6D9F8DFBAA68FC207
:10057000C5C7B28CC1B8A2DFDFDFA3DFDFDFD8D809
:10058000F1B8A8B286B4980D355DB8AA98B0872D99
:10059000353DB2B6BAAF8C96198F9FA70E161EB412
:1005A0009AB8AA872C547CB9A3DEDFDFA3B180F20E
:1005B000C4CDC9F1B8A9B499830D355D89B9A32D0E
:1005C000557DB593A30E161EA92C547CB8B4B0F17A
:1005D0009783A81184A50998A383F0DA240844100E
:1005E0006418D8F1A529557DA58595021A2E3A568D
:1005F0005A4048F9F3A3D9F8F098832408441064CA
:10060000189782A8F111F098A2240844106418DA0F
:10061000F3DED883A59401D9A302F1A2C3C5C7D83C
:10062000F18492A24DDA2AD84869D92AD86855DAD5
:1006300032D85071D932D8705DDA3AD85879D93A6F
:10064000D87893A34DDA2AD84869D92AD86855DAD8
:1006500032D85071D932D8705DDA3AD85879D93A4F
:10066000D878A88A9AF02850789EF38818F19F1DB0
:1006700098A8D908D8C89F129EF315A8DA1210D8E6
:10068000F1AFC8978734B5B994A421F3D922D8F231
:100690002DF3D92AD8F235F3D932D881A46060611C
:1006A000D961D86C6869D969D8747071D971D8B1B9
:1006B000A384193D5DA3831A3E5E9310308110110F
:1006C000B8B0AF8F94F2DA3ED8B49AA88729DAF896
:1006D000D8879A35DAF8D8879A3DDAF8D8B1B9A42C
:1006E0009885022E56A581000C14A397B08AF12D8F
:1006F000D928D84DD948D86DD968D8B1840DDA0E2B
:10070000D8A32983DA2C0ED8A3844983DA2C4C0E83
:10071000D8B8B0A88A9AF520AADADFD8A840AAD01B
:10072000DADED8A860AADAD0DFD8F19786A8319BA4
:10073000069907AB9728889BF00C201440B8B0B4FA
:10074000A88C9CF0042851791D301438B282ABD0AB
:10075000982C505078789BF11AB0F08A9CA82951B7
:10076000798B2951798A2470598B2058718A446970
:10077000388B3940688A6448318B304960A58820BD
:100780000971584468113964493019F1AC002C548E
:100790007CF08CA804285078F1889726A85998AC4A
:1007A0008C02264666F0899CA82951792470594408
:1007B0006938644831A98809205970AB11384069FB
:1007C000A8193148608CA83C415C207C00F18798D6
:1007D0001986A86E767EA999882D557D9EB9A38A23
:1007E000228A6E8A568A5E9FB183062646660E2E40
:1007F0004E6E9DB8AD002C547CF2B18CB499B9A367
:100800002D557D8191AC38AD3AB58391AC2DD92869
:10081000D84DD948D86DD968D88C9DAE29D904AEA9
:10082000D851D904AED879D904D881F39DAD008DC3
:10083000AE1981ADD901D8F2AEDA26D88E912983CE
:10084000A7D9ADADADADF32AD8D8F1B0AC89913E02
:100850005E76F3AC2E2EF1B18C5A9CAC2C28282855
:100860009CAC3018A8988128343C9724A728343CA5
:100870009C24F2B089AC912C4C6C8A9B2DD9D8D891
:1008800051D9D8D879D9D8D8F19E88A331DAD8D817
:10089000912DD928D84DD948D86DD968D8B183932E
:1008A000353D8025DAD8D88569DAD8D8B49381A3C4
:1008B00028343CF3AB8BF8A391B609B4D9ABDEFA7C
:1008C000B0879CB9A3DDF1A3A3A3A395F1A3A3A330
:1008D0009DF1A3A3A3A3F2A3B49080F2A3A3A3A327
:1008E000A3A3A3A3A3A3B2A3A3A3A3A3A3B087B5C6
:1008F00099F1A3A3A398F1A3A3A3A397A3A3A3A34D
:10090000F39BA3A3DCB9A7F1262626D8D8FF29009C
:10091000444D5020496E697469616C697A617469EB
:100920006F6E206661696C65642028636F64652062
:1009300000444D50207265616479212057616974CB
:10094000696E6720666F7220666972737420696EC3
:10095000746572727570742E2E2E00456E61626C15
:10096000696E6720696E7465727275707420646553
:1009700074656374696F6E202841726475696E6F67
:100980002065787465726E616C20696E7465727230
:100990007570742030292E2E2E00456E61626C69B0
:1009A0006E6720444D502E2E2E004D50553630355A
:1009B0003020636F6E6E656374696F6E2066616967
:1009C0006C6564004D50553630353020636F6E6E67
:1009D000656374696F6E20737563636573736675A1
:1009E0006C00496E697469616C697A696E6720444C
:1009F0004D502E2E2E0054657374696E6720646509
:100A00007669636520636F6E6E656374696F6E737C
:100A10002E2E2E00496E697469616C697A696E6761
:100A20002049324320646576696365732E2E2E005B
:100A3000000000002300260029000404040404042C
:100A4000040402020202020203030303030301027D
:100A5000040810204080010204081020010204084C
:100A6000102000000008000201000003040700003D
:100A70000000000000004649464F206F7665726610
:100A80006C6F7721004C64694C004C64694C004CDD
:100A90006672004C6672004C7265004C7265004CC8
:100AA0007461004C7061004C7461004C7061004CCA
:100AB00073746F70004C73746F70004C7269004CEB
:100AC0007269004C6C65004C6C6500427566666529
:100AD00072206F766572666C6F7720707562004663
:100AE0006C6173682072656164206E6F7420696D3B
:100AF000706C00427566666572206F766572666C12
:100B00006F772070756200466C6173682072656152
:100B100064206E6F7420696D706C004F766572662C
:100B20006C6F7720696E206C6F672C207472756E05
:100B30006361746564206D7367004D6573736167ED
:100B4000652066726F6D20646576696365206472E6
:100B50006F707065643A206D657373616765206CB2
:100B60006172676572207468616E20627566666581
:100B7000722E007374645F6D7367732F55496E74C2
:100B8000380037633831363432323965376432638E
:100B9000313765623935653932333136313766641C
:100BA0006565007374645F6D7367732F5374726946
:100BB0006E670039393263653861313638376365BD
:100BC000633863386264383833656337336361345C
:100BD000316431007374645F6D7367732F54696D92
:100BE00065006364373136366337346335353263D5
:100BF0003331316662636332666535613762633211
:100C0000383900726F7373657269616C5F6D7367F9
:100C1000732F546F706963496E666F00306164357D
:100C20003166383866633434383932663863313087
:100C300036383430373736343630303500726F73EB
:100C400073657269616C5F6D7367732F4C6F6700BA
:100C5000313161626437333163323539333332369F
:100C60003163643631383362643132643632393557
:100C700000726F7373657269616C5F6D7367732F58
:100C800052657175657374506172616D00396630BB
:100C900065393862646136353938313938366464DB
:100CA0006635336166613761343065343900737499
:100CB000645F6D7367732F55496E7431360031640C
:100CC0006637396564663230386236323966653681
:100CD000623831393233613534343535326400733A
:100CE00074645F6D7367732F466C6F617433320089
:100CF000373366636266343662343931393165368A
:100D0000373239303865353038343261383364340D
:100D10000000000000240027002A00000000002539
:100D20000028002B007374656572696E67006C653E
:100D30006400706974636800726F6C6C007961772D
:100D40000000BE2711241FBECFEFD8E0DEBFCDBF0D
:100D500011E0A0E0B1E0EEE9FEE502C005900D92E1
:100D6000A23FB107D9F726E0A2EFB1E001C01D9282
:100D7000A331B207E1F716E0C2EAD6E004C021973A
:100D8000FE010E94FE2CC13AD107C9F70E94831FC1
:100D90000C944D2F0C940000FC01E25FFE4F80810B
:100DA000089583EB9BE0089583EA9BE00895FC019E
:100DB00085859685089582E89BE0089583E79BE00A
:100DC0000895FC01848595850895DB012C91FC0133
:100DD00021870284F385E02D079609940F931F93D2
:100DE000CF93DF93CDB7DEB72A970FB6F894DEBF67
:100DF0000FBECDBF8C0180E391E09A8389831B8273
:100E00001C821D821E821F82188619861A86D801AE
:100E1000ED91FC910190F081E02DAE014F5F5F4FAD
:100E20006AE070E0C80109950E94671BF8016087BD
:100E30007187828793872A960FB6F894DEBF0FBE1C
:100E4000CDBFDF91CF911F910F9108956091AD02B9
:100E500081E068276093AD028EE00C94C11A609126
:100E6000AD0281E068276093AD028FE00C94C11A57
:100E70000F931F93CF93DF938C01EC012796CE0144
:100E80000E940A12D8011B96ED91FC911C97CE018D
:100E9000DF91CF911F910F910994EF92FF920F93E1
:100EA0001F93CF93DF9300D0CDB7DEB7142F91E01F
:100EB00090935D0380937F0310925E0310928003F2
:100EC00081E893E029833A830E940B1A2981022F3B
:100ED000E22E3A81F32E8E2D801B811740F4F7010C
:100EE00061917F0181E893E00E940B1AF4CF0E9488
:100EF000921D91E0811190E0892F0F900F90DF916A
:100F0000CF911F910F91FF90EF9008951F93CF9372
:100F1000DF9300D0CDB7DEB75A83498391E0909339
:100F20005D0380937F0310925E031092800381E83B
:100F300093E00E940B1A19816A8181E893E00E9474
:100F40000B1A612F81E893E00E940B1A0E94921DF8
:100F500091E0811190E0892F0F900F90DF91CF9158
:100F60001F910895CF93DF931F92CDB7DEB74983CA
:100F70009E012F5F3F4F41E00E944D070F90DF9190
:100F8000CF9108952F923F924F925F926F927F92EE
:100F90008F929F92AF92BF92CF92DF92EF92FF9289
:100FA0000F931F93CF93DF93CDB7DEB727970FB67D
:100FB000F894DEBF0FBECDBFE82E6B834F8369016F
:100FC0000E94671B4B015C016E2C660CF12C1E828B
:100FD000772473945F81452F50E05D834C83180123
:100FE000412C512C4F81F41608F099C070925D038A
:100FF000E0927F0310925E03109280036B8181E880
:1010000093E00E940B1A0E94921D70925D03E09281
:101010007F0310925E031092800380915C03811124
:10102000FCCF2C813D812F1931092132310514F07B
:1010300020E230E0213208F020E270925C037092EE
:101040005B038FEF80935A0310925903820F8093B2
:1010500058037092370380913703862980933703B2
:1010600080913603813071F41092360380913703FA
:101070008093BB008091BC0083FDF8CF95EC9093EA
:10108000BC0003C0E5EEE093BC0080915C038130BE
:10109000E1F380915903821710F420915903A8E3DA
:1010A000B3E0EEEBF2E08E2F4EEB52E0841B8217A2
:1010B00018F48D918193F7CF10925302209352022E
:1010C0009091520280915302981719F10115110560
:1010D00099F4A6012E81420F511D27FD5A955A837E
:1010E000498381E893E00E94BF19E981FA818083F6
:1010F0002E812F5F2E83E4CF0E94671BDC01CB0182
:1011000088199909AA09BB0982159305A405B50593
:1011100000F38F81813208F080E2F80E63CFFE8009
:1011200001151105D9F00E94671BDC01CB0188195C
:101130009909AA09BB0920E030E080179107A207AE
:10114000B30760F05F81252F30E08F2D0F2C000C4E
:10115000990B8217930714F4FF24FA948F2D279686
:101160000FB6F894DEBF0FBECDBFDF91CF911F91B8
:101170000F91FF90EF90DF90CF90BF90AF909F9036
:101180008F907F906F905F904F903F902F90089539
:10119000BF92CF92DF92EF92FF920F931F93CF9364
:1011A000DF931F92CDB7DEB7F82EE62EC42EB22EF7
:1011B000D02E08EE13E09E012F5F3F4F41E00E94CA
:1011C000C207882321F1EC2DF0E0EB19F1093196EB
:1011D00021E030E002C0220F331FBA94E2F7215021
:1011E00031090E2E01C0220F0A94EAF78D2D01C09D
:1011F000880FEA95EAF7422F4095998149232823E1
:10120000422B49836E2D8F2D0E94B20701C080E0D2
:101210000F90DF91CF911F910F91FF90EF90DF9092
:10122000CF90BF900895CF92DF92EF92FF920F93ED
:101230001F93CF93DF931F92CDB7DEB7F82EE62E24
:10124000D42EC22E08EE13E09E012F5F3F4F41E0E7
:101250000E94C2079981CC2041F041E050E001C0DA
:10126000440FDA94EAF7492B09C021E030E0A901E4
:1012700001C0440FDA94EAF74095492349836E2D63
:101280008F2D0E94B2070F90DF91CF911F910F9188
:10129000FF90EF90DF90CF9008951F920F920FB6BE
:1012A0000F9211242F933F934F935F936F937F93EC
:1012B0008F939F93AF93BF93EF93FF9380912E03F0
:1012C00090912F038093B2008091B0029091B1026F
:1012D000A091B202B091B3020196A11DB11D8093FD
:1012E000B0029093B102A093B202B093B302809186
:1012F000B0029091B102A091B202B091B3024091BC
:101300003203509133036091340370913503841795
:101310009507A607B70710F18091AF0281111EC093
:1013200081E08093AF028091B0029091B102A091D0
:10133000B202B091B302841B950BA60BB70B80933E
:10134000B0029093B102A093B202B093B302E091C5
:101350003003F091310309951092AF02FF91EF91A4
:10136000BF91AF919F918F917F916F915F914F91BD
:101370003F912F910F900FBE0F901F9018951092D4
:10138000B0021092B1021092B2021092B302109207
:10139000AF0280912E0390912F038093B200E0E77B
:1013A000F0E080818160808308950F931F93CF9335
:1013B000DF938C01FC01C281D38167EC7AE0CE011E
:1013C0000E947C29892B91F463EC7AE0809154028D
:1013D000909155020E947C29892B09F472C060E02B
:1013E0008FE00E94C11A86E297E018C06FEB7AE0A6
:1013F000CE010E947C29892BB1F46BEB7AE08091BD
:101400005402909155020E947C29892B09F459C0FD
:1014100060E08EE00E94C11A8FE297E00E94241FD4
:101420000E94BF094EC065EB7AE0CE010E947C2984
:10143000892B69F46FEA7AE0809154029091550209
:101440000E947C29892BE9F161E08BE022C06BEAE4
:101450007AE0CE010E947C29892B39F067EA7AE094
:10146000CE010E947C29892BB9F4C0915402D091FD
:10147000550263EA7AE0CE010E947C29892B09F1AA
:101480006FE97AE0CE010E947C29892BD1F061E0DE
:101490008DE00E94C11A15C06BE97AE0CE010E946E
:1014A0007C29892BD1F063E97AE0CE010E947C2966
:1014B000892B01F16AE87AE0CE010E947C29892B10
:1014C00031F1F80182819381909355028093540207
:1014D000DF91CF911F910F91089567E97AE0809194
:1014E0005402909155020E947C29892B51F361E0AE
:1014F00080E1CFCF6FE87AE080915402909155025D
:101500000E947C29892BE9F261E081E1C2CF65E884
:101510007AE080915402909155020E947C29892B97
:1015200081F20E940B17CDCF1F920F920FB60F9230
:1015300011242F933F934F935F936F937F938F93D8
:101540009F93AF93BF93EF93FF938091AE0287FF7A
:1015500005C010928500109284001BC02091AE023D
:10156000022E000C330B80914E0490E028173907AF
:1015700084F48091AE02082E000C990BFC01EE0F52
:10158000FF1F8E0F9F1FFC01E65DFB4F808186FDD4
:1015900015C08091AE028F5F8093AE022091AE02A3
:1015A000022E000C330B80914E0490E0281739076F
:1015B000C4F48091AE028C3064F113C08091AE020D
:1015C000082E000C990BFC01EE0FFF1F8E0F9F1FC2
:1015D000FC01E65DFB4F808160E08F730E94C11AC1
:1015E000D8CF8091840090918500049680349C49E6
:1015F00018F480E49CE905C08091840090918500F6
:10160000049690938900809388008FEF8093AE02B8
:101610003BC020918400309185008091AE02082E5D
:10162000000C990BFC01EE0FFF1F8E0F9F1FFC019A
:10163000E65DFB4F81819281820F931F9093890019
:10164000809388008091AE02082E000C990BFC015B
:10165000EE0FFF1F8E0F9F1FFC01E65DFB4F808189
:1016600086FF12C08091AE02082E000C990BFC017F
:10167000EE0FFF1F8E0F9F1FFC01E65DFB4F808169
:1016800061E08F730E94C11AFF91EF91BF91AF91FA
:101690009F918F917F916F915F914F913F912F918A
:1016A0000F900FBE0F901F901895CF93DF9300D02F
:1016B00000D01F92CDB7DEB724E231E03A83298310
:1016C0006B835D834C83DC01ED91FC910190F08193
:1016D000E02DAE014F5F5F4F67E070E009950F901E
:1016E0000F900F900F900F90DF91CF910895CF92B0
:1016F000DF92FF920F931F93CF93DF93CDB7DEB7A7
:101700002A970FB6F894DEBF0FBECDBF8C01F62E20
:101710006A01CE0101960E94DD17B601CE01019645
:101720000E94F617AC016F2DC8010E94550B8B81EA
:101730009C81029731F44BE15BE063E0C8010E94B9
:10174000770BCE0101960E9449152A960FB6F894A0
:10175000DEBF0FBECDBFDF91CF911F910F91FF90E4
:10176000DF90CF900895AF92BF92CF92DF92EF9229
:10177000FF920F931F93CF93DF93EC016B016436BD
:1017800071053CF0FC01E25FFE4F8081882309F483
:101790005FC0DA01ED91FC910190F081E02DBE0176
:1017A00061587F4FCA0109958C017E01B8E7EB0EA5
:1017B000F11C2FEFF70120832EEF31962083319615
:1017C0008083319690833196890F809580833196FE
:1017D000C082DE01A258BF4FDC9245E050E020E01D
:1017E00030E0C80107964817590730F46191260F79
:1017F000311D4F5F5F4FF7CF085F1F4F8C0F9D1F4D
:10180000FC01E858FF4F2095208305361105A9F00B
:10181000680157018A819B81D5016D915D01DC01D1
:10182000ED91FC910190F081E02D0995C5018E1993
:101830009F098017910774F30DC04AE35BE063E0F2
:10184000CE010E94770BCC24CA94DD24DA9402C026
:10185000C12CD12CC601DF91CF911F910F91FF9028
:10186000EF90DF90CF90BF90AF9008952F923F926E
:101870004F925F926F927F928F929F92AF92BF92A0
:10188000CF92DF92EF92FF920F931F93CF93DF934C
:10189000CDB7DEB7E0970FB6F894DEBF0FBECDBF71
:1018A0008C010E94671B2B013C0198012D5E3E4F6D
:1018B00038A32F8FF90180819181A281B381A30187
:1018C0009201281B390B4A0B5B0BDA01C901893FD6
:1018D0009A42A105B10510F03597108218014CEF1E
:1018E000241A4EEF340AD1018D919C91892B79F005
:1018F000F801E95EFE4F80819181A281B381841558
:101900009505A605B70518F4F1011182108298011A
:10191000245F3E4F3C8F2B8FA801485F5E4F5E8F48
:101920004D8FC80144969AA389A3D801A25FBE4FE8
:10193000BEA3ADA3F801E45EFE4FF8A7EFA3215FBD
:101940003F4F3AA729A7425051095A8F498F8A50D1
:101950009F4F9CA38BA31996BCA7ABA7A301920191
:101960002C5E3F4F4F4F5F4F2DA73EA74FA758AB61
:10197000D80112968D919C911397DC01ED91FC9109
:101980000284F385E02D09959C0197FDE1C2EB8D62
:10199000FC8D80819181820F931F91838083D1017F
:1019A0004D915C9147305105D1F4EBA1FCA18081B0
:1019B0009181AC014F5F5F4F51834083F801E80F85
:1019C000F91F248BA98DBA8D8D919C911197019748
:1019D0008D939C93892B61F688E090E033C041158C
:1019E000510541F52F3F310589F481E090E0D101A7
:1019F0008D939C932DA53EA54FA558A9ABA5BCA53D
:101A00002D933D934D935C931397B2CF0E94671B28
:101A1000DC01CB0184199509A609B7090697A10530
:101A2000B10508F4A5CFF801E25FFE4F10828EEFFA
:101A30009FEFB6C241305105A9F42E3F310531F474
:101A400082E090E0F1019183808392CFD1011D92D9
:101A50001C92EDA1FEA1808181118ACFC8010E9454
:101A6000EE0686CF4230510591F4A98DBA8D2D93A3
:101A70003C93EBA1FCA11182108283E090E0D101A4
:101A80008D939C93EB8DFC8D3183208371CF4330FC
:101A9000510571F4322F2227A98DBA8D8D919C9119
:101AA0001197280F391F2D933C9384E090E0CACF03
:101AB0004430510589F460E071E00E94D62C8F3FDC
:101AC000910531F485E090E0D1018D939C9350CF46
:101AD000F101118210824CCF4530510571F4AD8D6A
:101AE000BE8D2D933C9386E090E0F101918380833D
:101AF000AB8DBC8D2D933C933BCF46305105A1F46B
:101B0000322F2227ED8DFE8D80819181280F391F84
:101B10003183208387E090E0D1018D939C93E98D00
:101B2000FA8D8081918156CF4830510509F020CF40
:101B3000D1011D921C9260E071E00E94D62C8F3F73
:101B4000910509F015CFED8DFE8D80819181009773
:101B500009F02EC1C8010E94EE0688E191E09A8347
:101B600089831C821B8280EF91E09E838D839887FE
:101B70008F839A8789871B861C861D861E8668012F
:101B8000FCEDCF0ED11C780120EFE20EF11C24E613
:101B9000822E912CA12CB12CD6018D919C91892B58
:101BA00009F46CC0CE010F960E94DD17F601A081EA
:101BB000B18115968D919C9116979C838B83EF85AF
:101BC000F8896D917C9111970190F081E02D12962A
:101BD0004C91CE010F9609959E838D83D601ED9190
:101BE000FC9183819481DC01ED91FC910480F5816D
:101BF000E02D0995BC01CE010F960E94F61798873B
:101C00008F83D601ED91FC9183819481DC01ED916C
:101C1000FC910680F781E02D0995BC01CE010F965D
:101C20000E94F6179A8789878B869C86AD86BE862A
:101C3000F80180819181F601A081B18119966D91A1
:101C40007C911A97DC01ED91FC91AE014F5F5F4FE3
:101C5000C801099589899A898130910519F447E06D
:101C60005BE004C0029731F443EF5AE063E0C8013F
:101C70000E94770BCE010F960E944915B2E0CB0E61
:101C8000D11CCE14DF0409F087CF94E6892E912C65
:101C9000A12CB12CF70180819181892B09F46DC0B1
:101CA000CE010F960E94DD17F701A081B181129637
:101CB0008D919C9113979C838B83EF85F889149663
:101CC0006D917C9115970190F081E02D16964C91C5
:101CD000CE010F9609959E838D83D7018D919C919E
:101CE000DC01ED91FC910480F581E02D0995BC01AA
:101CF000CE010F960E94F61798878F83F701808197
:101D00009181DC01ED91FC910680F781E02D099530
:101D1000BC01CE010F960E94F6179A8789878B86A1
:101D20009C86AD86BE86D801ED91FC91C080D180A5
:101D3000F70180819181DC01ED91FC910280F381BA
:101D4000E02D0995AE014F5F5F4FBC01C801F60160
:101D5000099589899A898130910519F44FED5AE0E6
:101D600004C0029731F44BEC5AE063E0C8010E94D2
:101D7000770BCE010F960E944915F2E0EF0EF11C91
:101D8000E214F30409F086CFF801E25FFE4F81E030
:101D9000808331964082518262827382AF8DB8A176
:101DA0004D925D926D927C9213978FEF9FEFF8C0EA
:101DB0008A30910509F0A2C080E391E09A8389837B
:101DC0001B821C821D821E821F82188619861A861B
:101DD0000E94671BF801C084D184E284F3849B01D4
:101DE000AC012C193D094E095F0969017A0169A10D
:101DF0007AA1CE0101960E943911C701B60128EEE1
:101E000033E040E050E00E94AF29CB80DC80ED80E1
:101E1000FE80C20ED31EE41EF51ECB82DC82ED8254
:101E2000FE829B01AC0160E472E48FE090E00E94CE
:101E3000BA2CCF80D884E984FA84DC01CB018C0DE4
:101E40009D1DAE1DBF1D8F839887A987BA870E94ED
:101E5000671BCF80D884E984FA8436E3D31A35E649
:101E6000E30A34ECF30A28EE33E040E050E00E944D
:101E7000AF2949015A019B01AC0160E472E48FE093
:101E800090E00E94BA2CA7019601261B370B480B45
:101E9000590BCA01B901CB80DC80ED80FE8031E0B6
:101EA000C31AD108E108F108A701960128193909D8
:101EB0004A095B0949015A0120E03AEC4AE95BE32F
:101EC0000E94AF2975016401C20ED31EE41EF51EE7
:101ED000D8011C96CD92DD92ED92FC921F97F801ED
:101EE000608B718B828B938B0E94671BAF8DB8A127
:101EF0006D937D938D939C9313973ACD8630910586
:101F000059F469A17AA18FA198A50E945C1581E07E
:101F1000E9A5FAA580832CCD8B30910521F4ADA1E4
:101F2000BEA11C9225CDFC017496EE0FFF1FE00FA1
:101F3000F11F80819181009709F41ACDDC01ED91A8
:101F4000FC910190F081E02D69A17AA1099510CD55
:101F5000F801E25FFE4F8081882301F17801B1EF43
:101F6000EB1ABEEFFB0AF70180819181A281B38158
:101F7000A3019201281B390B4A0B5B0BDA01C90143
:101F8000853C9940A105B10548F0C8010E94EE06C4
:101F9000D7014D925D926D927C92139780E090E014
:101FA000E0960FB6F894DEBF0FBECDBFDF91CF91A4
:101FB0001F910F91FF90EF90DF90CF90BF90AF9067
:101FC0009F908F907F906F905F904F903F902F9059
:101FD0000895CF92DF92EF92FF92FC01108211825E
:101FE00012821382DB0120E030E04D9150E0022E9E
:101FF00002C0440F551F0A94E2F7052E000C660B31
:10200000770BC080D180E280F3804C295D296E2956
:102010007F294083518362837383285F3F4F20323F
:10202000310519F7FF90EF90DF90CF900895CF9290
:10203000DF92EF92FF9220E030E06A017B01022EF6
:1020400004C0F694E794D794C7940A94D2F7FC019D
:10205000C192CF01285F3F4F2032310571F7FF90C9
:10206000EF90DF90CF9008958091560290915702A3
:102070000196909357028093560281E08093590213
:10208000089581E0809358020895DF92EF92FF92C5
:102090000F931F93CF93DF93282F30E0F901EE0FBA
:1020A000FF1FEC5CF54FA591B4910C91F901EC5434
:1020B000FD4FD080D0260083220F331FF901E25F4D
:1020C000FE4F0190F081E02D9081D922C9F1182FA7
:1020D000110F110F110FE12CF12CC1E0D0E09E0186
:1020E0000E2C01C0220F0A94EAF78D2D822309F1EC
:1020F000E12FEE0DF0E0EE0FFF1FDF01AE5DBD4FF3
:102100008D919C918130910551F08330910519F4A6
:10211000202329F40EC0029761F4202351F4EE50DD
:10212000FE4F80819181892B21F00190F081E02D7B
:1021300009958FEFE81AF80A88E0E816F10479F6B5
:10214000DF91CF911F910F91FF90EF90DF90089555
:1021500080EF9CE008958FED9CE00895FB012181C4
:10216000428150E060E070E0BA0155274427522BCD
:102170002081422B2381722BFC0142835383648391
:10218000758384E090E00895FB01DC0112964C9188
:10219000129713963C91139714962C9114971596B9
:1021A0008C91408331832283838384E090E008957F
:1021B0008EEB9CE008958EEA9CE00895FB0120815F
:1021C00030E0FC0133832283FB014181342BFC018D
:1021D0003383228382E090E00895FC012281FB0199
:1021E0002083FC018381FB01818382E090E00895DC
:1021F00083EB9BE0089583EA9BE0089582E89BE0EF
:10220000089583E79BE00895FB012081FC01228370
:1022100081E090E00895FC018281FB01808381E0F0
:1022200090E00895CB0108950895442341F021E002
:1022300030E0FC013383228388E391E00895CB01F1
:1022400008958DE89CE0089581E79CE0089580E57D
:102250009CE008958DE39CE008958CE19CE0089556
:1022600083E09CE0089582EE9BE0089584ED9BE07E
:102270000895FC01DB014C9150E060E070E0428386
:1022800053836483758311968C911197582B4283E5
:1022900053836483758312968C911297682B4283C3
:1022A00053836483758313968C911397782B4283A1
:1022B00053836483758314964C91149750E060E0C7
:1022C00070E0468357836087718715968C911597C8
:1022D000582B468357836087718716968C91169783
:1022E000682B468357836087718717968C91782B6C
:1022F000468357836087718788E090E00895DC010A
:10230000FB0112968C911297808313968C911397F0
:10231000818314968C911497828315968C911597CE
:10232000838316968C911697848317968C911797B2
:10233000858318968C911897868319968C9187833C
:1023400088E090E008956091B70281E0682760938B
:10235000B70283E00C94C11A0F931F93FC012281F2
:10236000253B08F054C030E0A0EBB4E00E94D12936
:1023700024EB30E040E050E00E94852989019A0179
:10238000045B1B4F2F4F3F4F109307010093060133
:102390008091BC029091BD028017910739F1809124
:1023A00008068C3018F590910A0668E572E0691B02
:1023B000710997FD7395660F771F660F771F980158
:1023C000601771070CF49B0122503109220F331F53
:1023D0004FB7F89490E0FC01EE0FFF1F8E0F9F1F88
:1023E000FC01E65DFB4F328321834FBF8091BB022E
:1023F000811105C00E94391D81E08093BB0280914C
:102400000601909107019093BD028093BC021F9139
:102410000F9108958F929F92AF92BF92CF92DF92C9
:10242000EF92FF920F931F93CF93DF9300D000D0D2
:10243000CDB7DEB77C018B01CE0101960E94E90F7A
:1024400089819A81AB81BC814C015D0124E0820EBF
:10245000911CA11CB11C6801E4E0CE0ED11CA601A8
:10246000401B510B60E070E0481559056A057B057B
:1024700048F4F60141916F019F0122503109F901A1
:102480004083EDCFF801E80FF91F13820D5F1F4F56
:10249000F7011383028304960F900F900F900F9013
:1024A000DF91CF911F910F91FF90EF90DF90CF9030
:1024B000BF90AF909F908F9008958F929F92AF9210
:1024C000BF92CF92DF92EF92FF920F931F93CF9321
:1024D000DF9300D000D0CDB7DEB77C018B01FB01CC
:1024E0008191BF01F7018283CE0101960E94E90F1D
:1024F00089819A81AB81BC814C015D01F5E08F0E31
:10250000911CA11CB11C680125E0C20ED11CA601C2
:10251000401B510B60E070E0481559056A057B05CA
:1025200048F4F60141916F019F0122503109F901F0
:102530004083EDCFF801E80FF91F14820C5F1F4FA5
:10254000F7011483038305960F900F900F900F905F
:10255000DF91CF911F910F91FF90EF90DF90CF907F
:10256000BF90AF909F908F9008954F925F926F921F
:102570007F928F929F92AF92BF92CF92DF92EF9213
:10258000FF920F931F93CF93DF93CDB7DEB72C97B6
:102590000FB6F894DEBF0FBECDBF7C018B01DB010F
:1025A0008C9190E0F7019383828311962C91922B6A
:1025B000938382836E5F7F4FCE0109960E94E90F5D
:1025C00089849A84AB84BC84B501A4014A5F5F4FBF
:1025D0006F4F7F4FF8013696CF01801B910BA0E023
:1025E000B0E084179507A607B70728F48191DF01AB
:1025F00012978C93F1CFF801E80DF91D1582C801EF
:102600000596D70115969C938E931497B4016A5F33
:102610007F4F600F711FCE0105960E94E90FBAE04F
:102620008B0E911C4D815E816F8178852401092C70
:10263000000C66087708440E551E661E771EF801CA
:10264000E80DF91DCF01801B910BA0E0B0E08415CF
:102650009505A605B70528F48191DF0112978C93A3
:10266000F1CF6401C40ED51EB8016C0D7D1DFB01B8
:1026700031971082C4010197800F911FF701978352
:102680008683CE0101960E94E90FA6014C5F5F4F41
:1026900049805A806B807C804A01052E000CAA0874
:1026A000BB08840C951CA61CB71CF801E40FF51F91
:1026B0009F01201B310BC901A0E0B0E088159905EE
:1026C000AA05BB0528F48191DF0112978C93F0CF06
:1026D000CA01840D951DF801E80FF91FDF0111975C
:1026E0001C929A0121503109020F131FD70119962C
:1026F0001C930E9318972181428150E060E070E0B6
:10270000BA0155274427522B2081422B2381722B5B
:10271000F701428753876487758704962C960FB616
:10272000F894DEBF0FBECDBFDF91CF911F910F9107
:10273000FF90EF90DF90CF90BF90AF909F908F90E1
:102740007F906F905F904F900895EF92FF920F935C
:102750001F93CF93DF937C018B01DC011296ED91E7
:10276000FC911397EF0109900020E9F72197CE1B08
:10277000DF0BAE0160E070E0C8010E941710F701A6
:1027800062817381AE01C80104960E940D2FCE01B3
:102790000496DF91CF911F910F91FF90EF900895D4
:1027A0004F925F926F927F92AF92BF92CF92DF92E1
:1027B000EF92FF920F931F93CF93DF93EC017B0176
:1027C0008A81FB0180838B8181838C8182838D81CF
:1027D0008383DB01179640E050E0BA01E4E0F0E0CB
:1027E0004A805B806C807D808F010C5F1F4F441599
:1027F000550566057705C0F48A859B85E80FF91FA6
:102800003497D080218192818381FD013397D082DA
:1028100031962083319690838C93F8014F5F5F4F00
:102820006F4F7F4F1496DCCFEE0DFF1D8C8580839C
:102830008D8581838E8582838F85838380E090E080
:1028400040E050E0BA014C845D846E847F84F701DF
:10285000E00FF11F0C5F1F4F441555056605770506
:10286000B8F4AC89BD89A80FB91FCC901196DC9043
:10287000119712963C91129713962C91C082D18297
:10288000328323834F5F5F4F6F4F7F4F0496DBCFC1
:102890008E8980838F898183888D8283898D8383CC
:1028A000412C512C32018E899F89A88DB98D4816F3
:1028B00059066A067B0680F55201AA0CBB1CEC8DFA
:1028C000FD8DEA0DFB1DA081B181FD01019000206D
:1028D000E9F731976F01CA1ADB0AA60160E070E0E0
:1028E000C701800F911F0E9417100C5F1F4F8C8D26
:1028F0009D8DFC01EA0DFB1D60817181A601C70160
:10290000800F911F0E940D2F0C0D1D1DFFEF4F1A00
:102910005F0A6F0A7F0AC7CFC801DF91CF911F916D
:102920000F91FF90EF90DF90CF90BF90AF907F908E
:102930006F905F904F900895EF92FF920F931F93C7
:10294000CF93DF938C017B01EC018A81FB018193A2
:10295000AB81BC81ED0109900020E9F72197CA1BEA
:10296000DB0BAE0160E070E0CF010E941710F801B0
:1029700063817481AE01C70105960E940D2FCE01BF
:102980000596DF91CF911F910F91FF90EF900895E1
:10299000CF92DF92EF92FF920F931F93CF93DF932B
:1029A0006C01EB01FC018281888383818983A4818E
:1029B000B581FD0101900020E9F731978F010A1BD5
:1029C0001B0BA80160E070E0CE0102960E94171078
:1029D000F60164817581A801CE0106960E940D2F33
:1029E000C8010696F601A681B781FD01019000207D
:1029F000E9F731977F01EA1AFB0AA70160E070E06E
:102A00008C0F9D1F0E941710065F1F4FF6016681F5
:102A10007781A701CE01800F911F0E940D2F0E0D0F
:102A20001F1DF601A085B185FD0101900020E9F789
:102A300031977F01EA1AFB0AA70160E070E0CE013E
:102A4000800F911F0E9417100C5F1F4FF6016085C9
:102A50007185A701CE01800F911F0E940D2FC80123
:102A60008E0D9F1DF6016285438534852585C80F2F
:102A7000D91F688349833A832B830496DF91CF91D2
:102A80001F910F91FF90EF90DF90CF9008950C94DD
:102A9000992D2EE331E0FC013183208384819581DF
:102AA0000C94992DCF93DF93EC010E944915CE0130
:102AB000DF91CF910C94992D2F923F924F925F927C
:102AC0006F927F928F929F92AF92BF92CF92DF923E
:102AD000EF92FF920F931F93CF93DF93CDB7DEB7A3
:102AE00028970FB6F894DEBF0FBECDBF8C015B01F7
:102AF000DB018C9111969C9111971296CC901297B4
:102B0000D12CE12CF12C7601DD24CC24D92AC82A41
:102B100013968C91F82AF80182819381A481B58162
:102B20008C159D05AE05BF0570F4B601660F771FC5
:102B3000660F771F828593850E94312ED8011B96E0
:102B40009C938E931A97F801C282D382E482F58215
:102B5000D5011796C12CD12C7601F4E08F2E912C43
:102B600098012A5F3F4FF80142815381648175814A
:102B7000C4010496C416D506E606F70680F54C9106
:102B800050E060E070E0742F662755274427FD0170
:102B90003397E0814E2BFD013297E0815E2BFD01E2
:102BA0003197E0816E2BF8014683578360877187E8
:102BB0004C01089742855385840F951FF901408188
:102BC000518162817381FC014083518362837383ED
:102BD000FFEFCF1ADF0AEF0AFF0A1496C4CFF40101
:102BE000EA0DFB1D20813181C280D12CE12CF12C1A
:102BF0007601DD24CC24D32AC22A2381F22A4C0177
:102C0000F80184859585A685B7858C159D05AE054B
:102C1000BF0570F4B601660F771F660F771F8489B2
:102C200095890E94312ED80155969C938E93549786
:102C3000F801C486D586E686F78620E030E0C12C10
:102C4000D12C7601D8015096F801448555856685CA
:102C50007785F501E80DF91DC4010496C416D50663
:102C6000E606F70648F59180428150E060E070E0AA
:102C7000BA0155274427592990804929E3817E2BA1
:102C8000F801408B518B628B738B4C018489958941
:102C9000FC01E20FF31F4D915D916D917C911397B3
:102CA0004083518362837383FFEFCF1ADF0AEF0AF9
:102CB000FF0A2C5F3F4FC8CF20813181C280D12CC9
:102CC000E12CF12C7601DD24CC24D32AC22A2381E5
:102CD000F22A4C01F80186899789A08DB18D8C1557
:102CE0009D05AE05BF0560F4B601660F771F848DA4
:102CF000958D0E94312ED8015D969C938E935C97A2
:102D0000F801C68AD78AE08EF18E412C512C32010F
:102D10001801FAE12F0E311CF80186899789A08DE0
:102D2000B18D481659066A067B0608F05AC0B501EF
:102D3000680D791DCE0101960E94E90F94012C5F68
:102D40003F4FC980DA80EB80FC80C901032E000C64
:102D5000AA0BBB0BAC01BD014C0D5D1D6E1D7F1D93
:102D60004D835E836F837887F501E20FF31FAF0118
:102D70004A195B09CA01A0E0B0E04D815E816F8114
:102D8000788584179507A607B70728F44191DF01D6
:102D900012974C93ECCFC9018C0D9D1DF501E80FE6
:102DA000F91F31971082215031092A0D3B1DD8019E
:102DB0005B963C932E935A974C01C201880F991F42
:102DC0005C96ED91FC915D97E80FF91FD1018D9113
:102DD0009C9191838083BFEF4B1A5B0A6B0A7B0A3D
:102DE0009BCFC40128960FB6F894DEBF0FBECDBFAF
:102DF000DF91CF911F910F91FF90EF90DF90CF90D7
:102E0000BF90AF909F908F907F906F905F904F900A
:102E10003F902F900895E0E7F0E080818E7F8083DF
:102E200060E08EE00E94C11A60E08FE00E94C11A4B
:102E300060E08BE00E94C11A60E08DE00E94C11A40
:102E400060E080E10E94C11A60E081E10C94C11A47
:102E5000CF93DF9387E480937C0080917A00806435
:102E600080937A0080917A0086FDFCCFC091780033
:102E700080917900D0E0D82BD093BA02C093B902E8
:102E8000CE01855691098D39924028F58091B8027E
:102E9000811109C083EA91E10E94241F0E94BF09A9
:102EA00081E08093B802C43ED240ACF446ED51E0DC
:102EB00063E08EEC94E00E94550B60E083E00E949A
:102EC000C11A60E088E00E94C11A61E089E0DF91E8
:102ED000CF910C94C11ADF91CF9108951F920F9258
:102EE0000FB60F9211242F933F934F935F936F93DD
:102EF0007F938F939F93AF93BF93EF93FF9382E062
:102F00000E944510FF91EF91BF91AF919F918F91DA
:102F10007F916F915F914F913F912F910F900FBED5
:102F20000F901F9018951F920F920FB60F921124B9
:102F30002F933F934F935F936F937F938F939F93C1
:102F4000AF93BF93EF93FF9381E00E944510FF91F1
:102F5000EF91BF91AF919F918F917F916F915F9111
:102F60004F913F912F910F900FBE0F901F9018958A
:102F70001F920F920FB60F9211242F933F934F93EE
:102F80005F936F937F938F939F93AF93BF93EF93D1
:102F9000FF9380E00E944510FF91EF91BF91AF91A8
:102FA0009F918F917F916F915F914F913F912F9161
:102FB0000F900FBE0F901F901895CF93DF93EC01E9
:102FC0001B821A828EE391E0998388831F821E827E
:102FD00086E990E00E94042D9D838C83FC01108281
:102FE000EB56FF4F1082DF91CF910895CF93DF937F
:102FF000DC0116968D919C911797FB0116962D91E9
:103000003C91179725393105ECF4449114966D9154
:103010007C911597EB01C20FD31F488316962D9113
:103020003C91179731961496CD91DC911597C20F6C
:10303000D31F48812F5F3F4F17963C932E931697CF
:103040004111DCCF16962D913C911797253931050A
:1030500034F022E030E019963C932E9318971496A2
:103060002D913C911597820F931FDF91CF91089579
:103070000C94F61741110C94F617CB010895CF93D9
:10308000DF93AB01EC01AF81B885ED91FC91119715
:103090006D817E810190F081E02DCD01DF91CF9196
:1030A0000994CF92DF92EF92FF920F931F93CF93E9
:1030B000DF936C017A018B01C0E0D0E0CE15DF0513
:1030C00089F0D8016D918D01D601ED91FC910190AF
:1030D000F081E02DC6010995892B11F47E0102C013
:1030E0002196ECCFC701DF91CF911F910F91FF90F7
:1030F000EF90DF90CF900895FC01538D448D252FE4
:1031000030E0842F90E0821B930B541710F0CF9681
:10311000089501970895FC01918D828D981761F0B3
:10312000828DDF01A80FB11D5D968C91928D9F5FFE
:103130009F73928F90E008958FEF9FEF0895FC01A9
:10314000918D828D981731F0828DE80FF11D858D5C
:1031500090E008958FEF9FEF0895FC01918D228DEF
:10316000892F90E0805C9F4F821B91098F73992774
:1031700008958DE893E00E94AD1821E0892B09F4B1
:1031800020E0822F0895FC01848DDF01A80FB11D7E
:10319000A35ABF4F2C91848D90E001968F7399278D
:1031A000848FA689B7892C93A089B1898C9180647A
:1031B0008C93938D848D981306C00288F389E02D3B
:1031C00080818F7D80830895EF92FF920F931F93EC
:1031D000CF93DF93EC0181E0888F9B8D8C8D9813CA
:1031E00005C0E889F989808185FD24C0F62E0B8D04
:1031F00010E00F5F1F4F0F731127E02E8C8DE81228
:103200000CC00FB607FCFACFE889F989808185FFE9
:10321000F5CFCE010E94C318F1CF8B8DFE01E80FD0
:10322000F11DE35AFF4FF0820B8FEA89FB89808101
:10323000806207C0EE89FF896083E889F98980810F
:103240008064808381E090E0DF91CF911F910F91A6
:10325000FF90EF900895CF93DF93EC01888D882342
:10326000C9F0EA89FB89808185FD05C0A889B989F3
:103270008C9186FD0FC00FB607FCF5CF808185FFCE
:10328000F2CFA889B9898C9185FFEDCFCE010E943C
:10329000C318E7CFDF91CF91089580E090E0892BAC
:1032A00029F00E94B91881110C94000008953FB7CD
:1032B000F89480912A0390912B03A0912C03B09154
:1032C0002D0326B5A89B05C02F3F19F00196A11D1F
:1032D000B11D3FBFBA2FA92F982F8827820F911DAC
:1032E000A11DB11DBC01CD0142E0660F771F881FF3
:1032F000991F4A95D1F70895089585ED8093BC00F4
:103300008091BC0084FDFCCF10925C030895409135
:103310000003262F30E0240F311D21323105DCF46B
:1033200020915C032430C9F4FC0180E090E0861712
:1033300058F4309100032191DC01A252BD4FA30F3C
:10334000B11D2C930196F3CF80910003680F609319
:10335000000380E0089581E0089582E008950895D3
:10336000E091530280915202E81730F4F0E0E25409
:10337000FD4F808190E008958FEF9FEF0895909129
:10338000530280915202981750F4E92FF0E0E25472
:10339000FD4F208130E09F5F9093530202C02FEFDA
:1033A0003FEFC90108958091520290E020915302AD
:1033B000821B91090895CF92DF92EF92FF920F93B3
:1033C0001F93CF93DF937C01262F972F8A01809143
:1033D0005D03882391F0C62FD72F6E01C40ED51E32
:1033E000CC15DD0571F06991D701ED91FC9101904B
:1033F000F081E02DC7010995F3CF642F822F0E9441
:103400008719C801DF91CF911F910F91FF90EF9025
:10341000DF90CF900895CF93DF931F92CDB7DEB7A3
:10342000698320915D032223D1F020918003203213
:1034300040F021E030E0FC013383228380E090E023
:1034400015C080915E03E82FF0E0E15AFC4F9981AE
:1034500090838F5F80935E038093800305C061E05B
:10346000CE0101960E94871981E090E00F90DF91D4
:10347000CF910895089580E090E008950E94FB2E7A
:103480001F920F920FB60F9211242F933F934F93D9
:103490005F936F937F938F939F93AF93BF93EF93BC
:1034A000FF938DE893E00E94C318FF91EF91BF91C5
:1034B000AF919F918F917F916F915F914F913F91CC
:1034C0002F910F900FBE0F901F9018951F920F9283
:1034D0000FB60F9211242F938F939F93EF93FF9327
:1034E000E0919D03F0919E038081E091A303F09110
:1034F000A40382FD12C090818091A6038F5F8F7319
:103500002091A703821751F0E091A603F0E0E35762
:10351000FC4F958F8093A60301C08081FF91EF91AE
:103520009F918F912F910F900FBE0F901F90189524
:10353000833081F028F4813099F08230A1F0089531
:103540008730A9F08830B9F08430D1F480918000C0
:103550008F7D03C0809180008F77809380000895D5
:1035600084B58F7702C084B58F7D84BD0895809126
:10357000B0008F7703C08091B0008F7D8093B00042
:1035800008951F93CF93DF93282F30E0F901EE5970
:10359000F54F8491F901E25BF54FD491F901E65CB6
:1035A000F54FC491CC23C9F0162F81110E94981AAF
:1035B000EC2FF0E0EE0FFF1FE55EF24FA591B49106
:1035C0008FB7F894111105C09C91ED2FE095E92378
:1035D00002C0EC91ED2BEC938FBFDF91CF911F9147
:1035E0000895CF93DF9390E0FC01E25BF54F2491C7
:1035F000FC01E65CF54F8491882361F190E0880F2F
:10360000991FFC01EF5EF24FC591D491FC01E55E7C
:10361000F24FA591B491611109C09FB7F8948881C8
:10362000209582238883EC912E230BC0623061F4B5
:103630009FB7F8943881822F809583238883EC91FB
:103640002E2B2C939FBF06C08FB7F894E8812E2BAA
:1036500028838FBFDF91CF9108958F929F92AF9271
:10366000BF92CF92DF92EF92FF926B017C010E949A
:1036700057194B015C01C114D104E104F104F1F0CC
:103680000E945719DC01CB0188199909AA09BB09C5
:10369000883E9340A105B10570F321E0C21AD1081C
:1036A000E108F10888EE880E83E0981EA11CB11C89
:1036B000C114D104E104F10419F7DDCFFF90EF90BC
:1036C000DF90CF90BF90AF909F908F9008952FB7CD
:1036D000F8946091260370912703809128039091BC
:1036E00029032FBF08951F920F920FB60F92112436
:1036F0002F933F938F939F93AF93BF938091260314
:1037000090912703A0912803B091290330912503BC
:1037100023E0230F2D3720F40196A11DB11D05C014
:1037200026E8230F0296A11DB11D20932503809347
:10373000260390932703A0932803B0932903809135
:103740002A0390912B03A0912C03B0912D03019695
:10375000A11DB11D80932A0390932B03A0932C03EA
:10376000B0932D03BF91AF919F918F913F912F9176
:103770000F900FBE0F901F9018951F920F920FB6CB
:103780000F9211242F933F934F935F936F937F93E7
:103790008F939F93AF93BF93EF93FF93E0910201B9
:1037A000F09103010995FF91EF91BF91AF919F9126
:1037B0008F917F916F915F914F913F912F910F90DA
:1037C0000FBE0F901F9018951F920F920FB60F9279
:1037D00011242F933F934F935F936F937F938F9316
:1037E0009F93AF93BF93EF93FF93E0910001F0910C
:1037F00001010995FF91EF91BF91AF919F918F9139
:103800007F916F915F914F913F912F910F900FBEDC
:103810000F901F9018951F920F920FB60F921124C0
:103820002F933F934F935F936F937F938F939F93C8
:10383000AF93BF93EF93FF938091B900887F803659
:1038400009F49CC068F5883209F45BC090F48031BB
:1038500009F454C038F4882309F4F6C0883009F418
:103860004DC0F6C0883109F44CC0803209F45DC007
:10387000EFC0803409F468C048F4803309F455C0BF
:10388000883309F0E5C080935A03D8C0803509F425
:103890004FC0883509F45DC0883409F0D9C0D6C05E
:1038A000883909F4C7C0A8F4883709F467C038F428
:1038B000883609F463C0803709F460C0C9C088380D
:1038C00009F4B8C0803909F45FC0803809F0C0C07D
:1038D0005BC0803B09F486C038F4803A09F466C0C6
:1038E000883A09F47FC0B4C0803C09F4A7C0883C82
:1038F00009F4A4C0883B09F48AC0AAC080913703A8
:1039000010C09091590380915803981770F5E09179
:10391000590381E08E0F80935903F0E0E85CFC4F7F
:1039200080818093BB0085EC86C080935A038EC053
:10393000E091590381E08E0F809359038091BB0081
:10394000F0E0E85CFC4F808390915903809158032C
:103950006EC0E091590381E08E0F809359038091EE
:10396000BB00F0E0E85CFC4F808380915B03811139
:103970006DC081E08093360384EA61C083E0809368
:103980005C0310922403CFCF80912403803208F08F
:1039900051C0E091240381E08E0F80932403809135
:1039A000BB00F0E0EC5FFC4F8083BDCF85EC8093E3
:1039B000BC0010925C0380912403803230F4E091CB
:1039C0002403F0E0EC5FFC4F10826091240370E070
:1039D000E0910203F091030384E093E009951092D3
:1039E000240336C084E080935C031092010310929C
:1039F0000003E091FE02F091FF020995809100031F
:103A0000811105C081E0809300031092DE02E091F5
:103A1000010381E08E0F80930103F0E0E252FD4F3D
:103A200080818093BB0090910103809100039817DF
:103A300008F479CF85E88093BC000AC085EC8093B8
:103A4000BC0010925C0304C010925A030E947D19BE
:103A5000FF91EF91BF91AF919F918F917F916F9166
:103A60005F914F913F912F910F900FBE0F901F903C
:103A70001895809108068C3008F051C061E08AE00A
:103A80000E94F11A80910806E82FF0E09F01220FB2
:103A9000331FE20FF31FE65DFB4F9081907C9A602D
:103AA00090831092090610920A066CE00E94CA2CBC
:103AB0009CE0899FB001112440E050E09A01260F5C
:103AC000371FF901EE0FFF1F2E0F3F1FF901E65DB3
:103AD000FB4F908196FD16C04F5F5F4F4C305105F4
:103AE00069F781110FC01092800082E080938100FD
:103AF0001092850010928400B19A80916F008260CC
:103B000080936F00E0910806F0E0CF01880F991FC5
:103B1000E80FF91FE65DFB4F808180648083809110
:103B2000080608952091800390917F03213208F0C8
:103B30004AC080915C038111FCCF32E030935C037A
:103B400031E030935B033FEF30935A0310925903F7
:103B500020935803AFE5B3E048E353E0FA013E2F6A
:103B6000341B321718F43D913193F9CF109237037B
:103B700020913703990F922B90933703909136033E
:103B8000913061F410923603909137039093BB000B
:103B90009091BC0093FDF8CF95EC01C095EE909309
:103BA000BC0090915C039230E1F390915A039F3FE7
:103BB00079F080915A03803241F080915A0380332A
:103BC00031F084E005C081E003C082E001C083E001
:103BD00010925E031092800310925D0308950F937C
:103BE0001F93CF93DF93CBE6D4E008EE13E02CE6EF
:103BF00034E041E06AE388810E94C2078981DF9155
:103C0000CF911F910F91089521E042E06AE68091E3
:103C10006B040C941309482F6EE680916B040C948E
:103C2000B2072F923F924F925F926F927F928F9244
:103C30009F92AF92BF92CF92DF92EF92FF920F933B
:103C40001F93CF93DF933C015B01342ED22F202EA4
:103C50004F716DE680916B040E94B2078D2F0E9418
:103C60000B1E80E190E00E94042D6C01002339F0CE
:103C700080E190E00E94042DC82F492E02C0C0E0D0
:103C8000412CE12CF12CEA14FB0408F06EC0C701B2
:103C90004096A816B90618F45A2C5E1802C080E1A6
:103CA000582E852D90E020E031E02D1B310928179A
:103CB000390714F45D2E5194F301EE0DFF1D2220FF
:103CC00059F09C2FAC2FB42D8A2F891B851530F409
:103CD00084918D933196F8CFCE2F4F2E2C2F342DEB
:103CE000452D6FE680916B040E944D07852C912C29
:103CF000C114D10429F1432D4F716DE680916B04FD
:103D00000E94B2078D2F0E940B1E08EE13E0960151
:103D1000452D6FE680916B040E94C207A401B60195
:103D20008C2F942D0E94002F892B51F0C6010E94E8
:103D3000992D222021F18C2F942D0E94992D1FC0A6
:103D4000E80CF91CD50DEA14FB0408F09CCFD11146
:103D500001C03394432D4F716DE680916B040E9436
:103D6000B2078D2F0E940B1E8ECFC6010E94992D87
:103D7000222039F08C2F942D0E94992D02C080E0D2
:103D800001C081E0DF91CF911F910F91FF90EF90E3
:103D9000DF90CF90BF90AF909F908F907F906F906B
:103DA0005F904F903F902F9008950F931F9366233D
:103DB00051F0462F9C0108EE13E064E780916B04FC
:103DC0000E94C20702C0FC0110821F910F9108954A
:103DD0000F931F93CF93DF93CBE6D4E008EE13E06D
:103DE0002CE634E042E062E788810E94C2078981C4
:103DF00090E0982F88272A81822BDF91CF911F9105
:103E00000F910895EF92FF920F931F93CF93DF933B
:103E10001F92CDB7DEB77A0189019E012F5F3F4F18
:103E200041E00E94C207882339F029812E7730E0D3
:103E300035952795F70120830F90DF91CF911F9142
:103E40000F91FF90EF900895CF93DF9344EF51E0EF
:103E500060E070E040933203509333036093340387
:103E6000709335039093310380933003A0E7B0E063
:103E70008C918E7F8C93E0EBF0E080818C7F80834F
:103E8000E1EBF0E08081877F8083C6EBD0E0888122
:103E90008F7D88838C918D7F8C93808184608083DB
:103EA00080818C7F808386E090E090932F038093C5
:103EB0002E03DF91CF910895EAEAF5E020E030E0AB
:103EC00041915191452B91F422593F4FF901EE0F49
:103ED000FF1FE253FB4F91838083FC0136832583D0
:103EE0002EEC34E03087278381E008952F5F3F4F29
:103EF0002A30310529F780E00895AC0161E08EECAD
:103F000094E00C94770BCF93DF93CDB7DEB7CA5A0A
:103F1000D1090FB6F894DEBF0FBECDBF789484B53B
:103F2000826084BD84B5816084BD85B5826085BDB5
:103F300085B5816085BD80916E00816080936E0043
:103F40001092810080918100826080938100809135
:103F500081008160809381008091800081608093E6
:103F600080008091B10084608093B1008091B000A6
:103F700081608093B00080917A00846080937A00A1
:103F800080917A00826080937A0080917A008160CB
:103F900080937A0080917A00806880937A001092F2
:103FA000C10080E291EAA7E0B0E08093D204909350
:103FB000D304A093D404B093D504E091D004F0913D
:103FC000D104A089B18982E08C93A485B5851C9227
:103FD000A685B78583E08C93108EA489B58986E089
:103FE0008C93A289B3898C9180618C93A289B389C7
:103FF0008C9188608C93A289B3898C9180688C9312
:104000000288F389E02D80818F7D80831092D30513
:104010001092D2051092D5051092D4051092D905B0
:104020001092D8051092D7051092D60581EB94E036
:104030000E945C1F86EA94E00E945C1F8BE994E07A
:104040000E945C1FAEEBB5E0FD0180E090E02191A5
:104050003191232B81F4FC01EE0FFF1FE254FA4F44
:104060002CE834E0318320838C599F4F90938F0448
:1040700080938E0404C001968A30910541F780E058
:1040800090E02D913D91232B81F4FC01EE0FFF1F59
:10409000E254FA4F2EE734E0318320838C599F4F4E
:1040A000909381048093800404C001968A30910526
:1040B00041F78AE590E090930501809304010E9406
:1040C000391D61E088E00E94F11A61E089E00E94F8
:1040D000F11A60E084E00E94F11A60E085E00E943D
:1040E000F11A61E083E00E94F11A61E08BE00E9426
:1040F000F11A61E08DE00E94F11A61E08EE00E9409
:10410000F11A61E08FE00E94F11A61E080E10E9403
:10411000F11A61E081E10E94F11A60E083E00E94FF
:10412000C11A60E088E00E94C11A60E089E00E9444
:10413000C11A0E940B1780EF91E090935502809373
:104140005402809170008E7F8093700068EE73E05F
:1041500080E090E00E942D1B0E942817E2E5FAE023
:104160002491EEE3FAE0E491EE23A1F13EEF3E0F5D
:10417000A32FB0E0AA0FBB1FA25FBE4F0D90BC9152
:10418000A02D313031F0832F880F880F880F8C5F7E
:1041900001C08EEF90E0880F991FAC014E5D5D4F1E
:1041A00062E070E0FA01718360838E509E4F44E3B9
:1041B00050E1FC01518340838C91282B2C9320915A
:1041C000680081E090E001C0880F3A95EAF7822B01
:1041D00080936800109253021092520210925E0374
:1041E0001092800310925C0381E080935B03109235
:1041F000360361E082E10E94C11A61E083E10E941E
:10420000C11A8091B9008E7F8093B9008091B90066
:104210008D7F8093B90088E48093B80085E4809313
:10422000BC0088E18093B80084E19AE00E947D1F81
:1042300001E023E042E06BE680916B040E94C80835
:1042400000E022E044E06BE180916B040E94C8082A
:1042500022E044E06CE180916B040E94C80820E0F9
:1042600046E06BE680916B040E94130986EF99E0AB
:104270000E947D1F28EE33E04CE654E065E7809114
:104280006B040E94021F80916C04843319F08AEA47
:1042900099E002C084EC99E00E947D1F82EE99E0D3
:1042A0000E947D1F21E047E06BE680916B040E9435
:1042B00013096EE170E080E090E00E942D1B20E089
:1042C00046E06BE680916B040E94130940E76DE6BF
:1042D00080916B040E94B20786E00E940B1E40E0B2
:1042E0006DE680916B040E94B20728EE33E04CE645
:1042F00054E060E080916B040E94021F80906C0487
:1043000028EE33E04CE654E061E080916B040E94BB
:10431000021F90906C0428EE33E04CE654E062E01B
:1043200080916B040E94021FA0906C044FE765E22D
:1043300080916B040E94B20720E045E06AE680911C
:104340006B040E94130948E665E280916B040E94A9
:10435000B20721E041E06AE680916B040E941309F4
:1043600064E170E080E090E00E942D1B01E020E01D
:1043700040E069E877E085E891E00E94111E88231B
:1043800009F4CDC288E090E00E94042DB82E192FC8
:10439000E12CF12CF701EB53FF4F4491F701EA5365
:1043A000FF4F24916701F3E0CF0ED11CF701E953D1
:1043B000FF4FE491EE23D1F1EE2EF12CE330D8F053
:1043C000B7018B2D912FC655DF4F2883CA5AD04095
:1043D000C755DF4F4883C95AD0400E94312EB82EAE
:1043E000192FC755DF4F4881C95AD040C655DF4FF6
:1043F0002881CA5AD040AB2DB12F80E090E08E15B5
:104400009F0548F4F601E80FF91FEB53FF4FE491C5
:10441000ED930196F4CF00E0B7018B2D912F0E9410
:10442000111EEC0CFD1C811117C010C024E0E20E1F
:10443000F11CF601EB53FF4FE491E13039F442E314
:1044400068E380916B040E94B20706C08B2D912F08
:104450000E94992D12E064C280ECE816F10408F481
:1044600099CF8B2D912F0E94992D03E023E042E0FC
:104470006BE680916B040E94C80842E168E380917A
:104480006B040E94B20744E069E180916B040E94D2
:10449000B20701E023E045E06AE180916B040E94ED
:1044A000C80803E023E042E06AE180916B040E94C7
:1044B000C80822E044E06BE180916B040E94C808C8
:1044C00043E060E780916B040E94B20740E061E73F
:1044D00080916B040E94B20720E040E060E0809190
:1044E0006B040E941309082D26E046E060E08091ED
:1044F0006B040E94C808092D26E046E061E0809127
:104500006B040E94C8080A2D26E046E062E0809114
:104510006B040E94C808E12CF12CF701EA56FF4F0A
:10452000E491A1E8B0E0AC0FBD1FAE0DB11DEC935E
:1045300081E08E0D9FEFE91AF90AA3E0AE1568F746
:10454000CD57DF4F6881C358D04070E09B012E5F8C
:104550003F4F90E02817390704F700E0CE57DF4FB0
:104560002881C258D040CF57DF4F4881C158D04032
:1045700081E890E08C0F9D1F03960E94111E80E041
:10458000F701EA56FF4FE491A1E8B0E0AC0FBD1F80
:10459000A80FB11DEC938F5FBFEFEB1AFB0A8430BD
:1045A00078F3CD57DF4F6881C358D04070E0AB013E
:1045B0004E5F5F4F282F30E0421753070CF700E0A3
:1045C000CE57DF4F2881C258D040CF57DF4F4881A8
:1045D000C158D04081E890E08C0F9D1F03960E9447
:1045E000111E0E94041E0E94E81E682FCE01019633
:1045F0000E94D51E42E06FE180916B040E94B207D9
:104600004CE961E280916B040E94B20740E560E2F0
:1046100080916B040E94B20740E062E280916B04DB
:104620000E94B2070E94041E21E046E06AE68091E3
:104630006B040E94130921E047E06AE680916B0455
:104640000E94130921E043E06AE680916B040E9416
:10465000130980E0F701EA56FF4FE491A1E8B0E0CA
:10466000AC0FBD1FA80FB11DEC938F5FEFEFEE1ADB
:10467000FE0A843078F3CD57DF4F6881C358D040AD
:1046800070E0AB014E5F5F4F282F30E042175307B9
:104690000CF700E0CE57DF4F2881C258D040CF57EB
:1046A000DF4F4881C158D04081E890E08C0F9D1FBA
:1046B00003960E94111E80E0F701EA56FF4FE49135
:1046C000A1E8B0E0AC0FBD1FA80FB11DEC938F5F48
:1046D000FFEFEF1AFF0A843078F3CD57DF4F688180
:1046E000C358D04070E0AB014E5F5F4F282F30E0E1
:1046F000421753070CF700E0CE57DF4F2881C2580E
:10470000D040CF57DF4F4881C158D04081E890E07A
:104710008C0F9D1F03960E94111E80E0F701EA5640
:10472000FF4FE491A1E8B0E0AC0FBD1FA80FB11D91
:10473000EC938F5F2FEFE21AF20A843078F3CD57B3
:10474000DF4F6881C358D04070E0AB014E5F5F4FD0
:10475000282F30E0421753070CF700E0CE57DF4F09
:104760002881C258D040CF57DF4F4881C158D04030
:1047700081E890E08C0F9D1F03960E94111E0E94FD
:10478000E81E83309105D8F3682FCE0101960E9470
:10479000D51E80E0F701EA56FF4FE491A1E8B0E0B2
:1047A000AC0FBD1FA80FB11DEC938F5F9FEFE91AEF
:1047B000F90A843078F3CD57DF4F3880C358D040A2
:1047C000832C912CA4014E5F5F4F282F30E04217BD
:1047D000530704F7CE57DF4FB880C258D040CF57A9
:1047E000DF4F2880C158D040422D4F716DE6809137
:1047F0006B040E94B2078B2D0E940B1EC12CD12C82
:10480000612C77247394E1E84E2E512C4C0E5D1EE2
:10481000A3E04A0E511CC814D90498F5C60140966D
:104820008816990618F4A32CAC1802C060E1A62ED5
:104830008A2D90E093012B1931092817390714F4B8
:10484000AB2CA19492012C0D3D1D08EE13E04A2DD6
:104850006FE680916B040E94C207CA0CD11CBA0C8F
:10486000C814D904C0F6B11001C02394422D4F7171
:104870006DE680916B040E94B2078B2D0E940B1E87
:10488000CACF0E94E81E83309105D8F3682FCE016D
:1048900001960E94D51EF701EA56FF4F80E09491E1
:1048A000A1E8B0E0AC0FBD1FA80FB11D9C938F5FB6
:1048B000843010F43196F3CFCD57DF4F6881C35861
:1048C000D04070E0AB014E5F5F4F282F30E04217C1
:1048D000530784F700E0CE57DF4F2881C258D040FD
:1048E000CF57DF4F4881C158D04081E890E08C0F0E
:1048F0009D1F03960E94111E20E047E06AE680910A
:104900006B040E9413098AE290E090936E048093F6
:104910006D040E94041E0E94EF1D10E001C011E012
:1049200010935B0249E650E063E180916B040E94C2
:10493000860748EE5FEF65E180916B040E94860771
:1049400042E050E067E180916B040E94860745E7F2
:1049500057EF66E080916B040E94860741E55AEFAD
:1049600068E080916B040E94860749EB54E06AE09E
:1049700080916B040E94860711112FC08AE999E08B
:104980000E947D1F21E047E06AE680916B040E944F
:1049900013098BE599E00E947D1F81E490E19093DB
:1049A0000101809300018091690083608093690018
:1049B000E89A0E94EF1D8093A80281E399E00E948B
:1049C0007D1F81E080935A0280916D0490916E0466
:1049D0009093AA028093A90212C080E199E00E94FC
:1049E0007D1F40915B0250E040515E4F63E08EECD2
:1049F00094E00E94550B8EE099E00E947D1F02E03A
:104A000010E05FE3252E5AE0352E8091590288236D
:104A1000B9F010925902809156029091570280FD90
:104A200002C060E006C0B8010E94D62C019741F494
:104A300061E088E00E94C11A60E089E00E94C11A2A
:104A400080915802811124C0E090A902F090AA023E
:104A50008091AB029091AC028E159F05C8F4109224
:104A600058020E94EF1DD82E8093A8020E94E81ED3
:104A70009093AC028093AB02D4FC04C08115B4E0E7
:104A80009B0749F50E94041E86E79AE00E947D1F5D
:104A90000E942817E7E6FAE08491E3E5FAE0E49063
:104AA000F101F490FF2009F460C281110E94981A6C
:104AB000EF2DF0E0EE0FFF1FE05DF54FA591B491F3
:104AC0008C91E82209F451C28EEC94E00E94360CDD
:104AD0000E944D199ACFD1FEDBCF8E159F05C0F2F3
:104AE0000E94E81E6C016E2D88E692E00E94D51EA1
:104AF000CE18DF08D092AC02C092AB02A0906C023C
:104B0000B12CBA2CAA2480916D02A82AC090700200
:104B1000D12CDC2CCC2480917102C82AE090740244
:104B2000F12CFE2CEE2480917502E82A6091680237
:104B300070E0762F662780916902682B072E000CA3
:104B4000880B990B0E94332B20E030E040E858E3BB
:104B50000E94EE2B2B013C0160935B0470935C047C
:104B600080935D0490935E04B501BB0C880B990B98
:104B70000E94332B20E030E040E858E30E94EE2B07
:104B80004B015C0160935F04709360048093610447
:104B900090936204B601DD0C880B990B0E94332BB5
:104BA00020E030E040E858E30E94EE2BCF56DF4F84
:104BB000688379838A839B83C159D040609363045F
:104BC000709364048093650490936604B701FF0CAE
:104BD000880B990B0E94332B20E030E040E858E32B
:104BE0000E94EE2BCB56DF4F688379838A839B83A9
:104BF000C559D0406093670470936804809369043A
:104C000090936A049B01AC01C501B4010E94EE2B94
:104C10006B017C01CF56DF4F288139814A815B814E
:104C2000C159D040C301B2010E94EE2B9B01AC01DF
:104C3000C701B6010E94E0299B01AC010E94E12955
:104C4000C756DF4F688379838A839B83C959D040D5
:104C500060934F04709350048093510490935204D6
:104C6000A5019401C301B2010E94EE2B6B017C01EE
:104C7000CB56DF4F288139814A815B81C559D040AD
:104C8000CF56DF4F688179818A819B81C159D0409D
:104C90000E94EE2B9B01AC01C701B6010E94E129E5
:104CA0009B01AC010E94E129C356DF4F68837983E1
:104CB0008A839B83CD59D0406093530470935404EE
:104CC0008093550490935604A3019201C301B2014D
:104CD0000E94EE2B6B017C01A5019401C501B4017A
:104CE0000E94EE2B9B01AC01C701B6010E94E02996
:104CF0006B017C01CF56DF4F288139814A815B816E
:104D0000C159D040CA01B9010E94EE2B9B01AC01F0
:104D1000C701B6010E94E0296B017C01CB56DF4F31
:104D2000288139814A815B81C559D040CA01B901C6
:104D30000E94EE2B9B01AC01C701B6010E94E12944
:104D4000CF55DF4F688379838A839B83C15AD040D4
:104D500060935704709358048093590490935A04B5
:104D6000A3019201C301B2010E94E1296B017C0100
:104D7000A5019401C501B4010E94E129CB55DF4F83
:104D8000688379838A839B83C55AD040A3019201AB
:104D9000C701B6010E94EE2B2B013C01A501940135
:104DA000CB55DF4F688179818A819B81C55AD0407C
:104DB0000E94EE2B9B01AC01C301B2010E94E129CC
:104DC00020E030E040E85FE30E94E0292B013C0155
:104DD000CF56DF4F288139814A815B81C159D0404C
:104DE000CB55DF4F688179818A819B81C55AD0403C
:104DF0000E94EE2B4B015C01CB56DF4F288139819D
:104E00004A815B81C559D040C701B6010E94EE2B93
:104E10009B01AC01C501B4010E94E029A3019201EC
:104E20000E94602A6B017C0160935C0270935D02BA
:104E300080935E0290935F02CF55DF4F28813981C6
:104E40004A815B81C15AD040CA01B9010E94EE2B50
:104E50004B015C01C356DF4F288139814A815B8158
:104E6000CD59D040CA01B9010E94EE2BA501940191
:104E70000E94E1290E94612C9B01AC01C756DF4FC3
:104E8000688179818A819B81C959D0400E94BF2A5B
:104E90000E94902A60936002709361028093620284
:104EA00090936302C756DF4F288139814A815B8125
:104EB000C959D040CA01B9010E94EE2BA501940145
:104EC0000E94E1290E94612C9B01AC01C356DF4F77
:104ED000688179818A819B81CD59D0400E94BF2A07
:104EE0000E94902A60936402709365028093660228
:104EF00090936702C092CA04D092CB04E092CC0493
:104F0000F092CD0468EC74E081EB94E00E943F18CD
:104F10008091600290916102A0916202B09163025F
:104F20008093C4049093C504A093C604B093C704AF
:104F300062EC74E08BE994E00E943F188091640277
:104F400090916502A0916602B09167028093BE04C1
:104F50009093BF04A093C004B093C1046CEB74E0C1
:104F600086EA94E00E943F1893CD61E088E00E94B9
:104F7000C11A61E089E00E94C11AA6CD1092900387
:104F800010928F0388EE93E0A0E0B0E0809391034D
:104F900090939203A0939303B09394032CE431E095
:104FA00030938E0320938D0325EC30E030939A03E9
:104FB0002093990324EC30E030939C0320939B03CF
:104FC00020EC30E030939E0320939D0321EC30E0F1
:104FD0003093A00320939F0322EC30E03093A20390
:104FE0002093A10326EC30E03093A4032093A30385
:104FF0001092A6031092A7031092A8031092A9037F
:105000001092840310928303809385039093860308
:10501000A0938703B09388038EE591E09093820379
:105020008093810380914E048C30A0F491E0980F1E
:1050300090934E048093080690E0FC01EE0FFF1F52
:105040008E0F9F1FFC01E65DFB4F88EB9BE0928378
:10505000818303C08FEF809308068CE791E09093E3
:10506000CF048093CE048DE893E09093D104809395
:10507000D00480E492E4AFE0B0E08093D204909357
:10508000D304A093D404B093D5041092DC0580E738
:1050900091E09093EB058093EA051092EC05109255
:1050A000ED051092EE051092EF051092F5051092A5
:1050B000F4051092F6051092F7051092F80510927B
:1050C000F9051092FF051092FE051092000610924D
:1050D0000106109202061092030610920706109223
:1050E0000606EAEAF5E01192119285E0EE3BF80738
:1050F000D1F7EEEBF5E01192119285E0E23DF80771
:10510000D1F7E2EEF4E0119285E0E634F807D9F742
:10511000E6E4F5E0119285E0EA3AF807D9F782EC87
:1051200091E09093C9048093C8041092CA0410922D
:10513000CB041092CC041092CD049093C3048093BE
:10514000C2041092C4041092C5041092C6041092B6
:10515000C7049093BD048093BC041092BE041092C7
:10516000BF041092C0041092C10486EB91E09093AA
:105170000C0680930B0610920E0610920D068DE31E
:105180009DE09093B2048093B10481E08093B304D6
:1051900028EC34E03093B5042093B4041092BB049F
:1051A0001092BA0428E33DE03093A7042093A604AC
:1051B0008093A8042CEB34E03093AA042093A90434
:1051C0001092B0041092AF0422E33DE030939C04AF
:1051D00020939B0480939D0422EC34E030939F0441
:1051E00020939E041092A5041092A4042AEA31E0B0
:1051F00030938D0420938C042EE931E03093940495
:105200002093930420EF31E030939604209395048B
:1052100025ED39E0309398042093970421E030E0A5
:1052200030939A04209399044EE25DE050939104E8
:10523000409390048093920442E951E050937F049C
:1052400040937E0446E851E05093860440938504E1
:10525000109287044CEA51E15093890440938804EA
:1052600030938B0420938A0425E23DE0309383043D
:10527000209382048093840488E680936B0480E00A
:1052800090E0A0E8BFE380935B0490935C04A0935C
:105290005D04B0935E0410925F041092600410925B
:1052A00061041092620410926304109264041092DC
:1052B00065041092660410926704109268041092BC
:1052C000690410926A0410924F04109250041092D4
:1052D00051041092520410925304109254041092EC
:1052E00055041092560410925704109258041092CC
:1052F000590410925A040895FB01DC018D91059028
:1053000080190110D9F3990B0895052E97FB1EF40F
:1053100000940E949C2957FD07D00E94AF2907FCEA
:1053200003D04EF40C949C295095409530952195CE
:105330003F4F4F4F5F4F08959095809570956195C1
:105340007F4F8F4F9F4F08950E94D129A59F900DA9
:10535000B49F900DA49F800D911D11240895A1E28A
:105360001A2EAA1BBB1BFD010DC0AA1FBB1FEE1FDF
:10537000FF1FA217B307E407F50720F0A21BB30B2A
:10538000E40BF50B661F771F881F991F1A9469F7A6
:1053900060957095809590959B01AC01BD01CF0102
:1053A0000895A29FB001B39FC001A39F700D811DFE
:1053B0001124911DB29F700D811D1124911D08951E
:1053C0005058BB27AA270E94F8290C94AC2B0E94A6
:1053D0009E2B38F00E94A52B20F039F49F3F19F442
:1053E00026F40C94742B0EF4E095E7FB0C946E2BD2
:1053F000E92F0E94BD2B58F3BA1762077307840781
:10540000950720F079F4A6F50C94DF2B0EF4E095C7
:105410000B2EBA2FA02D0B01B90190010C01CA016E
:10542000A0011124FF27591B99F0593F50F4503E19
:1054300068F11A16F040A22F232F342F4427585F0B
:10544000F3CF469537952795A795F0405395C9F723
:105450007EF41F16BA0B620B730B840BBAF09150DB
:10546000A1F0FF0FBB1F661F771F881FC2F70EC07A
:10547000BA0F621F731F841F48F48795779567954D
:10548000B795F7959E3F08F0B0CF9395880F08F039
:105490009927EE0F9795879508950E949E2B60F0AF
:1054A00080E891E009F49EEF0E94A52B28F040E8E7
:1054B00051E071F45EEF0CC00C94742B0C94DF2B54
:1054C000E92FE0780E94BD2B40F3092E052AB1F3A5
:1054D000261737074807590738F00E2E07F8E0253A
:1054E00069F0E025E0640AC0EF6307F8009407FA6A
:1054F000DB01B9019D01DC01CA01AD01EF930E94FE
:10550000D62A0E94AC2B0E94902A5F91552339F035
:105510002BED3FE049E450FD49EC0C94E12908955E
:10552000DF93DD27B92FBF7740E85FE31616170634
:1055300048075B0718F4D92F0E94E62B9F938F939F
:105540007F936F930E94A12CE8E6F0E00E94772BF6
:105550000E94AC2B2F913F914F915F910E94012CA3
:10556000DD2351F09058A2EA2AED3FE049EC5FE3D9
:10557000D0785D270E94F829DF910C94AC2B0E9413
:10558000D32A0C94AC2B0E94A52B58F00E949E2B82
:1055900040F029F45F3F29F00C946E2B51110C94CC
:1055A000E02B0C94742B0E94BD2B68F39923B1F36C
:1055B000552391F3951B550BBB27AA276217730739
:1055C000840738F09F5F5F4F220F331F441FAA1FCD
:1055D000A9F335D00E2E3AF0E0E832D09150504089
:1055E000E695001CCAF72BD0FE2F29D0660F771F37
:1055F000881FBB1F261737074807AB07B0E809F01D
:10560000BB0B802DBF01FF2793585F4F3AF09E3FA1
:10561000510578F00C946E2B0C94E02B5F3FE4F373
:10562000983ED4F3869577956795B795F7959F5FE4
:10563000C9F7880F911D9695879597F90895E1E030
:10564000660F771F881FBB1F621773078407BA078F
:1056500020F0621B730B840BBA0BEE1F88F7E095EA
:105660000895E89409C097FB3EF490958095709555
:1056700061957F4F8F4F9F4F9923A9F0F92F96E99E
:10568000BB279395F695879577956795B795F11113
:10569000F8CFFAF4BB0F11F460FF1BC06F5F7F4FB0
:1056A0008F4F9F4F16C0882311F096E911C07723C2
:1056B00021F09EE8872F762F05C0662371F096E8CB
:1056C000862F70E060E02AF09A95660F771F881F9A
:1056D000DAF7880F9695879597F9089597F99F6758
:1056E00080E870E060E008959FEF80EC0895DF931C
:1056F000CF931F930F93FF92EF92DF927B018C0168
:10570000689406C0DA2EEF010E94012CFE01E89495
:10571000A5912591359145915591A6F3EF010E94F0
:10572000F829FE019701A801DA9469F7DF90EF905C
:10573000FF900F911F91CF91DF91089500240A945B
:105740001616170618060906089500240A9412165C
:105750001306140605060895092E0394000C11F48F
:10576000882352F0BB0F40F4BF2B11F460FF04C03C
:105770006F5F7F4F8F4F9F4F089557FD9058440F95
:10578000551F59F05F3F71F04795880F97FB991FA0
:1057900061F09F3F79F0879508951216130614065D
:1057A000551FF2CF4695F1DF08C0161617061806EA
:1057B000991FF1CF86957105610508940895E894C5
:1057C000BB2766277727CB0197F908959B01AC018A
:1057D00060E070E080E89FE30C94BF2A0E94012CF7
:1057E0000C94AC2B0E949E2B38F00E94A52B20F02D
:1057F000952311F00C946E2B0C94742B11240C94A3
:10580000E02B0E94BD2B70F3959FC1F3950F50E0E4
:10581000551F629FF001729FBB27F00DB11D639F62
:10582000AA27F00DB11DAA1F649F6627B00DA11D08
:10583000661F829F2227B00DA11D621F739FB00DAE
:10584000A11D621F839FA00D611D221F749F33271E
:10585000A00D611D231F849F600D211D822F762FB7
:105860006A2F11249F5750409AF0F1F088234AF094
:10587000EE0FFF1FBB1F661F771F881F9150504000
:10588000A9F79E3F510580F00C946E2B0C94E02BF1
:105890005F3FE4F3983ED4F3869577956795B79587
:1058A000F795E7959F5FC1F7FE2B880F911D9695A1
:1058B000879597F9089519F416F40C94742B0C94A9
:1058C000A52C0E94C52BB8F39923C9F3B6F39F57B3
:1058D000550B87FF0E94B32C0024A0E640EA9001FC
:1058E00080585695979528F4805C660F771F881F1F
:1058F00020F026173707480730F4621B730B840B20
:10590000202931294A2BA695179407942025312563
:105910004A2758F7660F771F881F20F0261737078A
:10592000480730F4620B730B840B200D311D411DB1
:10593000A09581F7B901842F9158880F9695879586
:1059400008959B01AC010C94EE2B9F3F31F09150D8
:1059500020F4879577956795B795880F911D969553
:10596000879597F9089591505040660F771F881FCB
:10597000D2F70895DB018F939F930E94A429BF91D2
:10598000AF91A29F800D911DA39F900DB29F900D8E
:1059900011240895991B79E004C0991F961708F007
:1059A000961B881F7A95C9F78095089597FB072E57
:1059B00016F4009407D077FD09D00E94EA2C07FC6A
:1059C00005D03EF4909581959F4F0895709561950F
:1059D0007F4F0895AA1BBB1B51E107C0AA1FBB1F25
:1059E000A617B70710F0A61BB70B881F991F5A956B
:1059F000A9F780959095BC01CD010895EE0FFF1F8A
:105A00000590F491E02D0994CF93DF9382309105B6
:105A100010F482E090E0E0911106F091120620E08F
:105A200030E0C0E0D0E0309711F14081518148175B
:105A30005907C0F04817590761F482819381209774
:105A400019F09B838A832BC09093120680931106D2
:105A500026C02115310519F04217530718F49A0191
:105A6000BE01DF01EF010280F381E02DDCCF2115C3
:105A7000310509F1281B390B2430310590F41296B9
:105A80008D919C9113976115710521F0FB01938312
:105A9000828304C09093120680931106FD01329612
:105AA00044C0FD01E20FF31F81939193225031090D
:105AB0002D933C933AC020910F0630911006232B72
:105AC00041F420910A0130910B013093100620938C
:105AD0000F0620910801309109012115310541F48B
