:200000000C9495050C94450F0C941E0F0C94BD050C94BD050C94BD050C94BD050C94BD05FB
:200020000C94BD050C94BD050C94BD050C946C0F0C94BD050C94BD050C94BD050C94BD05F7
:200040000C94D40E0C94BD050C94980D0C94720D0C94BD050C94BD050C94BD050C94BD05D0
:200060000C942D100C94BD05084AD73B3BCE016E84BCBFFDC12F3D6C74319ABD56833DDAE4
:200080003D00C77F11BED9E4BB4C3E916BAAAABE000000803F0001B202FFFF0190040923CB
:2000A000A135016A0206000160080000000000000000006004400000000162020000006025
:2000C0000400400000037B034CCD6C03AB0336567600680402CB47A202180400058BC10191
:2000E0000C0400000000037F060CC92C979797038903264666006C0220000240040000006D
:20010000000244040000000002480400000000024C04000000000250040000000002540445
:200120000000000002580400000000025C040000000002BC040000000001EC04000040000C
:20014000037F060CC92C9797970402030D355D040904872D353D00A3010000000001078640
:2001600001FE074105F120283038077E01300746019A074704F1283038076C04F128303829
:200180000216020001FB00003E000B0036000100020003000000650054FFEF0000FA8000A3
:2001A0000B128200010002000000000000000000000000000000280000FFFF4581FFFFFAB9
:2001C0007200000000000003E80000000100017FFFFFFE8001001B000000000000000000A9
:2001E0000000000000003E03304000000002CAE3093E800000200000000000000040000078
:20020000006000000041FF000000000B2A0000165500002182FD872650FD800000001F0065
:20022000000005800000000000000100000002000000030000400000000000046F00026519
:200240003200005EC040000000000000000000000000000000FB8C6F5DFD5D08D9007C7391
:200260003B006C12CC3200139D3200D0D632000800400001F4FFE68079020000000000D020
:20028000D600002710FB000000400000000000000000000000000000010000000000000114
:2002A00000010000000000FA36FFBC308E0005FBF0FFD95BC8FFD09ABE000010A9FFF41EB8
:2002C000B200CEBBF70000000100000004000200020200000CFFC280000001800000CF80C4
:2002E0000040000000000000010000000000000600000000140000000000000000000000A3
:200300000000000000000000000000000000000000000000000000000000000000000000DD
:20032000000000000000000000033F68B6793528BCC67ED16C80000000400000000000B2D8
:200340006A00000000000000000000000000003FF0000000300000000000000000000000D4
:200360000000000000000000000000000000000000000000000000254D002F706D000005FA
:20038000AE000C02D00000000000650054FFEF000000000000000001000044000000000CD9
:2003A0000000000100000000000065000000540000FFEF0000000000000000000000000095
:2003C00000000000004000000000000000000000000000000040000000000000000000009D
:2003E0000000000000000000010000000200000000000000000000000000000000000000FA
:20040000000000000000000000000000000000000000000000001B000000000000000000C1
:200420000000000000000000000000000000000000000000000000000000000000000000BC
:200440000040000000001B0000000000000000000000000000000000000000000000000041
:2004600000000000000000000000000000000000000000000000000000000000000000007C
:200480000000000000D8DCBAA2F1DEB2B8B4A88191F74A907F916AF3F9DBA8F9B0BAA08068
:2004A000F2CE81F3C2F1C1F2C3F3CCA2B280F1C6D880BAA7DFDFDFF2A7C3CBC5B6F087A284
:2004C000942448703C95406834589B78A2F183922D557DD8B1B4B8A1D09180F270F370F2BF
:2004E0007C80A8F101B09887D943D886C988BAA1F20EB89780F1A9DFDFDFAADFDFDFF2AA88
:20050000C5CDC7A90CC92C97979797F1A989264666B0B4BA80ACDEF2CAF1B28C02A9B6987B
:2005200000890E161EB8A9B4992C547CB08AA896365676F1B9AFB4B083C0B8A89711B18F84
:2005400098B9AFF0240844106418F1A329557DAF83B593AFF0002850F1A3869F61A6DADE17
:20056000DFD9FAA38696DB31A6D9F8DFBAA68FC2C5C7B28CC1B8A2DFDFDFA3DFDFDFD8D885
:20058000F1B8A8B286B4980D355DB8AA98B0872D353DB2B6BAAF8C96198F9FA70E161EB440
:2005A0009AB8AA872C547CB9A3DEDFDFA3B180F2C4CDC9F1B8A9B499830D355D89B9A32DD1
:2005C000557DB593A30E161EA92C547CB8B4B0F19783A81184A50998A383F0DA240844105D
:2005E0006418D8F1A529557DA58595021A2E3A565A4048F9F3A3D9F8F0988324084410644C
:20060000189782A8F111F098A2240844106418DAF3DED883A59401D9A302F1A2C3C5C7D861
:20062000F18492A24DDA2AD84869D92AD86855DA32D85071D932D8705DDA3AD85879D93A7A
:20064000D87893A34DDA2AD84869D92AD86855DA32D85071D932D8705DDA3AD85879D93A7D
:20066000D878A88A9AF02850789EF38818F19F1D98A8D908D8C89F129EF315A8DA1210D80C
:20068000F1AFC8978734B5B994A421F3D922D8F22DF3D92AD8F235F3D932D881A4606061E3
:2006A000D961D86C6869D969D8747071D971D8B1A384193D5DA3831A3E5E9310308110117E
:2006C000B8B0AF8F94F2DA3ED8B49AA88729DAF8D8879A35DAF8D8879A3DDAF8D8B1B9A498
:2006E0009885022E56A581000C14A397B08AF12DD928D84DD948D86DD968D8B1840DDA0EB0
:20070000D8A32983DA2C0ED8A3844983DA2C4C0ED8B8B0A88A9AF520AADADFD8A840AAD0B5
:20072000DADED8A860AADAD0DFD8F19786A8319B069907AB9728889BF00C201440B8B0B4D5
:20074000A88C9CF0042851791D301438B282ABD0982C505078789BF11AB0F08A9CA82951B9
:20076000798B2951798A2470598B2058718A4469388B3940688A6448318B304960A58820A4
:200780000971584468113964493019F1AC002C547CF08CA804285078F1889726A85998AC6F
:2007A0008C02264666F0899CA8295179247059446938644831A98809205970AB11384069BA
:2007C000A8193148608CA83C415C207C00F187981986A86E767EA999882D557D9EB9A38AD0
:2007E000228A6E8A568A5E9FB183062646660E2E4E6E9DB8AD002C547CF2B18CB499B9A39E
:200800002D557D8191AC38AD3AB58391AC2DD928D84DD948D86DD968D88C9DAE29D904AE2A
:20082000D851D904AED879D904D881F39DAD008DAE1981ADD901D8F2AEDA26D88E912983C9
:20084000A7D9ADADADADF32AD8D8F1B0AC89913E5E76F3AC2E2EF1B18C5A9CAC2C282828AF
:200860009CAC3018A8988128343C9724A728343C9C24F2B089AC912C4C6C8A9B2DD9D8D8AE
:2008800051D9D8D879D9D8D8F19E88A331DAD8D8912DD928D84DD948D86DD968D8B18393DD
:2008A000353D8025DAD8D88569DAD8D8B49381A328343CF3AB8BF8A391B609B4D9ABDEFAF8
:2008C000B0879CB9A3DDF1A3A3A3A395F1A3A3A39DF1A3A3A3A3F2A3B49080F2A3A3A3A32F
:2008E000A3A3A3A3A3A3B2A3A3A3A3A3A3B087B599F1A3A3A398F1A3A3A3A397A3A3A3A30B
:20090000F39BA3A3DCB9A7F1262626D8D8FF2900444D5020496E697469616C697A617469A0
:200920006F6E206661696C65642028636F646500444D50207265616479212057616974691D
:200940006E6720666F7220666972737420696E746572727570742E2E2E00456E61626C6931
:200960006E6720696E7465727275707420646574656374696F6E202841726475696E6F207C
:2009800065787465726E616C20696E746572727570742030292E2E2E004D50553630353027
:2009A00020636F6E6E656374696F6E206661696C6564004D50553630353020636F6E6E6572
:2009C0006374696F6E207375636365737366756C005A4779726F3A2000594779726F3A20F1
:2009E00000584779726F3A20005A416363656C3A200059416363656C3A20005841636365C9
:200A00006C3A2000494D552043616C6962726174696F6E004170706C79696E672063616C09
:200A20006962726174696F6E0052656164696E672063616C6962726174696F6E2E2E2E0072
:200A4000496E697469616C697A656420444D502E2E2E00496E697469616C697A696E67208A
:200A6000444D502E2E2E0054657374696E672064657669636520636F6E6E656374696F6E4D
:200A8000732E2E2E00496E697469616C697A696E672049324320646576696365732E2E2E03
:200AA000004649464F206F766572666C6F77210064697361626C65004C74610072657665B6
:200AC000727365006272616B65007269676874006C6566740000000000240027002A000089
:200AE0000000080002010000030407000000000000000001020408102040800102040810BF
:200B00002001020408102000000000250028002B00040404040404040402020202020203CF
:200B2000030303030300221F121F11241FBECFEFD8E0DEBFCDBF11E0A0E0B1E0ECEDFCE4C8
:200B400002C005900D92A633B107D9F726E0A6E3B1E001C01D92A238B207E1F715E0C4E9A1
:200B6000D5E004C02197FE010E940B24C339D107C9F70E941A150C9461260C94000081E0E7
:200B8000809343010895BF92CF92DF92EF92FF920F931F93CF93DF9300D0CDB7DEB7B82E35
:200BA000CDB6DEB6CB0169837A830E944D208E5F082F10E08DB79EB7801B910B0FB6F89425
:200BC0009EBF0FBE8DBFEDB7FEB731967F01EDB7FEB7B18269817A8102960E944620B80135
:200BE000C7010E9487140FB6F894DEBE0FBECDBE0F900F90DF91CF911F910F91FF90EF903F
:200C0000DF90CF90BF900895AF92BF92CF92DF92EF92FF921F93CF93DF93CDB7DEB7FC0108
:200C2000AB01ADB6BEB68081853009F477C1863009F423C2843009F0E0C28181928197FDB6
:200C4000039695958795959587959C0197FF04C022273327281B390B2F3F310519F014F09D
:200C60008FEF90E02091A2033091A3032817390709F4C3C29093A3038093A2039C0197FF14
:200C800004C022273327281B390B122F97FF4DC061E084E00E94CA0D8FEF809304018091BD
:200CA000A0039091A103019709F4A3C20E945B112FEF4FEF6FEF82E090E00E9484112FEFE3
:200CC0004FEF6FEF83E090E00E9484112FEF4FEF6FEF87E090E00E9484112FEF4FEF6FEFEC
:200CE00088E090E00E94841120E040E060E08DE090E00E94841120E040E060E08EE090E033
:200D00000E94841120E040E060E081E190E00E94841120E040E060E082E190E00E948411C9
:200D20000E94CA1181E090E04FC0892B09F451C060E084E00E94CA0D81E0809304018091ED
:200D4000A0039091A103029709F453C20E945B1120E040E060E082E090E00E94841120E009
:200D600040E060E083E090E00E94841120E040E060E087E090E00E94841120E040E060E03B
:200D800088E090E00E9484112FEF4FEF6FEF8DE090E00E9484112FEF4FEF6FEF8EE090E0DE
:200DA0000E9484112FEF4FEF6FEF81E190E00E9484112FEF4FEF6FEF82E190E00E94841175
:200DC0000E94CA1182E090E09093A1038093A00310C22F3008F048C08091A0039091A1039D
:200DE000892B09F440C00E945B1120E040E060E082E090E00E94841120E040E060E083E008
:200E000090E00E94841120E040E060E087E090E00E94841120E040E060E088E090E00E94E3
:200E2000841120E040E060E08DE090E00E94841120E040E060E08EE090E00E94841120E034
:200E400040E060E081E190E00E94841120E040E060E082E190E00E9484110E94CA111092A0
:200E6000A1031092A0031FE0E12EF12C61E08BE00E94160E1F3F11F461E044C0EAEEFAE092
:200E8000E491E330F9F048F4E130B9F0E230A1F584B5806284BD18BDB0C1E730E9F0E83099
:200EA00019F1E43049F580918000806280938000F0928B00E0928A00A0C184B5806884BD04
:200EC00017BD9BC180918000806880938000F0928900E092880091C18091B00080688093C3
:200EE000B0001093B30089C18091B00080628093B0001093B40081C180E8E816F1040CF04C
:200F0000BBCF60E08BE0DF91CF911F91FF90EF90DF90CF90BF90AF900C94CA0D2181253B39
:200F200008F06BC130E0ACE4B4E00E94D42024EB30E040E050E00E94932069017A0196EB99
:200F4000C90E93E0D91EE11CF11CD0920701C0920601309153063C3090F52091540688E8FD
:200F600090E0821B910927FD9395880F991F880F991FC816D9068CF08091550648E552E0DC
:200F8000481B510987FD5395440F551F440F551FC6014C155D050CF4CA010297880F991F5D
:200FA0004FB7F894232F30E0F901EE0FFF1F2E0F3F1FF901E65FFA4F928381834FBF8091CD
:200FC000A40381111AC1809153068C3008F051C061E08AE00E94160E80915306E82FF0E00C
:200FE0009F01220F331FE20FF31FE65FFA4F9081907C9A60908310925406109255066CE0CE
:201000000E94EB239CE0899FB001112440E050E09A01260F371FF901EE0FFF1F2E0F3F1F70
:20102000F901E65FFA4F908196FD16C04F5F5F4F4C30510569F781110FC01092800082E03B
:20104000809381001092850010928400B19A80916F00826080936F00E0915306F0E0CF0116
:20106000880F991FE80FF91FE65FFA4F80818064808381E08093A403C0C0CDB6DEB68DB7A6
:201080009EB7861B970B0FB6F8949EBF0FBE8DBF01967C01BF016F5F7F4F0E941A260E94FD
:2010A0005B1160ED7AE0C7010E943D20892BF9F440E050E56FEF70E082E190E00E941C140D
:2010C00040E050E56FEF70E083E190E00E941C1440E050E56FEF70E080E090E00E941C14C2
:2010E00040E050E56FEF70E081E090E053C06AEC7AE0C7010E943D20892BF9F440E050E59C
:201100006FEF70E08BE090E00E941C1440E050E56FEF70E08CE090E00E941C1440E050E56E
:201120006FEF70E089E090E00E941C1440E050E56FEF70E08AE090E02DC064EC7AE0C7011A
:201140000E943D20892B49F540E050E06FEF70E080E090E00E941C1440E050E06FEF70E000
:2011600081E090E00E941C1440E050E06FEF70E082E090E00E941C1440E050E06FEF70E02C
:2011800088E090E00E941C1440E050E06FEF70E089E090E00E941C1424C06CEB7AE0C7019F
:2011A0000E943D20892B81F268EB7AE0C7010E943D20892B49F260EB7AE0C7010E943D203A
:2011C000892B79F4E12CF12C40E050E0BA01C7010E941C149FEFE91AF90A85E1E816F10432
:2011E00099F70E94CA110FB6F894DEBE0FBECDBE04C01F3008F038CEF6CD0FB6F894BEBEFC
:201200000FBEADBEDF91CF911F91FF90EF90DF90CF90BF90AF900895CF92DF92EF92FF922B
:201220000F931F93F8940E94690E20910501211116C00091390110913A0120913B013091A1
:201240003C016B017C01C01AD10AE20AF30AC0923F01D0924001E0924101F0924201609329
:20126000390170933A0180933B0190933C011092050180913D0190913E01019690933E01F7
:2012800080933D01809138018F5F8093380178941F910F91FF90EF90DF90CF900895EF9223
:2012A000FF920F931F93CF93DF9300D0CDB7DEB7142F91E090933D0480935F0410923E041A
:2012C000109260048EEF94E029833A830E943D0D2981022FE22E3A81F32E8E2D801B81170D
:2012E00040F4F70161917F018EEF94E00E943D0DF4CF0E948A1291E0811190E0892F0F90A8
:201300000F90DF91CF911F910F91FF90EF9008951F93CF93DF9300D0CDB7DEB75A8349834B
:2013200091E090933D0480935F0410923E04109260048EEF94E00E943D0D19816A818EEF99
:2013400094E00E943D0D612F8EEF94E00E943D0D0E948A1291E0811190E0892F0F900F9019
:20136000DF91CF911F910895CF93DF931F92CDB7DEB749839E012F5F3F4F41E00E944F0910
:201380000F90DF91CF9108952F923F924F925F926F927F928F929F92AF92BF92CF92DF9215
:2013A000EF92FF920F931F93CF93DF93CDB7DEB727970FB6F894DEBF0FBECDBFE82E6B83D1
:2013C0004F8369010E94C80E4B015C016E2C660CF12C1E82772473945F81452F50E05D83E1
:2013E0004C831801412C512C4F81F41608F099C070923D04E0925F0410923E0410926004EE
:201400006B818EEF94E00E943D0D0E948A1270923D04E0925F0410923E04109260048091B2
:201420003C048111FCCF2C813D812F1931092132310514F020E230E0213208F020E2709234
:201440003C0470923B048FEF80933A0410923904820F809338047092170480911704862985
:201460008093170480911604813071F410921604809117048093BB008091BC0083FDF8CF33
:2014800095EC9093BC0003C0E5EEE093BC0080913C048130E1F380913904821710F42091B5
:2014A0003904A8E1B4E0E5EAF3E08E2F45EA53E0841B821718F48D918193F7CF10923701FB
:2014C000209336019091360180913701981719F10115110599F4A6012E81420F511D27FDD6
:2014E0005A955A8349838EEF94E00E94F10CE981FA8180832E812F5F2E83E4CF0E94C80EC3
:20150000DC01CB0188199909AA09BB0982159305A405B50500F38F81813208F080E2F80EC0
:2015200063CFFE8001151105D9F00E94C80EDC01CB0188199909AA09BB0920E030E0801784
:201540009107A207B30760F05F81252F30E08F2D0F2C000C990B8217930714F4FF24FA9469
:201560008F2D27960FB6F894DEBF0FBECDBFDF91CF911F910F91FF90EF90DF90CF90BF9060
:20158000AF909F908F907F906F905F904F903F902F900895BF92CF92DF92EF92FF920F93E0
:2015A0001F93CF93DF931F92CDB7DEB7F82EE62EC42EB22ED02E08EE13E09E012F5F3F4F2D
:2015C00041E00E94C409882321F1EC2DF0E0EB19F109319621E030E002C0220F331FBA946C
:2015E000E2F7215031090E2E01C0220F0A94EAF78D2D01C0880FEA95EAF7422F40959981E8
:2016000049232823422B49836E2D8F2D0E94B40901C080E00F90DF91CF911F910F91FF90B5
:20162000EF90DF90CF90BF900895CF92DF92EF92FF920F931F93CF93DF931F92CDB7DEB79B
:20164000F82EE62ED42EC22E08EE13E09E012F5F3F4F41E00E94C4099981CC2041F041E0D2
:2016600050E001C0440FDA94EAF7492B09C021E030E0A90101C0440FDA94EAF7409549233B
:2016800049836E2D8F2D0E94B4090F90DF91CF911F910F91FF90EF90DF90CF900895BC01D3
:2016A00081E00C94C305CF92DF92EF92FF920F931F93CF93DF93CDB7DEB7BC01CDB6DEB668
:2016C000FC0101900020E9F7E81BEF5F0E2F10E08DB79EB7801B910B0FB6F8949EBF0FBEB3
:2016E0008DBFEDB7FEB731967F0183E0EDB7FEB78183C70101960E942326B801C7010E94D1
:2017000087140FB6F894DEBE0FBECDBEDF91CF911F910F91FF90EF90DF90CF900895BC0193
:2017200083E00C94C3051F93CF93DF93EC010E948B20182FCE0101960E948B20282F30E0BD
:20174000922F8827810F911DDF91CF911F910895CF92DF92EF92FF920F931F93CF93DF93B2
:201760006C017A018B01C0E0D0E0CE15DF0589F0D8016D918D01D601ED91FC910190F0811C
:20178000E02DC6010995892B11F47E0102C02196ECCFC701DF91CF911F910F91FF90EF9075
:2017A000DF90CF900895FC01538D448D252F30E0842F90E0821B930B541710F0CF960895E1
:2017C00001970895FC01918D828D981761F0828DDF01A80FB11D5D968C91928D9F5F9F73F7
:2017E000928F90E008958FEF9FEF0895FC01918D828D981731F0828DE80FF11D858D90E082
:2018000008958FEF9FEF0895FC01918D228D892F90E0805C9F4F821B91098F739927089530
:2018200081E694E00E94040C21E0892B09F420E0822F0895FC01848DDF01A80FB11DA35AAB
:20184000BF4F2C91848D90E001968F739927848FA689B7892C93A089B1898C9180648C931F
:20186000938D848D981306C00288F389E02D80818F7D80830895EF92FF920F931F93CF933E
:20188000DF93EC0181E0888F9B8D8C8D981305C0E889F989808185FD24C0F62E0B8D10E0BA
:2018A0000F5F1F4F0F731127E02E8C8DE8120CC00FB607FCFACFE889F989808185FFF5CFD8
:2018C000CE010E941A0CF1CF8B8DFE01E80FF11DE35AFF4FF0820B8FEA89FB898081806224
:2018E00007C0EE89FF896083E889F98980818064808381E090E0DF91CF911F910F91FF90E4
:20190000EF900895CF93DF93EC01888D8823C9F0EA89FB89808185FD05C0A889B9898C91A2
:2019200086FD0FC00FB607FCF5CF808185FFF2CFA889B9898C9185FFEDCFCE010E941A0C1C
:20194000E7CFDF91CF91089580E090E0892B29F00E94100C81110C9400000895089585ED2B
:201960008093BC008091BC0084FDFCCF10923C0408954091E703262F30E0240F311D21320C
:201980003105DCF420913C042430C9F4FC0180E090E0861758F43091E7032191DC01AB5351
:2019A000BC4FA30FB11D2C930196F3CF8091E703680F6093E70380E0089581E0089582E0D8
:2019C00008950895E091370180913601E81730F4F0E0EB55FC4F808190E008958FEF9FEF44
:2019E00008959091370180913601981750F4E92FF0E0EB55FC4F208130E09F5F9093370139
:201A000002C02FEF3FEFC90108958091360190E020913701821B91090895CF92DF92EF9289
:201A2000FF920F931F93CF93DF937C01262F972F8A0180913D04882391F0C62FD72F6E01E2
:201A4000C40ED51ECC15DD0571F06991D701ED91FC910190F081E02DC7010995F3CF642FF6
:201A6000822F0E94B90CC801DF91CF911F910F91FF90EF90DF90CF900895CF93DF931F9267
:201A8000CDB7DEB7698320913D042223D1F020916004203240F021E030E0FC013383228349
:201AA00080E090E015C080913E04E82FF0E0E15CFB4F998190838F5F80933E0480936004D9
:201AC00005C061E0CE0101960E94B90C81E090E00F90DF91CF910895089580E090E008954C
:201AE0000E9408261F920F920FB60F9211242F933F934F935F936F937F938F939F93AF9317
:201B0000BF93EF93FF9381E694E00E941A0CFF91EF91BF91AF919F918F917F916F915F91CC
:201B20004F913F912F910F900FBE0F901F9018951F920F920FB60F9211242F938F939F93CB
:201B4000EF93FF93E0917104F09172048081E0917704F091780482FD12C0908180917A04B9
:201B60008F5F8F7320917B04821751F0E0917A04F0E0EF59FB4F958F80937A0401C08081A3
:201B8000FF91EF919F918F912F910F900FBE0F901F90189590E0FC01E152F54F3491FC0118
:201BA000ED50F54F2491FC01EF5EF44FE491EE2309F43BC0332339F1333091F038F43130F3
:201BC000A9F0323001F584B58F7D12C0373091F03830A1F03430B9F4809180008F7D03C0AB
:201BE000809180008F77809380000DC084B58F7784BD09C08091B0008F7703C08091B0005A
:201C00008F7D8093B000F0E0EE0FFF1FE95FF44FA591B4918FB7F894EC91611103C02095CB
:201C20002E2301C02E2B2C938FBF0895CF93DF9390E0FC01ED50F54F2491FC01EF5EF44F8B
:201C40008491882361F190E0880F991FFC01EB52F54FC591D491FC01E95FF44FA591B49177
:201C6000611109C09FB7F8948881209582238883EC912E230BC0623061F49FB7F8943881BE
:201C8000822F809583238883EC912E2B2C939FBF06C08FB7F894E8812E2B28838FBFDF9117
:201CA000CF9108958E3008F08E508770806480937C0080917A00806480937A0080917A00A2
:201CC00086FDFCCF809178002091790090E0922B08953FB7F8948091120490911304A09127
:201CE0001404B091150426B5A89B05C02F3F19F00196A11DB11D3FBFBA2FA92F982F8827C0
:201D0000820F911DA11DB11DBC01CD0142E0660F771F881F991F4A95D1F708958F929F924B
:201D2000AF92BF92CF92DF92EF92FF926B017C010E94690E4B015C01C114D104E104F104FE
:201D4000F1F00E94690EDC01CB0188199909AA09BB09883E9340A105B10570F321E0C21AF1
:201D6000D108E108F10888EE880E83E0981EA11CB11CC114D104E104F10419F7DDCFFF902A
:201D8000EF90DF90CF90BF90AF909F908F9008952FB7F89460910E0470910F0480911004CF
:201DA000909111042FBF08951F920F920FB60F9211242F933F938F939F93AF93BF938091E8
:201DC0000E0490910F04A0911004B091110430910D0423E0230F2D3720F40196A11DB11D80
:201DE00005C026E8230F0296A11DB11D20930D0480930E0490930F04A0931004B0931104FC
:201E00008091120490911304A0911404B09115040196A11DB11D8093120490931304A09307
:201E20001404B0931504BF91AF919F918F913F912F910F900FBE0F901F9018951F920F9205
:201E40000FB60F9211242F933F934F935F936F937F938F939F93AF93BF93EF93FF93E091FE
:201E60000201F09103010995FF91EF91BF91AF919F918F917F916F915F914F913F912F91DC
:201E80000F900FBE0F901F9018951F920F920FB60F9211242F933F934F935F936F937F9372
:201EA0008F939F93AF93BF93EF93FF93E0910001F09101010995FF91EF91BF91AF919F91C3
:201EC0008F917F916F915F914F913F912F910F900FBE0F901F9018951F920F920FB60F9253
:201EE00011242F933F934F935F936F937F938F939F93AF93BF93EF93FF9380910C0487FF8E
:201F000005C010928500109284001BC020910C04022E000C330B80912E0590E02817390766
:201F200084F480910C04082E000C990BFC01EE0FFF1F8E0F9F1FFC01E65FFA4F808186FDA0
:201F400015C080910C048F5F80930C0420910C04022E000C330B80912E0590E0281739070C
:201F6000C4F480910C048C3064F113C080910C04082E000C990BFC01EE0FFF1F8E0F9F1F2A
:201F8000FC01E65FFA4F808160E08F730E94CA0DD8CF8091840090918500049680349C49E5
:201FA00018F480E49CE905C08091840090918500049690938900809388008FEF80930C04AA
:201FC0003BC0209184003091850080910C04082E000C990BFC01EE0FFF1F8E0F9F1FFC0114
:201FE000E65FFA4F81819281820F931F909389008093880080910C04082E000C990BFC01B0
:20200000EE0FFF1F8E0F9F1FFC01E65FFA4F808186FF12C080910C04082E000C990BFC0163
:20202000EE0FFF1F8E0F9F1FFC01E65FFA4F808161E08F730E94CA0DFF91EF91BF91AF9142
:202040009F918F917F916F915F914F913F912F910F900FBE0F901F9018951F920F920FB642
:202060000F9211242F933F934F935F936F937F938F939F93AF93BF93EF93FF938091B90048
:20208000887F803609F49CC068F5883209F45BC090F4803109F454C038F4882309F4F6C02B
:2020A000883009F44DC0F6C0883109F44CC0803209F45DC0EFC0803409F468C048F48033A3
:2020C00009F455C0883309F0E5C080933A04D8C0803509F44FC0883509F45DC0883409F05F
:2020E000D9C0D6C0883909F4C7C0A8F4883709F467C038F4883609F463C0803709F460C00F
:20210000C9C0883809F4B8C0803909F45FC0803809F0C0C05BC0803B09F486C038F4803AFC
:2021200009F466C0883A09F47FC0B4C0803C09F4A7C0883C09F4A4C0883B09F48AC0AAC051
:202140008091170410C09091390480913804981770F5E091390481E08E0F80933904F0E0F8
:20216000E85EFB4F80818093BB0085EC86C080933A048EC0E091390481E08E0F80933904AE
:202180008091BB00F0E0E85EFB4F808390913904809138046EC0E091390481E08E0F809378
:2021A00039048091BB00F0E0E85EFB4F808380913B0481116DC081E08093160484EA61C087
:2021C00083E080933C0410920B04CFCF80910B04803208F051C0E0910B0481E08E0F80938E
:2021E0000B048091BB00F0E0E551FC4F8083BDCF85EC8093BC0010923C0480910B04803230
:2022000030F4E0910B04F0E0E551FC4F108260910B0470E0E091E903F091EA038BEE93E030
:20222000099510920B0436C084E080933C041092E8031092E703E091E503F091E603099528
:202240008091E703811105C081E08093E7031092C503E091E80381E08E0F8093E803F0E03C
:20226000EB53FC4F80818093BB009091E8038091E703981708F479CF85E88093BC000AC006
:2022800085EC8093BC0010923C0404C010923A040E94AF0CFF91EF91BF91AF919F918F912B
:2022A0007F916F915F914F913F912F910F900FBE0F901F90189560915D06613121F120919E
:2022C0005E0630915F06615031F070E08FEF90E10E94F72302C060E070E0F90140915A062A
:2022E00050915B06CF01821B930B8417950740F44081469FC001479F900D11249193EECF26
:2023000081E180935D060895E0915806F09159068E179F07F0F530915D06332361F0639F9C
:20232000B0011124672F439FA0011124452F239F90011124232F3091630650916006E09139
:202340005E06F0915F06351308C0DC01AA0FBB1F8A0F9B1F8E0F9F1F0AC0880F991F880F55
:20236000991F8E0F9F1FFC01E30FF11D108230916006FC01E30FF11D608330916106FC018F
:20238000E30FF11D408330916206FC01E30FF11D208308950F931F93CF93DF93CDB7DEB7D3
:2023A00029970FB6F894DEBF0FBECDBF80915E0690915F06892B09F4A2C00E94690E00915E
:2023C0006406109165062091660630916706DC01CB01801B910BA20BB30B8C329140A105BC
:2023E000B10558F3F89480915A0690915B069A838983E0915E06F0915F06DF0111968081F1
:20240000898790915606E0916806F091690680916A06992309F42EC09081982B9887908134
:20242000809589238F838F818C8388E08B8358856F8149853B812C8189819A81508347FDF4
:20244000252F3A952083262F39F0441F00C000006083000000C0F2CF38E04D9160830000D8
:20246000019761F7F0936906E093680649873B832C8338C09081982B98879081809589239F
:202480008F838F818E8388E08D8358856F8149853D812E8189819A81508347FD252F00C039
:2024A00000C0208300C000C000C000C000C060830000262F3A9541F0441F000000C000C0DE
:2024C00000C000C000C0E8CF38E04D9100C0608300C0019709F7F0936906E0936806498771
:2024E0003D832E839A83898378940E94690E60936406709365068093660690936706299684
:202500000FB6F894DEBF0FBECDBFDF91CF911F910F9108952091600490915F04213208F0D3
:202520004AC080913C048111FCCF32E030933C0431E030933B043FEF30933A0410923904AD
:2025400020933804AFE3B4E048E154E0FA013E2F341B321718F43D913193F9CF10921704E6
:2025600020911704990F922B9093170490911604913061F410921604909117049093BB00C5
:202580009091BC0093FDF8CF95EC01C095EE9093BC0090913C049230E1F390913A049F3F2F
:2025A00079F080913A04803241F080913A04803331F084E005C081E003C082E001C083E08A
:2025C00010923E041092600410923D0408950F931F93CF93DF93CBE6D6E008EE13E02CE607
:2025E00036E041E06AE388810E94C4098981DF91CF911F910F91089521E042E06AE6809194
:202600006B060C94150B482F6EE680916B060C94B4092F923F924F925F926F927F928F9248
:202620009F92AF92BF92CF92DF92EF92FF920F931F93CF93DF933C015B01342ED22F202E81
:202640004F716DE680916B060E94B4098D2F0E94031380E190E00E9411246C01002339F0B1
:2026600080E190E00E941124C82F492E02C0C0E0412CE12CF12CEA14FB0408F06EC0C70160
:202680004096A816B90618F45A2C5E1802C080E1582E852D90E020E031E02D1B3109281742
:2026A000390714F45D2E5194F301EE0DFF1D222059F09C2FAC2FB42D8A2F891B851530F42A
:2026C00084918D933196F8CFCE2F4F2E2C2F342D452D6FE680916B060E944F09852C912C50
:2026E000C114D10429F1432D4F716DE680916B060E94B4098D2F0E94031308EE13E09601BE
:20270000452D6FE680916B060E94C409A401B6018C2F942D0E940D26892B51F0C6010E94F6
:20272000A624222021F18C2F942D0E94A6241FC0E80CF91CD50DEA14FB0408F09CCFD11187
:2027400001C03394432D4F716DE680916B060E94B4098D2F0E9403138ECFC6010E94A62489
:20276000222039F08C2F942D0E94A62402C080E001C081E0DF91CF911F910F91FF90EF9094
:20278000DF90CF90BF90AF909F908F907F906F905F904F903F902F9008950F931F936623AB
:2027A00051F0462F9C0108EE13E064E780916B060E94C40902C0FC0110821F910F91089563
:2027C0000F931F93CF93DF93CBE6D6E008EE13E02CE636E042E062E788810E94C40989816C
:2027E00090E0982F88272A81822BDF91CF911F910F910895EF92FF920F931F93CF93DF93A4
:202800001F92CDB7DEB77A0189019E012F5F3F4F41E00E94C409882339F029812E7730E06B
:2028200035952795F70120830F90DF91CF911F910F91FF90EF9008958F929F92AF92BF9229
:20284000CF92DF92EF92FF9220915806309159068217930708F052C04B01AA24BB24E82D1A
:20286000C52ED62EE72EFF24FC2D342F20915D06222361F0829E40011124E92DC29E600186
:202880001124FD2D429FD00111243B2FF0906306E0906006A0915E06B0915F06FE1008C0B8
:2028A000AC01440F551F840F951F8A0F9B1F14C0880F991F880F991F8A0F9B1F472F552753
:2028C00066277727DC01AF0DB11D222321F0429FA0011124452F4C9320916006DC01A20F61
:2028E000B11DEC9320916106DC01A20FB11DFC9320916206FC01E20FF11D3083FF90EF90B2
:20290000DF90CF90BF90AF909F908F9008958F929F92AF92BF92CF92DF92EF92FF920F9306
:202920001F93CF93DF93CDB7DEB75C018B01EDB6FEB6C0903106D0903206C114D10409F4F2
:2029400062C0892B09F45FC06115710509F45BC0CB016EEF70E00E94F723C8010196680F75
:20296000791F8DB79EB7861B970B0FB6F8949EBF0FBE8DBF6DB77EB76F5F7F4F80E090E057
:20298000E1E0F0E09924939420E030E0D5018D905D010196AF014F5F5F4FDB01811005C08C
:2029A000A20FB31F9C929F010FC0AE0FBF1F8C929394BFEF9B120AC0DB01A20FB31F9C9265
:2029C0009A01AF014E5F5F4F992493948017910711F0FA01DBCFFB01E20FF31F9082D601B0
:2029E000ED91FC910280F381E02DC60109958091310690913206DC01ED91FC910190F081D9
:202A0000E02D60E009950FB6F894FEBE0FBEEDBE0FB6F894FEBE0FBEEDBEDF91CF911F9141
:202A20000F91FF90EF90DF90CF90BF90AF909F908F900895CF93DF93CDB7DEB7CA5AD109B6
:202A40000FB6F894DEBF0FBECDBF789484B5826084BD84B5816084BD85B5826085BD85B5D4
:202A6000816085BD80916E00816080936E0010928100809181008260809381008091810095
:202A8000816080938100809180008160809380008091B10084608093B1008091B0008160B0
:202AA0008093B00080917A00846080937A0080917A00826080937A0080917A0081608093DE
:202AC0007A0080917A00806880937A001092C100E0917104F091720482E08083E0916D04F5
:202AE000F0916E041082E0916F04F091700480E1808310927904E0917504F091760486E0AA
:202B00008083E0917304F0917404808180618083E0917304F0917404808188608083E091AE
:202B20007304F0917404808180688083E0917304F091740480818F7D808381E694E090934A
:202B400032068093310684E096E09093340680933306109236061092350610923701109239
:202B6000360110923E041092600410923C0481E080933B041092160461E082E10E94CA0DC6
:202B800061E083E10E94CA0D8091B9008E7F8093B9008091B9008D7F8093B90088E4809353
:202BA000B80085E48093BC008CE08093B80085E89AE00E948F0B01E023E042E06BE6809163
:202BC0006B060E94CA0A00E022E044E06BE180916B060E94CA0A22E044E06CE180916B06CF
:202BE0000E94CA0A20E046E06BE680916B060E94150B60E082E00E94160E87E69AE00E94B3
:202C00004F0B28EE33E04CE656E065E780916B060E94FA1380916C06843319F089E999E01E
:202C200002C083EB99E00E944F0B83E59AE00E944F0B21E047E06BE680916B060E94150B54
:202C40006EE170E080E090E00E948E0E20E046E06BE680916B060E94150B40E76DE6809181
:202C60006B060E94B40986E00E94031340E06DE680916B060E94B40928EE33E04CE656E081
:202C800060E080916B060E94FA1380906C0628EE33E04CE656E061E080916B060E94FA133E
:202CA00090906C0628EE33E04CE656E062E080916B060E94FA13A0906C064FE765E280914E
:202CC0006B060E94B40920E045E06AE680916B060E94150B48E665E280916B060E94B40915
:202CE00021E041E06AE680916B060E94150B64E170E080E090E00E948E0E01E020E040E07A
:202D000069E877E085E891E00E940913882309F4CDC288E090E00E941124B82E192FE12C4E
:202D2000F12CF701EB53FF4F4491F701EA53FF4F2491670163E0C60ED11CF701E953FF4FF7
:202D4000E491EE23D1F1EE2EF12CE330D8F0B7018B2D912FC655DF4F2883CA5AD040C755A3
:202D6000DF4F4883C95AD0400E943E25B82E192FC755DF4F4881C95AD040C655DF4F2881BC
:202D8000CA5AD040AB2DB12F80E090E08E159F0548F4F601E80FF91FEB53FF4FE491ED936D
:202DA0000196F4CF00E0B7018B2D912F0E940913EC0CFD1C811117C010C084E0E80EF11C3A
:202DC000F601EB53FF4FE491E13039F442E368E380916B060E94B40906C08B2D912F0E948C
:202DE000A62482E064C290ECE916F10408F499CF8B2D912F0E94A62403E023E042E06BE670
:202E000080916B060E94CA0A42E168E380916B060E94B40944E069E180916B060E94B4091C
:202E200001E023E045E06AE180916B060E94CA0A03E023E042E06AE180916B060E94CA0AFB
:202E400022E044E06BE180916B060E94CA0A43E060E780916B060E94B40940E061E7809144
:202E60006B060E94B40920E040E060E080916B060E94150B082D26E046E060E080916B06BB
:202E80000E94CA0A092D26E046E061E080916B060E94CA0A0A2D26E046E062E080916B06FA
:202EA0000E94CA0AE12CF12CF701EA56FF4FE491A1E8B0E0AC0FBD1FAE0DB11DEC9381E05E
:202EC0008E0DAFEFEA1AFA0AB3E0BE1568F7CD57DF4F6881C358D04070E09B012E5F3F4F7F
:202EE00090E02817390704F700E0CE57DF4F2881C258D040CF57DF4F4881C158D04081E833
:202F000090E08C0F9D1F03960E94091380E0F701EA56FF4FE491A1E8B0E0AC0FBD1FA80FD1
:202F2000B11DEC938F5FEFEFEE1AFE0A843078F3CD57DF4F6881C358D04070E0AB014E5F3A
:202F40005F4F282F30E0421753070CF700E0CE57DF4F2881C258D040CF57DF4F4881C1586A
:202F6000D04081E890E08C0F9D1F03960E9409130E94FC120E94E013682FCE0101960E94D6
:202F8000CD1342E06FE180916B060E94B4094CE961E280916B060E94B40940E560E280912D
:202FA0006B060E94B40940E062E280916B060E94B4090E94FC1221E046E06AE680916B0653
:202FC0000E94150B21E047E06AE680916B060E94150B21E043E06AE680916B060E94150BBB
:202FE00080E0F701EA56FF4FE491A1E8B0E0AC0FBD1FA80FB11DEC938F5FFFEFEF1AFF0AD4
:20300000843078F3CD57DF4F6881C358D04070E0AB014E5F5F4F282F30E0421753070CF7B7
:2030200000E0CE57DF4F2881C258D040CF57DF4F4881C158D04081E890E08C0F9D1F03967B
:203040000E94091380E0F701EA56FF4FE491A1E8B0E0AC0FBD1FA80FB11DEC938F5F2FEF97
:20306000E21AF20A843078F3CD57DF4F6881C358D04070E0AB014E5F5F4F282F30E04217BC
:2030800053070CF700E0CE57DF4F2881C258D040CF57DF4F4881C158D04081E890E08C0F13
:2030A0009D1F03960E94091380E0F701EA56FF4FE491A1E8B0E0AC0FBD1FA80FB11DEC93EE
:2030C0008F5F6FEFE61AF60A843078F3CD57DF4F6881C358D04070E0AB014E5F5F4F282F71
:2030E00030E0421753070CF700E0CE57DF4F2881C258D040CF57DF4F4881C158D04081E855
:2031000090E08C0F9D1F03960E9409130E94E01383309105D8F3682FCE0101960E94CD1369
:2031200080E0F701EA56FF4FE491A1E8B0E0AC0FBD1FA80FB11DEC938F5F9FEFE91AF90AFE
:20314000843078F3CD57DF4F3880C358D040832C912CA4014E5F5F4F282F30E04217530795
:2031600004F7CE57DF4FB880C258D040CF57DF4F2880C158D040422D4F716DE680916B0676
:203180000E94B4098B2D0E940313C12CD12C612C7724739411E8412E512C4C0E5D1EA3E00A
:2031A0004A0E511CC814D90498F5C60140968816990618F4A32CAC1802C0A0E1AA2E8A2DB9
:2031C00090E093012B1931092817390714F4AB2CA19492012C0D3D1D08EE13E04A2D6FE6FF
:2031E00080916B060E94C409CA0CD11CBA0CC814D904C0F6B11001C02394422D4F716DE62B
:2032000080916B060E94B4098B2D0E940313CACF0E94E01383309105D8F3682FCE0101961E
:203220000E94CD13F701EA56FF4F80E09491A1E8B0E0AC0FBD1FA80FB11D9C938F5F8430FB
:2032400010F43196F3CFCD57DF4F6881C358D04070E0AB014E5F5F4F282F30E0421753070A
:2032600084F700E0CE57DF4F2881C258D040CF57DF4F4881C158D04081E890E08C0F9D1F57
:2032800003960E94091320E047E06AE680916B060E94150B8AE290E090936E0680936D0623
:2032A0000E94FC120E94E71280E001C081E08093440180E49AE00E944F0B89E29AE00E9488
:2032C0004F0B80E090E00E94930B4C0182E090E00E94930B5C0184E090E00E94930B6C0147
:2032E00086E090E00E94930B7C0188E090E00E94930B8C018AE090E00E94930B3C0184E1DA
:203300009AE00E944F0BA40166E080916B060E948809A50168E080916B060E948809A6014D
:203320006AE080916B060E948809A70163E180916B060E948809A80165E180916B060E94DA
:203340008809A30167E180916B060E94880984E09AE00E944F0B8BEF99E00E948F0B4AE008
:20336000BE016F5F7F4FC4010E945620CE0101960E94530B82EF99E00E948F0B4AE0BE01A0
:203380006F5F7F4FC5010E945620CE0101960E94530B89EE99E00E948F0B4AE0BE016F5F6A
:2033A0007F4FC6010E945620CE0101960E94530B81EE99E00E948F0B4AE0BE016F5F7F4F51
:2033C000C7010E945620CE0101960E94530B89ED99E00E948F0B4AE0BE016F5F7F4FC8012E
:2033E0000E945620CE0101960E94530B81ED99E00E948F0B4AE0BE016F5F7F4FC3010E9441
:203400005620CE0101960E94530B80914401811127C021E047E06AE680916B060E94150B45
:203420008AE599E00E944F0B8FEB95E0909301018093000180916900836080936900E89A25
:203440000E94E7128093970380E399E00E944F0B81E080939B0380916D06809398030FC039
:2034600080E199E00E948F0B8091440190E08C5C9E4F0E94530B8EE099E00E948F0B61E037
:203480008BE00E94160E60E083E00E94160E61E084E00E94160E62E083E00E94160E61E07B
:2034A00083E00E94CA0D8CE099E09093030180930201809169008C6080936900E99A809198
:2034C0005C0687FD08C061E00E94160E60E080915C060E94CA0D81E08093570661E08DE08C
:2034E0000E94160E60E087E00E94CA0D22242394F9E03F2E80919B03882309F4DCC080919F
:20350000430181110AC08091980390E02091990330919A0328173907C8F0109243010E9485
:20352000E712182F809397030E94E01390939A038093990314FD04C08115944009F0BEC0E4
:203540000E94FC1281EA9AE00E948F0B8091310690913206892B09F4AEC080913106909171
:203560003206DC01ED91FC910084F185E02D0995181619060CF09FC080913106909132063D
:20358000DC01ED91FC910284F385E02D099581117DC080903306909034068114910439F4D1
:2035A0008091350690913606892B09F46AC0EDB6FEB640912F0650913006EDB7FEB7E41BBB
:2035C000F50B0FB6F894FEBF0FBEEDBF8DB79EB701964115510519F440E050E03CC0A0E0AF
:2035E000B0E020E030E024173507A0F5B901615D7A4FFB01B080B9016B0D711D4617570737
:2036000018F4F1E0BF12E8CF2F5F3F4F6C01CA0EDB1E8D01B8016F5F7F4FA62EAA1AAB14B1
:2036200060F48901015D1A4FF8011081F60111936F018B012F5F3F4FEDCFD801FFEFBF1650
:2036400039F02417350721F08B01A80FB91F1C92D801C9CFAD018114910421F0BA01F401E6
:2036600009950AC0E0913506F0913606309721F0BC018FE295E009950FB6F894FEBE0FBE86
:20368000EDBE1092300610922F0667CF20912F0630913006A9014F5F5F4F4F3F510511F0D2
:2036A00008F05BCF5093300640932F06F901E15DFA4F808352CF0E94A40C1CCF11FF46CFC0
:2036C0000E94E01360919803262F30E08217930708F43CCF87E593E00E94CD13C0905B031B
:2036E000D12CDC2CCC2480915C03C82AE0905F03F12CFE2CEE2480916003E82A00916303CB
:2037000010E0102F002780916403082B6091570370E0762F662780915803682B072E000C9B
:20372000880B990B0E943B2220E030E040E858E30E941F232B013C0160934306709344060A
:203740008093450690934606B601DD0C880B990B0E943B2220E030E040E858E30E941F236F
:203760004B015C0160934706709348068093490690934A06B701FF0C880B990B0E943B2241
:2037800020E030E040E858E30E941F23CF56DF4F688379838A839B83C159D04060934B06FF
:2037A00070934C0680934D0690934E06B801110F880B990B0E943B2220E030E040E858E355
:2037C0000E941F23CB56DF4F688379838A839B83C559D04060934F0670935006809351066B
:2037E000909352069B01AC01C501B4010E941F236B017C01CF56DF4F288139814A815B8160
:20380000C159D040C301B2010E941F239B01AC01C701B6010E94E3209B01AC010E94E420C7
:20382000C756DF4F688379838A839B83C959D04060933706709338068093390690933A06D3
:20384000A5019401C301B2010E941F236B017C01CB56DF4F288139814A815B81C559D04062
:20386000CF56DF4F688179818A819B81C159D0400E941F239B01AC01C701B6010E94E4206F
:203880009B01AC010E94E420C356DF4F688379838A839B83CD59D04060933B0670933C0631
:2038A00080933D0690933E06A3019201C301B2010E941F236B017C01A5019401C501B4011A
:2038C0000E941F239B01AC01C701B6010E94E3206B017C01CF56DF4F288139814A815B8151
:2038E000C159D040CA01B9010E941F239B01AC01C701B6010E94E3206B017C01CB56DF4F90
:20390000288139814A815B81C559D040CA01B9010E941F239B01AC01C701B6010E94E42098
:203920006B017C0160933F06709340068093410690934206A3019201C301B2010E94E42004
:20394000CF55DF4F688379838A839B83C15AD040A5019401C501B4010E94E420CB55DF4F2E
:20396000688379838A839B83C55AD040A3019201CF55DF4F688179818A819B81C15AD04048
:203980000E941F232B013C01A5019401CB55DF4F688179818A819B81C55AD0400E941F2334
:2039A0009B01AC01C301B2010E94E42020E030E040E85FE30E94E3202B013C01CF56DF4FC6
:2039C000288139814A815B81C159D040CB55DF4F688179818A819B81C55AD0400E941F2348
:2039E0004B015C01CB56DF4F288139814A815B81C559D040CF55DF4F688179818A819B813B
:203A0000C15AD0400E941F239B01AC01C501B4010E94E320A30192010E9463214B015C0128
:203A200060934B0370934C0380934D0390934E03A7019601C701B6010E941F232B013C0111
:203A4000C356DF4F288139814A815B81CD59D040CA01B9010E941F23A30192010E94E42099
:203A60000E9492239B01AC01C756DF4F688179818A819B81C959D0400E94C7210E9493213F
:203A80006B017C0160934F03709350038093510390935203C756DF4F288139814A815B816E
:203AA000C959D040CA01B9010E941F23A30192010E94E4200E9492239B01AC01C356DF4FA7
:203AC000688179818A819B81CD59D0400E94C7210E949321609353037093540380935503B8
:203AE00090935603EAE0E9838A829B82AC82BD82CE82DF82E886F9866A877B878C879D87B6
:203B00006DE070E0CE0101960E94871460913F01709140018091410190914201409149031E
:203B200050914A0320913D0130913E0142175307E9F40E94690E0091390110913A01209167
:203B40003B0130913C01DC01CB01801B910BA20BB30B81349244AF40B105E8F1209205011F
:203B600039821A821B821C821D822FC0611571058105910599F00E94392220E034E244E756
:203B800059E40E94C7219B01AC0162E97AE086E89FE30E94C7216B017C0103C0C12CD12C60
:203BA000760160910401062E000C770B880B990B0E943B229B01AC01C701B6010E941F23F4
:203BC00039826A837B838C839D8365E070E0CE0101960E94871480913D0190913E01909306
:203BE0004A03809349038091380128E029838A8362E070E0CE0101960E94871410923801FE
:203C000080E00E94520E67E069839B838A8363E070E0CE0101960E9487141091480381E061
:203C2000810F8093480384E10E94520EE12FF0E0EE0FFF1FE85BFE4F91838083E8E4F1E0F0
:203C400060E070E0CB0121913191620F731F811D911DA3E0E834FA07B1F70E94392220E000
:203C600030E040E85BE30E941F2326E636E646E950E40E941F2320E030E040E85AE30E9464
:203C80001F2329E83DEF42E95EE30E94C7216B017C010E94C80E10914701693B7B40810580
:203CA000910558F023E333E34BE551E4C701B6010E94122318160CF4ACC0112321F060E030
:203CC00087E00E94CA0D1092470120E030E048E651E4C701B6010E94122318161CF5809101
:203CE000450190914601039709F486C00E945B1120E04FEF60E085E090E00E94841120E0A1
:203D00004FEF60E08FE090E00E94841120E04FEF60E080E190E00E9484110E94CA1183E0A9
:203D200090E036C020E030E048E651E4C701B6010E94C22118168CF120E030E040E651E490
:203D4000C701B6010E94122387FD27C08091450190914601029709F44FC00E945B1120E030
:203D60004FEF6FEF85E090E00E94841120E04FEF6FEF8FE090E00E94841120E04FEF6FEF4D
:203D800080E190E00E9484110E94CA1182E090E090934601809345012FC020E030E040E6E4
:203DA00051E4C701B6010E94C22187FF25C080914501909146010197F9F00E945B1120E011
:203DC00040E06FEF85E090E00E94841120E040E06FEF8FE090E00E94841120E040E06FEF47
:203DE00080E190E00E9484110E94CA11E1E0F0E0F0934601E0934501FBE0F983CA82DB822A
:203E0000EC82FD8265E070E0CE0101960E9487149DCB111104C061E087E00E94CA0D20925C
:203E2000470153CF80915E0690915F06009711F00E94A62480915C0687FD03C060E00C947F
:203E4000160E0895109264041092630488EE93E0A0E0B0E08093650490936604A0936704EE
:203E6000B093680424E131E0309362042093610425EC30E030936E0420936D0424EC30E0A2
:203E80003093700420936F0420EC30E0309372042093710421EC30E03093740420937304C6
:203EA00022EC30E0309376042093750426EC30E0309378042093770410927A0410927B04AB
:203EC00010927C0410927D0410920105109200058093020590930305A0930405B093050580
:203EE00086E291E09093FF048093FE0488E680936B061092570610925D061092640610920A
:203F00006506109266061092670681E080936306809360061092610692E0909362068093AA
:203F200056068FE390E090935B0680935A060E94112490935F0680935E06009761F02FE37C
:203F4000FC0111922A95E9F785E190E0909359068093580608C010925B0610925A061092EA
:203F600059061092580686E080935C0680915706882341F061E086E00E94160E60E086E0AA
:203F80000E94CA0DE7E1FBE0E491F0E0EE0FFF1FE95FF44F859194919093690680936806CC
:203FA000E9EFFAE0E491E0936A0680912E058C30A0F491E0980F90932E058093530690E019
:203FC000FC01EE0FFF1F8E0F9F1FFC01E65FFA4F88EB9BE09283818303C08FEF809353062F
:203FE00080E090E0A0E8BFE38093430690934406A0934506B0934606109247061092480612
:204000001092490610924A0610924B0610924C0610924D0610924E0610924F0610925006FC
:20402000109251061092520610923706109238061092390610923A0610923B0610923C0644
:2040400010923D0610923E0610923F061092400610924106109242061092300610922F0644
:204060001092320610923106109234061092330610923606109235060895FB01DC018D9187
:20408000059080190110D9F3990B0895FB01DC0105900D920020E1F70895FC010590002080
:2040A000E9F7809590958E0F9F1F0895BB274A3031F4992322F4BDE2909581959F4F0C9433
:2040C0006220BB27FB015527AA27880F991FAA1FA41710F0A41B83955051B9F7A05DAA335E
:2040E00008F0A95DA193009779F7B111B1931192CB010C947B20DC01FC01672F71917723CB
:20410000E1F7329704C07C916D9370836291AE17BF07C8F30895F999FECF92BD81BDF89AE6
:20412000992780B50895052E97FB1EF400940E94AA2057FD07D00E94B22007FC03D04EF45F
:204140000C94AA2050954095309521953F4F4F4F5F4F089590958095709561957F4F8F4F68
:204160009F4F0895A1E21A2EAA1BBB1BFD010DC0AA1FBB1FEE1FFF1FA217B307E407F5075B
:2041800020F0A21BB30BE40BF50B661F771F881F991F1A9469F760957095809590959B014D
:2041A000AC01BD01CF010895A29FB001B39FC001A39F700D811D1124911DB29F700D811D76
:2041C0001124911D08955058BB27AA270E94FB200C94D8220E94CA2238F00E94D12220F052
:2041E00039F49F3F19F426F40C94A0220EF4E095E7FB0C949A22E92F0E94E92258F3BA1795
:20420000620773078407950720F079F4A6F50C940B230EF4E0950B2EBA2FA02D0B01B90182
:2042200090010C01CA01A0011124FF27591B99F0593F50F4503E68F11A16F040A22F232FD6
:20424000342F4427585FF3CF469537952795A795F0405395C9F77EF41F16BA0B620B730B49
:20426000840BBAF09150A1F0FF0FBB1F661F771F881FC2F70EC0BA0F621F731F841F48F4A7
:20428000879577956795B795F7959E3F08F0B0CF9395880F08F09927EE0F97958795089575
:2042A0000E94CA2260F080E891E009F49EEF0E94D12228F040E851E071F45EEF0CC00C9499
:2042C000A0220C940B23E92FE0780E94E92240F3092E052AB1F3261737074807590738F0A2
:2042E0000E2E07F8E02569F0E025E0640AC0EF6307F8009407FADB01B9019D01DC01CA0150
:20430000AD01EF930E94DE210E94D8220E9493215F91552339F02BED3FE049E450FD49EC63
:204320000C94E4200895DF93DD27B92FBF7740E85FE31616170648075B0718F4D92F0E948E
:2043400017239F938F937F936F930E94D223E8E6F0E00E94A3220E94D8222F913F914F9113
:204360005F910E943223DD2351F09058A2EA2AED3FE049EC5FE3D0785D270E94FB20DF91FB
:204380000C94D8220E94762208F481E008950E94DB210C94D8220E94D12258F00E94CA22AC
:2043A00040F029F45F3F29F00C949A2251110C940C230C94A0220E94E92268F39923B1F3A2
:2043C000552391F3951B550BBB27AA2762177307840738F09F5F5F4F220F331F441FAA1F1D
:2043E000A9F335D00E2E3AF0E0E832D091505040E695001CCAF72BD0FE2F29D0660F771FF7
:20440000881FBB1F261737074807AB07B0E809F0BB0B802DBF01FF2793585F4F3AF09E3F15
:20442000510578F00C949A220C940C235F3FE4F3983ED4F3869577956795B795F7959F5F88
:20444000C9F7880F911D9695879597F90895E1E0660F771F881FBB1F621773078407BA0757
:2044600020F0621B730B840BBA0BEE1F88F7E0950895E89409C097FB3EF4909580957095F7
:2044800061957F4F8F4F9F4F9923A9F0F92F96E9BB279395F695879577956795B795F11189
:2044A000F8CFFAF4BB0F11F460FF1BC06F5F7F4F8F4F9F4F16C0882311F096E911C077236A
:2044C00021F09EE8872F762F05C0662371F096E8862F70E060E02AF09A95660F771F881F7D
:2044E000DAF7880F9695879597F90895990F0008550FAA0BE0E8FEEF16161706E807F9072A
:20450000C0F012161306E407F50798F0621B730B840B950B39F40A2661F0232B242B252B76
:2045200021F408950A2609F4A140A6958FEF811D811D089597F99F6780E870E060E00895FE
:204540009FEF80EC0895DF93CF931F930F93FF92EF92DF927B018C01689406C0DA2EEF0156
:204560000E943223FE01E894A5912591359145915591A6F3EF010E94FB20FE019701A801D5
:20458000DA9469F7DF90EF90FF900F911F91CF91DF91089500240A941616170618060906DB
:2045A000089500240A9412161306140605060895092E0394000C11F4882352F0BB0F40F4CF
:2045C000BF2B11F460FF04C06F5F7F4F8F4F9F4F089557FD9058440F551F59F05F3F71F079
:2045E0004795880F97FB991F61F09F3F79F087950895121613061406551FF2CF4695F1DF72
:2046000008C0161617061806991FF1CF86957105610508940895E894BB2766277727CB016E
:2046200097F908950E94762208F48FEF08959B01AC0160E070E080E89FE30C94C7210E940F
:2046400032230C94D8220E94CA2238F00E94D12220F0952311F00C949A220C94A022112464
:204660000C940C230E94E92270F3959FC1F3950F50E0551F629FF001729FBB27F00DB11D7B
:20468000639FAA27F00DB11DAA1F649F6627B00DA11D661F829F2227B00DA11D621F739FAB
:2046A000B00DA11D621F839FA00D611D221F749F3327A00D611D231F849F600D211D822F17
:2046C000762F6A2F11249F5750409AF0F1F088234AF0EE0FFF1FBB1F661F771F881F9150F9
:2046E0005040A9F79E3F510580F00C949A220C940C235F3FE4F3983ED4F386957795679587
:20470000B795F795E7959F5FC1F7FE2B880F911D9695879597F9089519F416F40C94A02234
:204720000C94D6230E94F122B8F39923C9F3B6F39F57550B87FF0E94E4230024A0E640EA06
:20474000900180585695979528F4805C660F771F881F20F026173707480730F4621B730B36
:20476000840B202931294A2BA69517940794202531254A2758F7660F771F881F20F02617B7
:204780003707480730F4620B730B840B200D311D411DA09581F7B901842F9158880F969550
:2047A000879508959B01AC010C941F239F3F31F0915020F4879577956795B795880F911D6C
:2047C0009695879597F9089591505040660F771F881FD2F70895991B79E004C0991F9617A6
:2047E00008F0961B881F7A95C9F780950895AA1BBB1B51E107C0AA1FBB1FA617B70710F036
:20480000A61BB70B881F991F5A95A9F780959095BC01CD010895EE0FFF1F0590F491E02D83
:204820000994CF93DF938230910510F482E090E0E0918006F091810620E030E0C0E0D0E08A
:20484000309711F14081518148175907C0F04817590761F482819381209719F09B838A8377
:204860002BC0909381068093800626C02115310519F04217530718F49A01BE01DF01EF01C6
:204880000280F381E02DDCCF2115310509F1281B390B2430310590F412968D919C911397D2
:2048A0006115710521F0FB019383828304C09093810680938006FD01329644C0FD01E20F24
:2048C000F31F81939193225031092D933C933AC020917E0630917F06232B41F420910A019F
:2048E00030910B0130937F0620937E0620910801309109012115310541F42DB73EB740919C
:204900000C0150910D01241B350BE0917E06F0917F06E217F307A0F42E1B3F0B2817390788
:2049200078F0AC014E5F5F4F2417350748F04E0F5F1F50937F0640937E068193919302C0C4
:20494000E0E0F0E0CF01DF91CF9108950F931F93CF93DF93009709F48CC0FC013297138227
:20496000128200918006109181060115110581F420813181820F931F20917E0630917F06B2
:204980002817390779F5F0937F06E0937E0671C0D80140E050E0AE17BF0750F412962D919C
:2049A0003C911397AD012115310509F1D901F3CF9D01DA013383228360817181860F971FDE
:2049C0008217930769F4EC0128813981260F371F2E5F3F4F318320838A819B8193838283B8
:2049E000452B29F4F0938106E093800642C01396FC93EE931297ED01499159919E01240F3F
:204A0000351FE217F30771F480819181840F951F029611969C938E938281938113969C9312
:204A20008E931297E0E0F0E0D80112968D919C911397009719F0F8018C01F6CF8D919C9170
:204A400098012E5F3F4F820F931F20917E0630917F062817390769F4309729F410928106FB
:204A60001092800602C01382128210937F0600937E06DF91CF911F910F910895A0E0B0E017
:204A8000E4E4F5E20C942E26EC01009721F4CB010E941124B8C0FC01E60FF71F9C012250B8
:204AA0003109E217F30708F4ACC0D9010D911C91119706171707B0F00530110508F49FC013
:204AC000C80104978617970708F499C002501109061B170B019311936D937C93CF010E947A
:204AE000A6248DC05B01A01AB10A4C01800E911EA0918006B091810640E050E0E12CF12C4B
:204B0000109709F44AC0A815B905D1F56D907C901197630182E0C80ED11CCA14DB0480F13E
:204B2000A3014A195B096A0182E0C80ED11C1296BC9012971396AC91B5E0CB16D10440F07C
:204B4000B282A38351834083D9016D937C930AC00E5F1F4FC301800F911FF90191838083C2
:204B6000EB2DFA2FE114F10431F0D7011396FC93EE93129744C0F0938106E09380063FC0A9
:204B80008D919C9111974817590708F4AC017D0112960D90BC91A02DB3CF80917E069091A5
:204BA0007F0688159905E1F446175707C8F48091080190910901009741F48DB79EB740916E
:204BC0000C0150910D01841B950BE817F907C8F4F0937F06E0937E06F901718360830FC040
:204BE000CB010E9411247C01009759F0A801BE010E941A26CE010E94A624C70104C0CE01D5
:204C000002C080E090E0CDB7DEB7EEE00C944A2681E090E0F8940C946126FB01DC0104C0EA
:204C20008D910190801921F441505040C8F7881B990B0895FB01DC0102C001900D924150F7
:204C40005040D8F70895FB01DC0101900D920020E1F708952F923F924F925F926F927F9244
:204C60008F929F92AF92BF92CF92DF92EF92FF920F931F93CF93DF93CDB7DEB7CA1BDB0B60
:204C80000FB6F894DEBF0FBECDBF09942A88398848885F846E847D848C849B84AA84B9847D
:204CA000C884DF80EE80FD800C811B81AA81B981CE0FD11D0FB6F894DEBF0FBECDBFED01D0
:204CC000089515E0C4E9D5E004C0FE010E940B242196C539D107C9F7F894FFCFAE0CAE0C31
:204CE0000101DC05000082068000E803000000003B0CA80BD30B820C040CE20BF60B00007A
:204D000000003D0D0D0D6D0DE10C050DF10CE20C0000FFFFFFFFFFFFFFFFFFFFFFFFFFFFD9
:204D2000FFFFFFFFFFFFFFFFFFFFFFFFFFFFFFFFFFFFFFFFFFFFFFFFFFFFFFFFFFFFFFFF93
:204D4000FFFFFFFFFFFFFFFFFFFFFFFFFFFFFFFFFFFFFFFFFFFFFFFFFFFFFFFFFFFFFFFF73
:204D6000FFFFFFFFFFFFFFFFFFFFFFFFFFFFFFFFFFFFFFFFFFFFFFFFFFFFFFFFFFFFFFFF53
:204D8000DE1A81E08093B10380E4382E0AE011E080917402882361F18091200281110AC03B
:204DA0008091730290E0209171023091720228173907D0F0109220020E943C19F82E809371
:204DC00070020E94311A9093720280937102F4FC03C08115944079F40E9451196BE07AE01C
:204DE0008EE794E00E94290A8EE794E00E94EA0A0E94A41CCDCFF1FEF7CF0E94311A6091E5
:204E00007302262F30E08217930770F380E392E00E941E1AA0903402B0903502BA24AB24E9
:204E2000BA24C0903802D0903902DC24CD24DC24E0903C02F0903D02FE24EF24FE246091C9
:204E4000300270913102762767277627072E000C880B990B0E94D22E20E030E040E858E397
:204E60000E94B12F2B013C0160939D0370939E0380939F039093A003B501BB0C880B990BE1
:204E80000E94D22E20E030E040E858E30E94B12F4B015C016093A1037093A2038093A303DA
:204EA0009093A403B601DD0C880B990B0E94D22E20E030E040E858E30E94B12FCF56DF4F67
:204EC000688379838A839B83C159D0406093A5037093A6038093A7039093A803B701FF0C01
:204EE000880B990B0E94D22E20E030E040E858E30E94B12FCB56DF4F688379838A839B8383
:204F0000C559D0406093A9037093AA038093AB039093AC039B01AC01C501B4010E94B12F3B
:204F20006B017C01CF56DF4F288139814A815B81C159D040C301B2010E94B12F9B01AC01BF
:204F4000C701B6010E947A2D9B01AC010E947B2DC756DF4F688379838A839B83C959D04067
:204F600060939103709392038093930390939403A5019401C301B2010E94B12F6B017C0192
:204F8000CB56DF4F288139814A815B81C559D040CF56DF4F688179818A819B81C159D04003
:204FA0000E94B12F9B01AC01C701B6010E947B2D9B01AC010E947B2DC356DF4F688379839C
:204FC0008A839B83CD59D04060939503709396038093970390939803A3019201C301B20130
:204FE0000E94B12F6B017C01A5019401C501B4010E94B12F9B01AC01C701B6010E947A2DFD
:205000006B017C01CF56DF4F288139814A815B81C159D040CA01B9010E94B12F9B01AC01D0
:20502000C701B6010E947A2D6B017C01CB56DF4F288139814A815B81C559D040CA01B901B3
:205040000E94B12F9B01AC01C701B6010E947B2DCF55DF4F688379838A839B83C15AD0402D
:205060006093990370939A0380939B0390939C03A3019201C301B2010E947B2D6B017C01AD
:20508000A5019401C501B4010E947B2DCB55DF4F688379838A839B83C55AD040A30192014A
:2050A000C701B6010E94B12F2B013C01A5019401CB55DF4F688179818A819B81C55AD040C4
:2050C0000E94B12F9B01AC01C301B2010E947B2D20E030E040E85FE30E947A2D2B013C0118
:2050E000CF56DF4F288139814A815B81C159D040CB55DF4F688179818A819B81C55AD040A2
:205100000E94B12F4B015C01CB56DF4F288139814A815B81C559D040C701B6010E94B12FDC
:205120009B01AC01C501B4010E947A2DA30192010E94FA2D6B017C01609324027093250236
:205140008093260290932702CF55DF4F288139814A815B81C15AD040CA01B9010E94B12F3A
:205160004B015C01C356DF4F288139814A815B81CD59D040CA01B9010E94B12FA5019401BD
:205180000E947B2D0E9424309B01AC01C756DF4F688179818A819B81C959D0400E945E2ED1
:2051A0000E942A2E609328027093290280932A0290932B02C756DF4F288139814A815B81C6
:2051C000C959D040CA01B9010E94B12FA50194010E947B2D0E9424309B01AC01C356DF4F8B
:2051E000688179818A819B81CD59D0400E945E2E0E942A2E60932C0270932D0280932E02B1
:2052000090932F02C0927A04D0927B04E0927C04F0927D0468E774E08BE394E00E945E18F7
:205220008091280290912902A0912A02B0912B028093740490937504A0937604B09377048A
:2052400062E774E08AE194E00E945E1880912C0290912D02A0912E02B0912F0280936E04D3
:2052600090936F04A0937004B09371046CE674E085E294E00E945E182091220230912302E5
:2052800080911E0290911F022817390709F061C080901A0290901B02A0901C02B0901D02EC
:2052A00020911A0230911B0240911C0250911D02F090B200A5E0B0E00E943E2D2AE030E0E6
:2052C00040E050E00E94492D8F2D602F0E948D3069017A01C80ED11CE11CF11CA9E1B0E0F0
:2052E000A50194010E943E2DDC01CB018C0D9D1DAE1DBF1D81329E44A105B10508F497C07F
:2053000010924A0410924B0410924C0410924D0410924E0410924F041092500410925104F1
:20532000109252041092530410925404109255041093050166E474E080E394E00E945E1851
:20534000109216021092170210921802109219026EC08091160290911702A0911802B09142
:205360001902892B8A2B8B2B39F1609116027091170280911802909119020E94D02E2AE095
:2053800037ED43EA5BE30E94B12F2FE632E143E85AE30E94B12F9B01AC0162E97AE086E88E
:2053A0009FE30E945E2E60934A0470934B0480934C0490934D0408C010924A0410924B042A
:2053C00010924C0410924D0460910401062E000C770B880B990B0E94D22E9B01AC0160911D
:2053E0004A0470914B0480914C0490914D040E94B12F60934A0470934B0480934C049093A1
:205400004D0410924E0410924F0410925004109251041092520410925304109254041092D8
:20542000550466E474E080E394E00E945E1880911E0290911F0290932302809322023092D2
:205440007C0080917A00806480937A0080917A0086FDFCCF809178002091790090E0922B1B
:2054600090936B0480936A0468E674E08FE094E00E945E188091140290911502909367048F
:2054800080936604109215021092140264E674E084E094E00E945E18A7CC8091B803909130
:2054A000B903009711F00E945F318091B60387FD03C060E00C942B1B08951092F702109255
:2054C000F60288EE93E0A0E0B0E08093F8029093F902A093FA02B093FB0222E531E0309366
:2054E000F5022093F40225EC30E0309301032093000324EC30E0309303032093020320ECC1
:2055000030E0309305032093040321EC30E0309307032093060322EC30E0309309032093B0
:20552000080326EC30E030930B0320930A0310920D0310920E0310920F031092100310923D
:20554000C6021092C5028093C7029093C802A093C902B093CA0284E691E09093C40280936D
:20556000C3028AE991E090937F0480937E0484EF92E0909381048093800480E492E4AFE0BA
:20558000B0E08093820490938304A0938404B093850410928C058EE891E090939B058093C1
:2055A0009A0510929C0510929D0510929E0510929F051092A5051092A4051092A6051092B4
:2055C000A7051092A8051092A9051092AF051092AE051092B0051092B1051092B20510922B
:2055E000B3051092B7051092B605EEE6F5E0AAE5B5E01D921D9285E0AE36B807D1F711929A
:20560000119285E0E238F807D1F7A2E9B4E0E6EFF4E01D9284E0A63FB807D9F7119285E04A
:20562000EA35F807D9F788EF91E0909379048093780410927A0410927B0410927C04109260
:205640007D0490937304809372041092740410927504109276041092770490936D04809391
:205660006C0410926E0410926F0410927004109271048CEE91E090936904809368041092C8
:205680006B0410926A049093650480936404109267041092660482E891E09093470480930F
:2056A000460486E791E0909349048093480410924A0410924B0410924C0410924D0410928B
:2056C0004E0410924F0410925004109251041092520410925304109254041092550490938D
:2056E000570480935604109258041092590410925A0410925B0410925C0410925D0410923D
:205700005E0410925F041092600410926104109262041092630488EA9DE090933C0480939F
:205720003B0481E080933D0428E734E030933F0420933E04109245041092440422EA3DE059
:2057400030933104209330048093320426E434E0309334042093330410923A04109239045F
:205760002DE93DE03093260420932504809327042CE634E0309329042093280410922F0425
:2057800010922E0427E93DE030931B0420931A0480931C0422E734E030931E0420931D044C
:2057A000109224041092230428E83DE03093100420930F048093110428E634E03093130468
:2057C00020931204109219041092180422E83DE030930504209304048093060424E634E09A
:2057E000309308042093070410920E0410920D0420EE31E03093F6032093F50324ED31E00D
:205800003093FD032093FC032CE032E03093FF032093FE0328E537E03093010420930004D9
:2058200021E030E030930304209302044EE75DE05093FA034093F9038093FB0348EC51E03D
:205840005093E8034093E7034CEB51E05093EF034093EE031092F0034FEF51E15093F203DF
:205860004093F1033093F4032093F30345E75DE05093EC034093EB038093ED0340EB51E0A3
:205880005093D9034093D80344EA51E05093E0034093DF031092E2031092E1034BEC58E045
:2058A0005093E4034093E3033093E6032093E5032FE63DE03093DD032093DC038093DE03C3
:2058C00098E69093C5031092B1031092B7031092BE031092BF031092C0031092C103809308
:2058E000BD038093BA031092BB0392E09093BC038093B0038FE390E09093B5038093B40317
:205900000E94C7309093B9038093B803009761F02FE3FC0111922A95E9F785E190E090930F
:20592000B3038093B20308C01092B5031092B4031092B3031092B20386E08093B60380917C
:20594000B103882341F061E086E00E942B1B60E086E00E94DE1AE1E6FDE0E491F0E0EE0F02
:20596000FF1FEF5AF24F859194919093C3038093C203E3E4FDE0E491E093C4038091F3022A
:205980008C30A0F491E0980F9093F3028093AD0390E0FC01EE0FFF1F8E0F9F1FFC01E153B0
:2059A000FD4F88EB9BE09283818303C08FEF8093AD0380E090E0A0E8BFE380939D039093C0
:2059C0009E03A0939F03B093A0031092A1031092A2031092A3031092A4031092A503109261
:2059E000A6031092A7031092A8031092A9031092AA031092AB031092AC031092910310924F
:205A00009203109293031092940310929503109296031092970310929803109299031092B2
:205A20009A0310929B0310929C030895FB01DC018D91059080190110D9F3990B0895052E35
:205A400097FB1EF400940E94362D57FD07D00E94492D07FC03D04EF40C94362D50954095F1
:205A6000309521953F4F4F4F5F4F089590958095709561957F4F8F4F9F4F08950E946B2D8E
:205A8000A59F900DB49F900DA49F800D911D11240895A1E21A2EAA1BBB1BFD010DC0AA1FEB
:205AA000BB1FEE1FFF1FA217B307E407F50720F0A21BB30BE40BF50B661F771F881F991F93
:205AC0001A9469F760957095809590959B01AC01BD01CF010895A29FB001B39FC001A39FC9
:205AE000700D811D1124911DB29F700D811D1124911D08955058BB27AA270E94922D0C9460
:205B00006F2F0E94612F38F00E94682F20F039F49F3F19F426F40C94372F0EF4E095E7FBB3
:205B20000C94312FE92F0E94802F58F3BA17620773078407950720F079F4A6F50C94A22F4D
:205B40000EF4E0950B2EBA2FA02D0B01B90190010C01CA01A0011124FF27591B99F0593F1F
:205B600050F4503E68F11A16F040A22F232F342F4427585FF3CF469537952795A795F04061
:205B80005395C9F77EF41F16BA0B620B730B840BBAF09150A1F0FF0FBB1F661F771F881FB1
:205BA000C2F70EC0BA0F621F731F841F48F4879577956795B795F7959E3F08F0B0CF93952B
:205BC000880F08F09927EE0F9795879508950E94612F60F080E891E009F49EEF0E94682F76
:205BE00028F040E851E071F45EEF0CC00C94372F0C94A22FE92FE0780E94802F40F3092E14
:205C0000052AB1F3261737074807590738F00E2E07F8E02569F0E025E0640AC0EF6307F862
:205C2000009407FADB01B9019D01DC01CA01AD01EF930E94752E0E946F2F0E942A2E5F9154
:205C4000552339F02BED3FE049E450FD49EC0C947B2D0895DF93DD27B92FBF7740E85FE3DA
:205C60001616170648075B0718F4D92F0E94A92F9F938F937F936F930E946430E8E6F0E060
:205C80000E943A2F0E946F2F2F913F914F915F910E94C42FDD2351F09058A2EA2AED3FE0D9
:205CA00049EC5FE3D0785D270E94922DDF910C946F2F0E940D2F08F481E008950E94722E78
:205CC0000C946F2F0E94682F58F00E94612F40F029F45F3F29F00C94312F51110C94A32FFB
:205CE0000C94372F0E94802F68F39923B1F3552391F3951B550BBB27AA2762177307840755
:205D000038F09F5F5F4F220F331F441FAA1FA9F335D00E2E3AF0E0E832D091505040E69543
:205D2000001CCAF72BD0FE2F29D0660F771F881FBB1F261737074807AB07B0E809F0BB0B06
:205D4000802DBF01FF2793585F4F3AF09E3F510578F00C94312F0C94A32F5F3FE4F3983E95
:205D6000D4F3869577956795B795F7959F5FC9F7880F911D9695879597F90895E1E0660FB4
:205D8000771F881FBB1F621773078407BA0720F0621B730B840BBA0BEE1F88F7E0950895B0
:205DA000E89409C097FB3EF490958095709561957F4F8F4F9F4F9923A9F0F92F96E9BB272D
:205DC0009395F695879577956795B795F111F8CFFAF4BB0F11F460FF1BC06F5F7F4F8F4F66
:205DE0009F4F16C0882311F096E911C0772321F09EE8872F762F05C0662371F096E8862F75
:205E000070E060E02AF09A95660F771F881FDAF7880F9695879597F90895990F0008550F07
:205E2000AA0BE0E8FEEF16161706E807F907C0F012161306E407F50798F0621B730B840BD6
:205E4000950B39F40A2661F0232B242B252B21F408950A2609F4A140A6958FEF811D811D52
:205E6000089597F99F6780E870E060E008959FEF80EC0895DF93CF931F930F93FF92EF9289
:205E8000DF927B018C01689406C0DA2EEF010E94C42FFE01E894A591259135914591559150
:205EA000A6F3EF010E94922DFE019701A801DA9469F7DF90EF90FF900F911F91CF91DF914D
:205EC000089500240A941616170618060906089500240A9412161306140605060895092E54
:205EE0000394000C11F4882352F0BB0F40F4BF2B11F460FF04C06F5F7F4F8F4F9F4F0895F8
:205F000057FD9058440F551F59F05F3F71F04795880F97FB991F61F09F3F79F08795089528
:205F2000121613061406551FF2CF4695F1DF08C0161617061806991FF1CF86957105610588
:205F400008940895E894BB2766277727CB0197F908959B01AC0160E070E080E89FE30C9423
:205F60005E2E0E94C42F0C946F2F0E94612F38F00E94682F20F0952311F00C94312F0C94C6
:205F8000372F11240C94A32F0E94802F70F3959FC1F3950F50E0551F629FF001729FBB272B
:205FA000F00DB11D639FAA27F00DB11DAA1F649F6627B00DA11D661F829F2227B00DA11D3A
:205FC000621F739FB00DA11D621F839FA00D611D221F749F3327A00D611D231F849F600D3A
:205FE000211D822F762F6A2F11249F5750409AF0F1F088234AF0EE0FFF1FBB1F661F771F59
:20600000881F91505040A9F79E3F510580F00C94312F0C94A32F5F3FE4F3983ED4F3869586
:2060200077956795B795F795E7959F5FC1F7FE2B880F911D9695879597F9089519F416F455
:206040000C94372F0C9468300E94882FB8F39923C9F3B6F39F57550B87FF0E947630002495
:20606000A0E640EA900180585695979528F4805C660F771F881F20F026173707480730F448
:20608000621B730B840B202931294A2BA69517940794202531254A2758F7660F771F881FD0
:2060A00020F026173707480730F4620B730B840B200D311D411DA09581F7B901842F91588C
:2060C000880F9695879508959B01AC010C94B12F9F3F31F0915020F4879577956795B79518
:2060E000880F911D9695879597F9089591505040660F771F881FD2F70895DB018F939F932E
:206100000E943E2DBF91AF91A29F800D911DA39F900DB29F900D11240895991B79E004C0F6
:20612000991F961708F0961B881F7A95C9F78095089597FB072E16F4009407D077FD09D0A0
:206140000E94AD3007FC05D03EF4909581959F4F0895709561957F4F0895AA1BBB1B51E1BD
:2061600007C0AA1FBB1FA617B70710F0A61BB70B881F991F5A95A9F780959095BC01CD0104
:206180000895EE0FFF1F0590F491E02D09940F931F93CF93DF938230910510F482E090E03D
:2061A000E0912706F091280620E030E0A0E0B0E0309719F140815181028113814817590738
:2061C000C8F08417950769F4109731F012960C93129713961C9327C00093270610932806EB
:2061E00022C02115310519F04217530718F49A01BD01EF01DF01F801DBCF21153105F9F068
:20620000281B390B2430310580F48A819B816115710521F0FB019383828304C090932806A9
:2062200080932706FE01329644C0FE01E20FF31F8193919322503109398328833AC020915B
:20624000250630912606232B41F420910A0130910B013093260620932506209108013091D2
:2062600009012115310541F42DB73EB740910C0150910D01241B350BE0912506F091260605
:20628000E217F307A0F42E1B3F0B2817390778F0AC014E5F5F4F2417350748F04E0F5F1F6B
:2062A00050932606409325068193919302C0E0E0F0E0CF01DF91CF911F910F910895CF9358
:2062C000DF93009709F481C0FC01329713821282A0912706B0912806109781F4208131814C
:2062E000820F931F20912506309126062817390751F5F0932606E093250667C0ED0120E06B
:2063000030E0CE17DF0740F44A815B819E0141155105F1F0EA01F5CFD383C28340815181BE
:20632000840F951FC817D90759F488819981840F951F0296918380838A819B8193838283AF
:206340002115310529F4F0932806E09327063DC0E901FB83EA8349915991C40FD51FEC1703
:20636000FD0761F480819181840F951F0296E90199838883828193819B838A83E0E0F0E0EF
:2063800012968D919C911397009719F0FD01DC01F7CF8D919C9111979D012E5F3F4F820FE2
:2063A000931F20912506309126062817390769F4309729F4109228061092270602C01382AC
:2063C0001282B0932606A0932506DF91CF910895A0E0B0E0EEEEF1E30C94CD32EC0100970C
:2063E00021F4CB010E94C730B4C0FC01E60FF71F9C0122503109E217F30708F4A8C0D9012D
:206400000D911C91119706171707B0F00530110508F49BC0C80104978617970708F495C01C
:2064200002501109061B170B019311936D937C93CF010E945F3189C05B01A01AB10A4C01FD
:20644000800E911EA0912706B0912806612C712CE12CF12C109709F446C08D919C91119741
:20646000A815B905B1F56C0142E0C40ED11CCA14DB0478F14C018A189B08640142E0C40E9C
:20648000D11C1296BC9012971396AC91B5E0CB16D10440F0B282A38391828082D9016D93C8
:2064A0007C9309C00E5F1F4F800F911FF90191838083EB2DFA2FE114F10431F0D70113960C
:2064C000FC93EE93129741C0F0932806E09327063CC06816790608F43C017D0112960D90BC
:2064E000BC91A02DB7CF809125069091260688169906E1F466167706C8F480910801909171
:206500000901009741F48DB79EB740910C0150910D01841B950BE817F907C8F4F093260696
:20652000E0932506F901718360830FC0CB010E94C7307C01009759F0A801BE010E94C0325F
:20654000CE010E945F31C70104C0CE0102C080E090E0CDB7DEB7EEE00C94E93281E090E0DA
:20656000F8940C940033FB01DC0104C08D910190801921F441505040C8F7881B990B0895FE
:20658000FB01DC0102C001900D9241505040D8F708952F923F924F925F926F927F928F920C
:2065A0009F92AF92BF92CF92DF92EF92FF920F931F93CF93DF93CDB7DEB7CA1BDB0B0FB663
:2065C000F894DEBF0FBECDBF09942A88398848885F846E847D848C849B84AA84B984C8849D
:2065E000DF80EE80FD800C811B81AA81B981CE0FD11D0FB6F894DEBF0FBECDBFED01089526
:2066000016E0C7EDD6E004C0FE010E94C1302196C83DD107C9F7F894FFCFA11BA11B01019C
:20662000DC050000290680000000000091156D13D60FD30F000000005F151713D00FCD0F84
:206640000000000000002510DF0FDC0FD90F00000000581805180A18561800000000BB0F5D
:206660005D182216B90FE80300000000351CA21BCC1B821CFD1BDB1BEF1B000000003B1DB7
:206680000E1D6B1DE21C061DF21CE31C00000000B311F1104F0F4C0F00000000E3111B117B
:2066A000490F460F0000000086142416CA0FC70F000000002D0AEA0A020700000000B00FB7
:2066C000A70F270724070000000043072A072707240700000000A00F990F1407110700004D
:2066E00000001B07170714071107000000005B14C6120A070707000000002E070D070A0767
:206700000707000000008E0F7F0F7C0F790F00000000650F580F550F520F000000006E1D02
:206720006E1D6E1D6E1D0000FFFFFFFFFFFFFFFFFFFFFFFFFFFFFFFFFFFFFFFFFFFFFFFFD0
:20674000FFFFFFFFFFFFFFFFFFFFFFFFFFFFFFFFFFFFFFFFFFFFFFFFFFFFFFFFFFFFFFFF59
:20676000FFFFFFFFFFFFFFFFFFFFFFFFFFFFFFFFFFFFFFFFFFFFFFFFFFFFFFFFFFFFFFFF39
:20678000FFFFFFFFFFFFFFFFFFFFFFFFFFFFFFFFFFFFFFFFFFFFFFFFFFFFFFFFFFFFFFFF19
:2067A000FFFFFFFFFFFFFFFFFFFFFFFFFFFFFFFFFFFFFFFFFFFFFFFFFFFFFFFFFFFFFFFFF9
:207800000C94343C0C94513C0C94513C0C94513C0C94513C0C94513C0C94513C0C94513C1D
:207820000C94513C0C94513C0C94513C0C94513C0C94513C0C94513C0C94513C0C94513CE0
:207840000C94513C0C94513C0C94513C0C94513C0C94513C0C94513C0C94513C0C94513CC0
:207860000C94513C0C94513C11241FBECFEFD8E0DEBFCDBF11E0A0E0B1E0ECE9FFE702C07E
:2078800005900D92A230B107D9F712E0A2E0B1E001C01D92AD30B107E1F70E942D3D0C94CC
:2078A000CC3F0C94003C982F9595959595959595905D8F708A307CF0282F295A8091C000B5
:2078C00085FFFCCF9093C6008091C00085FFFCCF2093C6000895282F205DF0CF982F8091CF
:2078E000C00085FFFCCF9093C6000895EF92FF920F931F93EE24FF2487018091C00087FD7B
:2079000017C00894E11CF11C011D111D81E4E81682E4F8068FE0080780E0180770F3E09106
:207920000401F091050109958091C00087FFE9CF8091C6001F910F91FF90EF9008950E949A
:20794000763C982F8091C00085FFFCCF9093C60091362CF490330CF09053892F08959755DB
:20796000892F08951F930E949F3C182F0E949F3C1295107F810F1F9108951F93182F882308
