:100000000C944A050C94260A0C94FF090C94720572
:100010000C9472050C9472050C9472050C94720584
:100020000C9472050C94510E0C9472050C944D0AAC
:100030000C9472050C9472050C9472050C94720564
:100040000C94B5090C9472050C949C080C947608D9
:100050000C9472050C9472050C9472050C94720544
:100060000C940E0B0C947205084AD73B3BCE016EE4
:1000700084BCBFFDC12F3D6C74319ABD56833DDAFF
:100080003D00C77F11BED9E4BB4C3E916BAAAABE0E
:10009000000000803F0001B202FFFF01900409232D
:1000A000A135016A0206000160080000000000009E
:1000B00000000060044000000001620200000060D7
:1000C0000400400000037B034CCD6C03AB033656A9
:1000D0007600680402CB47A202180400058BC10118
:1000E0000C0400000000037F060CC92C97979703AF
:1000F0008903264666006C022000024004000000CE
:100100000002440400000000024804000000000255
:100110004C040000000002500400000000025404DF
:100120000000000002580400000000025C0400000F
:10013000000002BC040000000001EC0400004000CC
:10014000037F060CC92C9797970402030D355D04B5
:100150000904872D353D00A301000000000107863A
:1001600001FE074105F120283038077E013007469F
:10017000019A074704F1283038076C04F128303819
:100180000216020001FB00003E000B0036000100D9
:10019000020003000000650054FFEF0000FA800039
:1001A0000B128200010002000000000000000000AD
:1001B000000000000000280000FFFF4581FFFFFA5B
:1001C0007200000000000003E80000000100017F51
:1001D000FFFFFE8001001B00000000000000000087
:1001E0000000000000003E03304000000002CAE3AF
:1001F000093E8000002000000000000000400000D8
:10020000006000000041FF000000000B2A00001603
:100210005500002182FD872650FD800000001F0050
:100220000000058000000000000001000000020046
:100230000000030000400000000000046F000265A1
:100240003200005EC040000000000000000000001E
:100250000000000000FB8C6F5DFD5D08D9007C7321
:100260003B006C12CC3200139D3200D0D632000815
:1002700000400001F4FFE68079020000000000D099
:10028000D600002710FB0000004000000000000026
:10029000000000000000000001000000000000015C
:1002A00000010000000000FA36FFBC308E0005FBA4
:1002B000F0FFD95BC8FFD09ABE000010A9FFF41E62
:1002C000B200CEBBF70000000100000004000200F5
:1002D000020200000CFFC280000001800000CF80FD
:1002E00000400000000000000100000000000006C7
:1002F00000000000140000000000000000000000EA
:1003000000000000000000000000000000000000ED
:1003100000000000000000000000000000000000DD
:10032000000000000000000000033F68B679352897
:10033000BCC67ED16C80000000400000000000B20E
:100340006A00000000000000000000000000003F04
:10035000F00000003000000000000000000000007D
:10036000000000000000000000000000000000008D
:1003700000000000000000254D002F706D000005FA
:10038000AE000C02D00000000000650054FFEF003A
:100390000000000000000001000044000000000C0C
:1003A0000000000100000000000065000000540093
:1003B00000FFEF000000000000000000000000004F
:1003C00000000000004000000000000000000000ED
:1003D00000000000004000000000000000000000DD
:1003E000000000000000000001000000020000000A
:1003F00000000000000000000000000000000000FD
:1004000000000000000000000000000000000000EC
:100410000000000000001B000000000000000000C1
:1004200000000000000000000000000000000000CC
:1004300000000000000000000000000000000000BC
:100440000040000000001B00000000000000000051
:10045000000000000000000000000000000000009C
:10046000000000000000000000000000000000008C
:10047000000000000000000000000000000000007C
:100480000000000000D8DCBAA2F1DEB2B8B4A88146
:1004900091F74A907F916AF3F9DBA8F9B0BAA0808E
:1004A000F2CE81F3C2F1C1F2C3F3CCA2B280F1C6A5
:1004B000D880BAA7DFDFDFF2A7C3CBC5B6F087A22B
:1004C000942448703C95406834589B78A2F18392FC
:1004D0002D557DD8B1B4B8A1D09180F270F370F2EF
:1004E0007C80A8F101B09887D943D886C988BAA181
:1004F000F20EB89780F1A9DFDFDFAADFDFDFF2AA13
:10050000C5CDC7A90CC92C97979797F1A9892646FD
:1005100066B0B4BA80ACDEF2CAF1B28C02A9B69869
:1005200000890E161EB8A9B4992C547CB08AA896DE
:10053000365676F1B9AFB4B083C0B8A89711B18F71
:1005400098B9AFF0240844106418F1A329557DAF81
:1005500083B593AFF0002850F1A3869F61A6DADE41
:10056000DFD9FAA38696DB31A6D9F8DFBAA68FC207
:10057000C5C7B28CC1B8A2DFDFDFA3DFDFDFD8D809
:10058000F1B8A8B286B4980D355DB8AA98B0872D99
:10059000353DB2B6BAAF8C96198F9FA70E161EB412
:1005A0009AB8AA872C547CB9A3DEDFDFA3B180F20E
:1005B000C4CDC9F1B8A9B499830D355D89B9A32D0E
:1005C000557DB593A30E161EA92C547CB8B4B0F17A
:1005D0009783A81184A50998A383F0DA240844100E
:1005E0006418D8F1A529557DA58595021A2E3A568D
:1005F0005A4048F9F3A3D9F8F098832408441064CA
:10060000189782A8F111F098A2240844106418DA0F
:10061000F3DED883A59401D9A302F1A2C3C5C7D83C
:10062000F18492A24DDA2AD84869D92AD86855DAD5
:1006300032D85071D932D8705DDA3AD85879D93A6F
:10064000D87893A34DDA2AD84869D92AD86855DAD8
:1006500032D85071D932D8705DDA3AD85879D93A4F
:10066000D878A88A9AF02850789EF38818F19F1DB0
:1006700098A8D908D8C89F129EF315A8DA1210D8E6
:10068000F1AFC8978734B5B994A421F3D922D8F231
:100690002DF3D92AD8F235F3D932D881A46060611C
:1006A000D961D86C6869D969D8747071D971D8B1B9
:1006B000A384193D5DA3831A3E5E9310308110110F
:1006C000B8B0AF8F94F2DA3ED8B49AA88729DAF896
:1006D000D8879A35DAF8D8879A3DDAF8D8B1B9A42C
:1006E0009885022E56A581000C14A397B08AF12D8F
:1006F000D928D84DD948D86DD968D8B1840DDA0E2B
:10070000D8A32983DA2C0ED8A3844983DA2C4C0E83
:10071000D8B8B0A88A9AF520AADADFD8A840AAD01B
:10072000DADED8A860AADAD0DFD8F19786A8319BA4
:10073000069907AB9728889BF00C201440B8B0B4FA
:10074000A88C9CF0042851791D301438B282ABD0AB
:10075000982C505078789BF11AB0F08A9CA82951B7
:10076000798B2951798A2470598B2058718A446970
:10077000388B3940688A6448318B304960A58820BD
:100780000971584468113964493019F1AC002C548E
:100790007CF08CA804285078F1889726A85998AC4A
:1007A0008C02264666F0899CA82951792470594408
:1007B0006938644831A98809205970AB11384069FB
:1007C000A8193148608CA83C415C207C00F18798D6
:1007D0001986A86E767EA999882D557D9EB9A38A23
:1007E000228A6E8A568A5E9FB183062646660E2E40
:1007F0004E6E9DB8AD002C547CF2B18CB499B9A367
:100800002D557D8191AC38AD3AB58391AC2DD92869
:10081000D84DD948D86DD968D88C9DAE29D904AEA9
:10082000D851D904AED879D904D881F39DAD008DC3
:10083000AE1981ADD901D8F2AEDA26D88E912983CE
:10084000A7D9ADADADADF32AD8D8F1B0AC89913E02
:100850005E76F3AC2E2EF1B18C5A9CAC2C28282855
:100860009CAC3018A8988128343C9724A728343CA5
:100870009C24F2B089AC912C4C6C8A9B2DD9D8D891
:1008800051D9D8D879D9D8D8F19E88A331DAD8D817
:10089000912DD928D84DD948D86DD968D8B183932E
:1008A000353D8025DAD8D88569DAD8D8B49381A3C4
:1008B00028343CF3AB8BF8A391B609B4D9ABDEFA7C
:1008C000B0879CB9A3DDF1A3A3A3A395F1A3A3A330
:1008D0009DF1A3A3A3A3F2A3B49080F2A3A3A3A327
:1008E000A3A3A3A3A3A3B2A3A3A3A3A3A3B087B5C6
:1008F00099F1A3A3A398F1A3A3A3A397A3A3A3A34D
:10090000F39BA3A3DCB9A7F1262626D8D8FF29009C
:10091000444D5020496E697469616C697A617469EB
:100920006F6E206661696C65642028636F64652062
:1009300000444D50207265616479212057616974CB
:10094000696E6720666F7220666972737420696EC3
:10095000746572727570742E2E2E00456E61626C15
:10096000696E6720696E7465727275707420646553
:1009700074656374696F6E202841726475696E6F67
:100980002065787465726E616C20696E7465727230
:100990007570742030292E2E2E00456E61626C69B0
:1009A0006E6720444D502E2E2E004D50553630355A
:1009B0003020636F6E6E656374696F6E2066616967
:1009C0006C6564004D50553630353020636F6E6E67
:1009D000656374696F6E20737563636573736675A1
:1009E0006C00496E697469616C697A696E6720444C
:1009F0004D502E2E2E0054657374696E6720646509
:100A00007669636520636F6E6E656374696F6E737C
:100A10002E2E2E00496E697469616C697A696E6761
:100A20002049324320646576696365732E2E2E005B
:100A30004649464F206F766572666C6F77210000DD
:100A4000000000240027002A000000000800020126
:100A50000000030407000000000000000001020481
:100A60000810204080010204081020010204081030
:100A70002000000000250028002B000404040404CA
:100A8000040404020202020202030303030303003C
:100A9000831C611C11241FBECFEFD8E0DEBFCDBF89
:100AA00011E0A0E0B1E0E6E4F8E402C005900D92A8
:100AB000AE36B107D9F723E0AEE6B1E001C01D9232
:100AC000A43DB207E1F715E0C9E4D5E004C02197E1
:100AD000FE010E94EE21C834D107C9F70E945911C6
:100AE0000C9416240C940000CF92DF92EF92FF92A8
:100AF0000F931F93CF93DF936C017A018B01C0E0BA
:100B0000D0E0CE15DF0589F0D8016D918D01D601B9
:100B1000ED91FC910190F081E02DC6010995892BA2
:100B200011F47E0102C02196ECCFC701DF91CF9175
:100B30001F910F91FF90EF90DF90CF900895FC01EF
:100B4000918D828D981761F0828DDF01A80FB11D04
:100B50005D968C91928D9F5F9F73928F90E0089528
:100B60008FEF9FEF0895FC01918D828D981731F0E2
:100B7000828DE80FF11D858D90E008958FEF9FEF36
:100B80000895FC01918D228D892F90E0805C9F4F0C
:100B9000821B91098F739927089587E992E00E943B
:100BA000C10521E0892B09F420E0822F0895FC0182
:100BB000848DDF01A80FB11DA35ABF4F2C91848DE6
:100BC00090E001968F739927848FA689B7892C931B
:100BD000A089B1898C9180648C93938D848D9813B6
:100BE00006C00288F389E02D80818F7D808308957F
:100BF000EF92FF920F931F93CF93DF93EC0181E06D
:100C0000888F9B8D8C8D981305C0E889F989808128
:100C100085FD24C0F62E0B8D10E00F5F1F4F0F7364
:100C20001127E02E8C8DE8120CC00FB607FCFACF0E
:100C3000E889F989808185FFF5CFCE010E94D7052B
:100C4000F1CF8B8DFE01E80FF11DE35AFF4FF082CB
:100C50000B8FEA89FB898081806207C0EE89FF895A
:100C60006083E889F98980818064808381E090E0F5
:100C7000DF91CF911F910F91FF90EF900895CF9347
:100C8000DF93EC01888D8823C9F0EA89FB89808194
:100C900085FD05C0A889B9898C9186FD0FC00FB666
:100CA00007FCF5CF808185FFF2CFA889B9898C91A7
:100CB00085FFEDCFCE010E94D705E7CFDF91CF9121
:100CC0000895089585ED8093BC008091BC0084FD5B
:100CD000FCCF10927202089540911D02262F30E041
:100CE000240F311D21323105DCF4209172022430B1
:100CF000C9F4FC0180E090E0861758F430911D02A1
:100D00002191DC01A550BE4FA30FB11D2C9301967C
:100D1000F3CF80911D02680F60931D0280E008955B
:100D200081E0089582E008950895E0916F01809137
:100D30006E01E81730F4F0E0E552FE4F808190E05C
:100D400008958FEF9FEF089590916F0180916E014C
:100D5000981750F4E92FF0E0E552FE4F208130E083
:100D60009F5F90936F0102C02FEF3FEFC90108957D
:100D700080916E0190E020916F01821B910908958E
:100D8000CF92DF92EF92FF920F931F93CF93DF9357
:100D90007C01262F972F8A0180917302882391F07E
:100DA000C62FD72F6E01C40ED51ECC15DD0571F0F0
:100DB0006991D701ED91FC910190F081E02DC7017F
:100DC0000995F3CF642F822F0E946C06C801DF9132
:100DD000CF911F910F91FF90EF90DF90CF900895EA
:100DE000CF93DF931F92CDB7DEB769832091730253
:100DF0002223D1F020919602203240F021E030E011
:100E0000FC013383228380E090E015C0809174025E
:100E1000E82FF0E0EB58FD4F998190838F5F80932E
:100E200074028093960205C061E0CE0101960E9493
:100E30006C0681E090E00F90DF91CF910895CF9301
:100E4000DF93C091D701D091D8012091D701309183
:100E5000D801E2EBF0E0408155E0529FC001539F82
:100E6000900D11246AE070E00E94DA219B01842F2A
:100E70006AE00E94CE21B901680F711D29E12C9F03
:100E8000C0012D9F900D1124680F791F709373017D
:100E9000609372011092D8011092D70110822091B4
:100EA0007001309171018091040190910501820FD0
:100EB000931F9093710180937001DF91CF910895FA
:100EC00081E08093740108950E94EB230F931F9398
:100ED000CF93DF93EC0188819981009729F02A81D3
:100EE0003B812617370788F48B016F5F7F4F0E9485
:100EF0002123009761F0998388831B830A832C81C7
:100F00003D81232B11F4FC01108281E001C080E0BF
:100F1000DF91CF911F910F910895EF92FF920F9360
:100F20001F93CF93DF9300D0CDB7DEB78C016983D9
:100F30001A82FC01E480F580FFEFEF1AFF0AB70187
:100F40000E946607882381F0F80120813181848125
:100F50009581BE016F5F7F4F820F931F0E940F2408
:100F6000F801F582E48281E00F900F90DF91CF913C
:100F70001F910F91FF90EF900895CF93DF93D1E0F1
:100F800087E992E00E94C105892B09F447C087E9EF
:100F900092E00E949F05C82F833589F489E993E088
:100FA0000E9441118FE993E00E94411183E993E08F
:100FB0000E9441111092DA011092D901E1CF8C34D4
:100FC00019F4D093DA0104C08D3411F4D093D9010F
:100FD0008091DA01811104C06C2F89E993E013C07C
:100FE0008091D901811108C06C2F8FE993E00E9494
:100FF0008D07CD3029F60AC0CD3411F2CD3031F055
:101000006C2F83E993E00E948D07BACF8091D901BC
:10101000882309F4B5CFD0937501B2CFDF91CF917A
:1010200008950E94CD0581110C94BD070895FC011F
:1010300024813581232B31F421E061157105A1F064
:10104000FB0108C0FC01808191816115710531F4BB
:1010500021E0FC018081882339F005C00E9406242C
:1010600021E0892B09F020E0822F0895EF92FF9272
:101070000F931F93CF93DF93EC017B018A01BA0199
:101080000E9466072881398181110DC02115310523
:1010900019F0C9010E948922198218821D821C82BE
:1010A0001B821A8206C01D830C83B701C9010E94EE
:1010B0000F24CE01DF91CF911F910F91FF90EF9000
:1010C0000895FC011182108213821282158214820B
:1010D0006115710551F0FB0101900020E9F731978E
:1010E000AF01461B570B0C94360808951F920F92C0
:1010F0000FB60F9211242F933F934F935F936F93EB
:101100007F938F939F93AF93BF93EF93FF9387E961
:1011100092E00E94D705FF91EF91BF91AF919F910F
:101120008F917F916F915F914F913F912F910F9090
:101130000FBE0F901F9018951F920F920FB60F922F
:1011400011242F938F939F93EF93FF93E091A70226
:10115000F091A8028081E091AD02F091AE0282FD93
:1011600012C090818091B0028F5F8F732091B10285
:10117000821751F0E091B002F0E0E956FD4F958FF3
:101180008093B00201C08081FF91EF919F918F9178
:101190002F910F900FBE0F901F90189590E0FC01BB
:1011A000E75BF54F3491FC01E35AF54F2491FC01C4
:1011B000E558F54FE491EE2309F43BC0332339F1B0
:1011C000333091F038F43130A9F0323001F584B584
:1011D0008F7D12C0373091F03830A1F03430B9F43F
:1011E000809180008F7D03C0809180008F778093F5
:1011F00080000DC084B58F7784BD09C08091B00098
:101200008F7703C08091B0008F7D8093B000F0E0B5
:10121000EE0FFF1FEF58F54FA591B4918FB7F894DB
:10122000EC91611103C020952E2301C02E2B2C932D
:101230008FBF0895CF93DF9390E0FC01E35AF54F01
:101240002491FC01E558F54F8491882361F190E0E9
:10125000880F991FFC01E15CF54FC591D491FC0109
:10126000EF58F54FA591B491611109C09FB7F8945B
:101270008881209582238883EC912E230BC06230D5
:1012800061F49FB7F8943881822F809583238883F7
:10129000EC912E2B2C939FBF06C08FB7F894E8815A
:1012A0002E2B28838FBFDF91CF9108953FB7F894FD
:1012B0008091480290914902A0914A02B0914B025C
:1012C00026B5A89B05C02F3F19F00196A11DB11DA1
:1012D0003FBFBA2FA92F982F8827820F911DA11DDC
:1012E000B11DBC01CD0142E0660F771F881F991F19
:1012F0004A95D1F708958F929F92AF92BF92CF9265
:10130000DF92EF92FF926B017C010E9456094B0124
:101310005C01C114D104E104F104F1F00E9456090A
:10132000DC01CB0188199909AA09BB09883E9340C1
:10133000A105B10570F321E0C21AD108E108F10856
:1013400088EE880E83E0981EA11CB11CC114D10444
:10135000E104F10419F7DDCFFF90EF90DF90CF901B
:10136000BF90AF909F908F9008951F920F920FB6ED
:101370000F9211242F933F938F939F93AF93BF931B
:101380008091440290914502A0914602B09147029B
:101390003091430223E0230F2D3720F40196A11D45
:1013A000B11D05C026E8230F0296A11DB11D209393
:1013B00043028093440290934502A0934602B09367
:1013C00047028091480290914902A0914A02B0914F
:1013D0004B020196A11DB11D8093480290934902D2
:1013E000A0934A02B0934B02BF91AF919F918F910E
:1013F0003F912F910F900FBE0F901F9018951F9245
:101400000F920FB60F9211242F933F934F935F9338
:101410006F937F938F939F93AF93BF93EF93FF93BC
:10142000E0910201F09103010995FF91EF91BF91C5
:10143000AF919F918F917F916F915F914F913F916C
:101440002F910F900FBE0F901F9018951F920F9223
:101450000FB60F9211242F933F934F935F936F9387
:101460007F938F939F93AF93BF93EF93FF93E091FD
:101470000001F09101010995FF91EF91BF91AF91AA
:101480009F918F917F916F915F914F913F912F919C
:101490000F900FBE0F901F9018951F920F920FB6CE
:1014A0000F9211242F933F934F935F936F937F93EA
:1014B0008F939F93AF93BF93EF93FF9380914202DB
:1014C00087FF05C010928500109284001BC02091F8
:1014D0004202022E000C330B8091640390E0281727
:1014E000390784F480914202082E000C990BFC010C
:1014F000EE0FFF1F8E0F9F1FFC01E05CFC4F8081F1
:1015000086FD15C0809142028F5F80934202209138
:101510004202022E000C330B8091640390E02817E6
:101520003907C4F4809142028C3064F113C0809179
:101530004202082E000C990BFC01EE0FFF1F8E0FCC
:101540009F1FFC01E05CFC4F808160E08F730E9474
:10155000CE08D8CF80918400909185000496803485
:101560009C4918F480E49CE905C080918400909126
:101570008500049690938900809388008FEF809374
:1015800042023BC02091840030918500809142024C
:10159000082E000C990BFC01EE0FFF1F8E0F9F1FF2
:1015A000FC01E05CFC4F81819281820F931F90933C
:1015B00089008093880080914202082E000C990BCC
:1015C000FC01EE0FFF1F8E0F9F1FFC01E05CFC4F24
:1015D000808186FF12C080914202082E000C990B78
:1015E000FC01EE0FFF1F8E0F9F1FFC01E05CFC4F04
:1015F000808161E08F730E94CE08FF91EF91BF91CF
:10160000AF919F918F917F916F915F914F913F919A
:101610002F910F900FBE0F901F9018951F920F9251
:101620000FB60F9211242F933F934F935F936F93B5
:101630007F938F939F93AF93BF93EF93FF9380918B
:10164000B900887F803609F49CC068F5883209F4B7
:101650005BC090F4803109F454C038F4882309F455
:10166000F6C0883009F44DC0F6C0883109F44CC08A
:10167000803209F45DC0EFC0803409F468C048F4DA
:10168000803309F455C0883309F0E5C080937002B7
:10169000D8C0803509F44FC0883509F45DC088345E
:1016A00009F0D9C0D6C0883909F4C7C0A8F4883772
:1016B00009F467C038F4883609F463C0803709F448
:1016C00060C0C9C0883809F4B8C0803909F45FC067
:1016D000803809F0C0C05BC0803B09F486C038F494
:1016E000803A09F466C0883A09F47FC0B4C0803CEF
:1016F00009F4A7C0883C09F4A4C0883B09F48AC057
:10170000AAC080914D0210C090916F0280916E022C
:10171000981770F5E0916F0281E08E0F80936F0251
:10172000F0E0E25BFD4F80818093BB0085EC86C0DA
:10173000809370028EC0E0916F0281E08E0F8093E3
:101740006F028091BB00F0E0E25BFD4F80839091DF
:101750006F0280916E026EC0E0916F0281E08E0F89
:1017600080936F028091BB00F0E0E25BFD4F8083CD
:101770008091710281116DC081E080934C0284EAF6
:1017800061C083E08093720210924102CFCF8091BA
:101790004102803208F051C0E091410281E08E0F99
:1017A000809341028091BB00F0E0EF5DFD4F8083AC
:1017B000BDCF85EC8093BC001092720280914102F3
:1017C000803230F4E0914102F0E0EF5DFD4F108295
:1017D0006091410270E0E0911F02F091200281E2ED
:1017E00092E009951092410236C084E08093720223
:1017F00010921E0210921D02E0911B02F0911C0239
:10180000099580911D02811105C081E080931D0220
:101810001092FB01E0911E0281E08E0F80931E0268
:10182000F0E0E550FE4F80818093BB0090911E0256
:1018300080911D02981708F479CF85E88093BC0049
:101840000AC085EC8093BC001092720204C0109212
:1018500070020E946206FF91EF91BF91AF919F913C
:101860008F917F916F915F914F913F912F910F9049
:101870000FBE0F901F901895EF92FF920F931F933A
:10188000CF93DF9300D0CDB7DEB7142F91E09093C4
:10189000730280939502109274021092960284E370
:1018A00093E029833A830E94F0062981022FE22ED9
:1018B0003A81F32E8E2D801B811740F4F701619140
:1018C0007F0184E393E00E94F006F4CF0E94C20EF1
:1018D00091E0811190E0892F0F900F90DF91CF91CF
:1018E0001F910F91FF90EF9008951F93CF93DF9377
:1018F00000D0CDB7DEB75A83498391E0909373024D
:1019000080939502109274021092960284E393E001
:101910000E94F00619816A8184E393E00E94F00638
:10192000612F84E393E00E94F0060E94C20E91E0D2
:10193000811190E0892F0F900F90DF91CF911F912F
:101940000895CF93DF931F92CDB7DEB749839E01F1
:101950002F5F3F4F41E00E943C0C0F90DF91CF91F1
:1019600008952F923F924F925F926F927F928F9243
:101970009F92AF92BF92CF92DF92EF92FF920F931E
:101980001F93CF93DF93CDB7DEB727970FB6F894A9
:10199000DEBF0FBECDBF8F83962E742F59018FB738
:1019A000F894C0904402D0904502E0904602F09036
:1019B00047028FBF5F81550F5B83812C312C22241E
:1019C000239450E05D834C832801612C712C871691
:1019D00008F0A4C0209273025F8150939502109288
:1019E000740210929602692D84E393E07E830E9434
:1019F000F0060E94C20E209273025F8150939502FE
:101A000010927402109296027E818091720281116E
:101A1000FCCF2C813D81281931092132310514F088
:101A200020E230E0213208F020E22092720220927F
:101A300071028FEF8093700210926F02820F809379
:101A40006E0220924D0280914D024B81842B809337
:101A50004D0280914C02813071F410924C028091C1
:101A60004D028093BB008091BC0083FDF8CF55EC04
:101A70005093BC0003C085EE8093BC00809172023D
:101A80008130E1F380916F02821710F420916F0290
:101A9000AEE4B2E0EBEDF1E08E2F4BED51E0841BB4
:101AA000821718F48D918193F7CF10926F012093D4
:101AB0006E0190916E0180916F01981749F10115A7
:101AC000110591F4A501430D511D37FC5A955A8318
:101AD000498384E393E07E830E94A406E981FA812E
:101AE000808333947E81E5CF2FB7F89480914402B0
:101AF00090914502A0914602B09147022FBF8C19E8
:101B00009D09AE09BF0984159505A605B705D0F254
:101B1000872F713208F080E2880E59CF0115110528
:101B200009F12FB7F8948091440290914502A09159
:101B30004602B09147022FBF8C199D09AE09BF091B
:101B400020E030E080179107A207B30758F0272F55
:101B500030E0832D032C000C990B8217930714F4AB
:101B600033243A94832D27960FB6F894DEBF0FBE28
:101B7000CDBFDF91CF911F910F91FF90EF90DF903C
:101B8000CF90BF90AF909F908F907F906F905F901D
:101B90004F903F902F900895BF92CF92DF92EF9297
:101BA000FF920F931F93CF93DF931F92CDB7DEB7B2
:101BB000F82EE62EC42EB22ED02E08EE13E09E0193
:101BC0002F5F3F4F41E00E94B10C882321F1EC2DA3
:101BD000F0E0EB19F109319621E030E002C0220F6C
:101BE000331FBA94E2F7215031090E2E01C0220FA3
:101BF0000A94EAF78D2D01C0880FEA95EAF7422F83
:101C00004095998149232823422B49836E2D8F2D9E
:101C10000E94A10C01C080E00F90DF91CF911F9135
:101C20000F91FF90EF90DF90CF90BF900895CF92EB
:101C3000DF92EF92FF920F931F93CF93DF931F9248
:101C4000CDB7DEB7F82EE62ED42EC22E08EE13E066
:101C50009E012F5F3F4F41E00E94B10C9981CC2043
:101C600041F041E050E001C0440FDA94EAF7492B1B
:101C700009C021E030E0A90101C0440FDA94EAF77D
:101C80004095492349836E2D8F2D0E94A10C0F9002
:101C9000DF91CF911F910F91FF90EF90DF90CF9048
:101CA00008951F920F920FB60F9211248F939F9356
:101CB00017BA8091D7019091D80101969093D801DD
:101CC0008093D7019F918F910F900FBE0F901F901F
:101CD00018958091A5038C3008F051C061E08AE02E
:101CE0000E941A098091A503E82FF0E09F01220FBE
:101CF000331FE20FF31FE05CFC4F9081907C9A60F1
:101D000090831092A6031092A7036CE00E94CE214C
:101D10009CE0899FB001112440E050E09A01260F19
:101D2000371FF901EE0FFF1F2E0F3F1FF901E05C77
:101D3000FC4F908196FD16C04F5F5F4F4C305105B0
:101D400069F781110FC01092800082E080938100BA
:101D50001092850010928400B19A80916F00826089
:101D600080936F00E091A503F0E0CF01880F991FE9
:101D7000E80FF91FE05CFC4F8081806480838091D4
:101D8000A50308952091960290919502213208F0C2
:101D90004AC0809172028111FCCF32E0309372020E
:101DA00031E0309371023FEF3093700210926F0276
:101DB00020936E02A5E7B2E04EE452E0FA013E2F16
:101DC000341B321718F43D913193F9CF10924D0224
:101DD00020914D02990F922B90934D0290914C02BD
:101DE000913061F410924C0290914D029093BB009F
:101DF0009091BC0093FDF8CF95EC01C095EE9093C7
:101E0000BC00909172029230E1F3909170029F3F7A
:101E100079F080917002803241F0809170028033BD
:101E200031F084E005C081E003C082E001C083E0BE
:101E300010927402109296021092730208950F93FA
:101E40001F93CF93DF93CDEBD3E008EE13E02EEB9F
:101E500033E041E06AE388810E94B10C8981DF911F
:101E6000CF911F910F91089521E042E06AE68091A1
:101E7000BD030C94170E482F6EE68091BD030C94A1
:101E8000A10C2F923F924F925F926F927F928F920E
:101E90009F92AF92BF92CF92DF92EF92FF920F93F9
:101EA0001F93CF93DF933C015B01342ED22F202E62
:101EB0004F716DE68091BD030E94A10C8D2F0E9491
:101EC0003B0F80E190E00E94F4216C01002339F087
:101ED00080E190E00E94F421C82F492E02C0C0E0AA
:101EE000412CE12CF12CEA14FB0408F06EC0C70170
:101EF0004096A816B90618F45A2C5E1802C080E164
:101F0000582E852D90E020E031E02D1B3109281757
:101F1000390714F45D2E5194F301EE0DFF1D2220BC
:101F200059F09C2FAC2FB42D8A2F891B851530F4C6
:101F300084918D933196F8CFCE2F4F2E2C2F342DA8
:101F4000452D6FE68091BD030E943C0C852C912CA1
:101F5000C114D10429F1432D4F716DE68091BD0369
:101F60000E94A10C8D2F0E943B0F08EE13E09601FA
:101F7000452D6FE68091BD030E94B10CA401B6010E
:101F80008C2F942D0E94F023892B51F0C6010E94C2
:101F90008922222021F18C2F942D0E9489221FC09A
:101FA000E80CF91CD50DEA14FB0408F09CCFD11104
:101FB00001C03394432D4F716DE68091BD030E94A3
:101FC000A10C8D2F0E943B0F8ECFC6010E9489224B
:101FD000222039F08C2F942D0E94892202C080E0AB
:101FE00001C081E0DF91CF911F910F91FF90EF90A1
:101FF000DF90CF90BF90AF909F908F907F906F9029
:102000005F904F903F902F9008950F931F936623FA
:1020100051F0462F9C0108EE13E064E78091BD0368
:102020000E94B10C02C0FC0110821F910F91089513
:102030000F931F93CF93DF93CDEBD3E008EE13E024
:102040002EEB33E042E062E788810E94B10C898187
:1020500090E0982F88272A81822BDF91CF911F91C2
:102060000F910895EF92FF920F931F93CF93DF93F9
:102070001F92CDB7DEB77A0189019E012F5F3F4FD6
:1020800041E00E94B10C882339F029812E7730E09D
:1020900035952795F70120830F90DF91CF911F9100
:1020A0000F91FF90EF900895009769F0FC01019067
:1020B0000020E9F73197AF01481B590BBC0187E9B4
:1020C00092E00C94740580E090E008950F931F93C4
:1020D000CF93DF938C01C0E0D0E0F801EC0FFD1F3F
:1020E0006491662371F0E0919702F091980201905B
:1020F000F081E02D87E992E00995892B11F0219676
:10210000ECCFCE01DF91CF911F910F910895CF9326
:10211000DF930E946610EC018AE691E00E94541061
:102120008C0F9D1FDF91CF9108958F929F92AF9258
:10213000BF920F931F93CF93DF93CDB7DEB7A197D5
:102140000FB6F894DEBF0FBECDBF19A2423008F41F
:102150004AE08E010F5D1F4F842E912CA12CB12CD3
:10216000A50194010E94851FE62FB901CA01015003
:102170001109EA3014F4E05D01C0E95CD801EC9388
:10218000232B242B252B61F7C8010E945410A19604
:102190000FB6F894DEBF0FBECDBFDF91CF911F9178
:1021A0000F91BF90AF909F908F9008958F929F92C4
:1021B000AF92BF92CF92DF92EF92FF922091AA034B
:1021C0003091AB038217930708F052C04B01AA2449
:1021D000BB24E82DC52ED62EE72EFF24FC2D342F50
:1021E0002091AF03222361F0829E40011124E92D4A
:1021F000C29E60011124FD2D429FD00111243B2F6E
:10220000F090B503E090B203A091B003B091B10398
:10221000FE1008C0AC01440F551F840F951F8A0F94
:102220009B1F14C0880F991F880F991F8A0F9B1F2F
:10223000472F552766277727DC01AF0DB11D2223D5
:1022400021F0429FA0011124452F4C932091B2030D
:10225000DC01A20FB11DEC932091B303DC01A20FAE
:10226000B11DFC932091B403FC01E20FF11D3083FA
:10227000FF90EF90DF90CF90BF90AF909F908F90A6
:102280000895CF93DF93EC0140E050E06CE671E0FD
:102290000E943608CE01DF91CF910895E091970218
:1022A000F09198020190F081E02D682F87E992E08B
:1022B0000994CF93DF93CDB7DEB7C05BD1090FB6DA
:1022C000F894DEBF0FBECDBF789484B5826084BD24
:1022D00084B5816084BD85B5826085BD85B581602A
:1022E00085BD80916E00816080936E0010928100A8
:1022F0008091810082608093810080918100816063
:102300008093810080918000816080938000809123
:10231000B10084608093B1008091B00081608093AF
:10232000B00080917A00846080937A0080917A0076
:10233000826080937A0080917A00816080937A0035
:1023400080917A00806880937A001092C100109288
:102350006F0110926E011092740210929602109208
:10236000720281E08093710210924C0261E082E17E
:102370000E94CE0861E083E10E94CE088091B900FE
:102380008E7F8093B9008091B9008D7F8093B900D2
:1023900088E48093B80085E48093BC008CE080934F
:1023A000B800E091A702F091A80282E08083E0915A
:1023B000A302F091A4021082E091A502F091A6027E
:1023C00080E180831092AF02E091AB02F091AC0209
:1023D00086E08083E091A902F091AA028081806169
:1023E0008083E091A902F091AA02808188608083B5
:1023F000E091A902F091AA02808180688083E09137
:10240000A902F091AA0280818F7D808384E19AE005
:102410000E94871001E023E042E06BE68091BD035B
:102420000E94CC0D00E022E044E06BE18091BD030E
:102430000E94CC0D22E044E06CE18091BD030E943B
:10244000CC0D20E046E06BE68091BD030E94170EA4
:1024500060E082E00E941A0986EF99E00E948710EE
:1024600028EE33E04EEB53E065E78091BD030E9418
:1024700032108091BE03843319F08AEA99E002C0D9
:1024800084EC99E00E94871082EE99E00E94871008
:1024900021E047E06BE68091BD030E94170E6EE1DC
:1024A00070E080E090E00E947B0920E046E06BE66F
:1024B0008091BD030E94170E40E76DE68091BD0339
:1024C0000E94A10C86E00E943B0F40E06DE68091E7
:1024D000BD030E94A10C28EE33E04EEB53E060E018
:1024E0008091BD030E9432108090BE0328EE33E03D
:1024F0004EEB53E061E08091BD030E94321090905A
:10250000BE0328EE33E04EEB53E062E08091BD0362
:102510000E943210A090BE034FE765E28091BD0398
:102520000E94A10C20E045E06AE68091BD030E9474
:10253000170E48E665E28091BD030E94A10C21E0E0
:1025400041E06AE68091BD030E94170E64E170E0ED
:1025500080E090E00E947B0901E020E040E069E833
:1025600077E085E891E00E94410F882309F4CDC20D
:1025700088E090E00E94F421B82E192FE12CF12C74
:10258000F701EB53FF4F4491F701EA53FF4F2491BA
:10259000670183E0C80ED11CF701E953FF4FE491B6
:1025A000EE23D1F1EE2EF12CE330D8F0B7018B2DD4
:1025B000912FC055DF4F2883C05BD040C155DF4FFE
:1025C0004883CF5AD0400E942123B82E192FC155DD
:1025D000DF4F4881CF5AD040C055DF4F2881C05BC4
:1025E000D040AB2DB12F80E090E08E159F0548F4D0
:1025F000F601E80FF91FEB53FF4FE491ED930196BD
:10260000F4CF00E0B7018B2D912F0E94410FEC0C0D
:10261000FD1C811117C010C094E0E90EF11CF601F9
:10262000EB53FF4FE491E13039F442E368E38091EA
:10263000BD030E94A10C06C08B2D912F0E94892200
:1026400012E064C2A0ECEA16F10408F499CF8B2DD5
:10265000912F0E94892203E023E042E06BE6809103
:10266000BD030E94CC0D42E168E38091BD030E944E
:10267000A10C44E069E18091BD030E94A10C01E03E
:1026800023E045E06AE18091BD030E94CC0D03E0A8
:1026900023E042E06AE18091BD030E94CC0D22E07C
:1026A00044E06BE18091BD030E94CC0D43E060E704
:1026B0008091BD030E94A10C40E061E78091BD03C1
:1026C0000E94A10C20E040E060E08091BD030E94E8
:1026D000170E082D26E046E060E08091BD030E94C1
:1026E000CC0D092D26E046E061E08091BD030E94FB
:1026F000CC0D0A2D26E046E062E08091BD030E94E9
:10270000CC0DE12CF12CF701EA56FF4FE491A1E842
:10271000B0E0AC0FBD1FAE0DB11DEC9381E08E0D8E
:10272000BFEFEB1AFB0A23E02E1568F7CD57DF4FFA
:102730006881C358D04070E09B012E5F3F4F90E00E
:102740002817390704F700E0CE57DF4F2881C25819
:10275000D040CF57DF4F4881C158D04081E890E04A
:102760008C0F9D1F03960E94410F80E0F701EA56EF
:10277000FF4FE491A1E8B0E0AC0FBD1FA80FB11D61
:10278000EC938F5F9FEFE91AF90A843078F3CD5705
:10279000DF4F6881C358D04070E0AB014E5F5F4FA0
:1027A000282F30E0421753070CF700E0CE57DF4FD9
:1027B0002881C258D040CF57DF4F4881C158D04000
:1027C00081E890E08C0F9D1F03960E94410F0E94AC
:1027D000340F0E941810682FCE0101960E94051038
:1027E00042E06FE18091BD030E94A10C4CE961E2DF
:1027F0008091BD030E94A10C40E560E28091BD0381
:102800000E94A10C40E062E28091BD030E94A10CF5
:102810000E94340F21E046E06AE68091BD030E94E9
:10282000170E21E047E06AE68091BD030E94170E73
:1028300021E043E06AE68091BD030E94170E80E02C
:10284000F701EA56FF4FE491A1E8B0E0AC0FBD1FDD
:10285000A80FB11DEC938F5FAFEFEA1AFA0A84302C
:1028600078F3CD57DF4F6881C358D04070E0AB019B
:102870004E5F5F4F282F30E0421753070CF700E000
:10288000CE57DF4F2881C258D040CF57DF4F488105
:10289000C158D04081E890E08C0F9D1F03960E94A4
:1028A000410F80E0F701EA56FF4FE491A1E8B0E064
:1028B000AC0FBD1FA80FB11DEC938F5FBFEFEB1ADC
:1028C000FB0A843078F3CD57DF4F6881C358D0407E
:1028D00070E0AB014E5F5F4F282F30E04217530787
:1028E0000CF700E0CE57DF4F2881C258D040CF57B9
:1028F000DF4F4881C158D04081E890E08C0F9D1F88
:1029000003960E94410F80E0F701EA56FF4FE491E1
:10291000A1E8B0E0AC0FBD1FA80FB11DEC938F5F15
:102920002FEFE21AF20A843078F3CD57DF4F688137
:10293000C358D04070E0AB014E5F5F4F282F30E0AE
:10294000421753070CF700E0CE57DF4F2881C258DB
:10295000D040CF57DF4F4881C158D04081E890E048
:102960008C0F9D1F03960E94410F0E941810833008
:102970009105D8F3682FCE0101960E94051080E0E2
:10298000F701EA56FF4FE491A1E8B0E0AC0FBD1F9C
:10299000A80FB11DEC938F5F9FEFE91AF90A8430FD
:1029A00078F3CD57DF4F3880C358D040832C912C1B
:1029B000A4014E5F5F4F282F30E04217530704F702
:1029C000CE57DF4FB880C258D040CF57DF4F288056
:1029D000C158D040422D4F716DE68091BD030E94D9
:1029E000A10C8B2D0E943B0FC12CD12C612C772484
:1029F000739471E8472E512C4C0E5D1EA3E04A0ED5
:102A0000511CC814D90498F5C60140968816990639
:102A100018F4A32CAC1802C050E1A52E8A2D90E02A
:102A200093012B1931092817390714F4AB2CA19401
:102A300092012C0D3D1D08EE13E04A2D6FE68091AA
:102A4000BD030E94B10CCA0CD11CBA0CC814D90425
:102A5000C0F6B11001C02394422D4F716DE68091F4
:102A6000BD030E94A10C8B2D0E943B0FCACF0E9478
:102A7000181083309105D8F3682FCE0101960E947B
:102A80000510F701EA56FF4F80E09491A1E8B0E00D
:102A9000AC0FBD1FA80FB11D9C938F5F843010F445
:102AA0003196F3CFCD57DF4F6881C358D04070E0E7
:102AB000AB014E5F5F4F282F30E04217530784F77A
:102AC00000E0CE57DF4F2881C258D040CF57DF4FAC
:102AD0004881C158D04081E890E08C0F9D1F03963B
:102AE0000E94410F20E047E06AE68091BD030E940A
:102AF000170E8AE290E09093C0038093BF030E9478
:102B0000340F0E941F0F10E001C011E010937601F6
:102B100045E959EF66E08091BD030E94750C4DE4D4
:102B200052E068E08091BD030E94750C45E355E0DA
:102B30006AE08091BD030E94750C42EA51E063E1B6
:102B40008091BD030E94750C47EC5FEF65E18091B9
:102B5000BD030E94750C45E450E067E18091BD0320
:102B60000E94750C11112FC08AE999E00E9487100C
:102B700021E047E06AE68091BD030E94170E8BE5D5
:102B800099E00E94871080E697E09093010180937E
:102B9000000180916900836080936900E89A0E9437
:102BA0001F0F8093C90181E399E00E94871081E0A3
:102BB0008093CE018091BF039091C0039093CB018D
:102BC0008093CA0110C080E199E00E946610609174
:102BD000760170E080E090E04AE00E9495108EE07F
:102BE00099E00E94871060E083E00E941A0961E08A
:102BF00084E00E941A0961E083E00E94CE0861E04F
:102C00008BE00E941A091092B20017BA80917000EE
:102C100081608093700083EA8093B00084E08093A9
:102C2000B1008091B100887F82608093B100789478
:102C30000E94690E62E083E00E941A098FE197E02A
:102C40009093030180930201809169008C608093CE
:102C50006900E99A8091AE0387FD08C061E00E9497
:102C60001A0960E08091AE030E94CE0881E0809353
:102C7000A9038091CE01882309F4BBC208E810E0C3
:102C800048E5E42E42E0F42ECC24CA94DC2C80915A
:102C90007401811195C22091CC013091CD018091B8
:102CA000CA019091CB012817390708F089C20E9408
:102CB000BD0780917501882351F360E371E08FE9CE
:102CC00093E00E941708882301F140E050E56FEF80
:102CD00070E080E090E00E94D61040E050E56FEF99
:102CE00070E081E090E00E94D61040E050E56FEF88
:102CF00070E082E090E00E94D6108091B003909145
:102D0000B103892B09F07AC086C164E371E08FE9D1
:102D100093E00E9417088823B9F040E050E56FEF78
:102D200070E087E090E00E94D61040E050E56FEF41
:102D300070E088E090E00E94D61040E050E56FEF30
:102D400070E089E090E0D7CF68E371E08FE993E02D
:102D50000E941708882379F140E050E06FEF70E09F
:102D60008AE090E00E94D61040E050E06FEF70E003
:102D70008BE090E00E94D61040E050E06FEF70E0F2
:102D80008CE090E00E94D61040E050E06FEF70E0E1
:102D900082E190E00E94D61040E050E06FEF70E0DA
:102DA00083E190E00E94D61040E050E06FEF70E0C9
:102DB00084E190E0A0CF6EE371E08FE993E00E94A0
:102DC0001708811109C062E471E08FE993E00E9465
:102DD0001708882309F410C24AE0A42EB12C4FEF43
:102DE0005FEF6FEF70E0C5010E94D610BFEFAB1A26
:102DF000BB0A26E1A216B10491F77FCF0E945609C3
:102E00008090B6039090B703A090B803B090B90338
:102E1000DC01CB0188199909AA09BB09C297A10550
:102E2000B10560F3F8948091AC039091AD039A835F
:102E30008983A091B003B091B103FD0131968C91CB
:102E4000CA56DF4F8883C659D0409091A803A091FD
:102E5000BA03B091BB038091BC03992309F462C00B
:102E60009C91982BCB56DF4F9883C559D0409C91AD
:102E700080958923CC56DF4F8883C459D040CC56E7
:102E8000DF4F8881C459D040CF56DF4F8883C15966
:102E9000D04088E0CF57DF4F8883C158D040CB5611
:102EA000DF4F5881C559D040CC56DF4F6881C45997
:102EB000D040CA56DF4F4881C659D040CF57DF4F68
:102EC0003881C158D040CF56DF4F2881C159D040FA
:102ED00089819A815C9347FD252F3A952C93262F63
:102EE00039F0441F00C000006C93000000C0F2CF16
:102EF00038E041916C930000019761F7B093BB03F8
:102F0000A093BA03CA56DF4F4883C659D040CF5763
:102F1000DF4F3883C158D040CF56DF4F2883C15987
:102F2000D0406CC09C91982BCB56DF4F9883C559ED
:102F3000D0409C9180958923CC56DF4F8883C4591B
:102F4000D040CC56DF4F8881C459D040CD56DF4F9A
:102F50008883C359D04088E0CE56DF4F8883C2595A
:102F6000D040CB56DF4F5881C559D040CC56DF4FAB
:102F70006881C459D040CA56DF4F4881C659D040F5
:102F8000CE56DF4F3881C259D040CD56DF4F288111
:102F9000C359D04089819A815C9347FD252F00C099
:102FA00000C02C9300C000C000C000C000C06C93E3
:102FB0000000262F3A9541F0441F000000C000C0D9
:102FC00000C000C000C0E8CF38E0419100C06C9361
:102FD00000C0019709F7B093BB03A093BA03CA5688
:102FE000DF4F4883C659D040CE56DF4F3883C25991
:102FF000D040CD56DF4F2883C359D0409A83898370
:1030000078940E9456096093B6037093B703809337
:10301000B8039093B90360E571E089E993E00E94F9
:103020001708882319F00E94690E8FC063E571E0CC
:1030300089E993E00E941708882371F0E091A503C5
:10304000F0E0CF01880F991FE80FF91FE05CFC4FFB
:1030500080818F7B808379C06CE671E089E993E0A1
:103060000E941708811171C08091990390919A0371
:10307000009719F00E94C41D03C060E070E0CB010E
:1030800070937A0160937901653B710508F05DC02A
:10309000CB01770FAA0BBB0B9C01AD01245B31095F
:1030A00041095109A8EEB3E00E94431F2CE43FEF11
:1030B0004FEF5FEF0E94241F49015A0194E8890EE7
:1030C00093E0991EA11CB11C909207018092060109
:1030D0008091A5038C3088F59091A603A801491B27
:1030E000510997FD5395440F551F440F551F8416E2
:1030F000950684F09091A703B701691B710997FDAC
:103100007395660F771F660F771FA4016815790501
:103110000CF4AB019A0122503109220F331F4FB733
:10312000F89490E0FC01EE0FFF1F8E0F9F1FFC0133
:10313000E05CFC4F328321834FBF80910601909168
:10314000070190937801809377016CE671E083E941
:1031500093E00E941708811130C0809193039091F1
:103160009403009719F00E94C41D03C060E070E052
:10317000CB015B0177FF03C0A3E0AA0EB11CB5949D
:10318000A794B594A794B7FE0EC060E084E00E94B7
:10319000CE08B194A194B10881E090E0909305012C
:1031A0008093040108C061E084E00E94CE08D092C0
:1031B0000501C0920401A092B3001092750167CD81
:1031C000109274010E941F0F182F8093C9010E9452
:1031D00018109093CD018093CC0114FD04C081158B
:1031E000944009F055C00E94340F80E39AE00E9499
:1031F00087100E9411083DCD66E671E08FE993E0EB
:103200000E941708882391F03AE0A32EB12C40E0E9
:1032100050E06FEF70E0C5010E94D6108FEFA81A42
:10322000B80A96E1A916B10491F767CD67E471E099
:103230008FE993E00E941708882389F0A12CB12C14
:103240004FEF5FEF6FEF70E0C5010E94D610AFEF58
:10325000AA1ABA0ABAE0AB16B10491F74ECD6BE4E4
:1032600071E08FE993E00E941708882309F445CDA7
:10327000A12CB12C40E050E0BA01C5010E94D6104B
:103280002FEFA21AB20A86E1A816B10499F735CD3C
:1032900011FFAFCF0091CC011091CD01E090CA0198
:1032A000F090CB010E151F0538F40E941810909372
:1032B000CD018093CC01EECF6E2D89E891E00E9484
:1032C00005100E191F091093CD010093CC016090D9
:1032D0008D01712C762C662480918E01682A809055
:1032E0009101912C982C882480919201882AA09099
:1032F0009501B12CBA2CAA2480919601A82A60913C
:10330000890170E0762F662780918A01682B072E4D
:10331000000C880B990B0E94071E20E030E040E86B
:1033200058E30E94661E6B017C01609383037093D7
:1033300084038093850390938603B301770C880BF5
:10334000990B0E94071E20E030E040E858E30E94FD
:10335000661E2B013C016093870370938803809362
:10336000890390938A03B401990C880B990B0E94EE
:10337000071E20E030E040E858E30E94661EC95670
:10338000DF4F688379838A839B83C759D0406093DA
:103390008B0370938C0380938D0390938E03B50100
:1033A000BB0C880B990B0E94071E20E030E040E820
:1033B00058E30E94661EC556DF4F688379838A836F
:1033C0009B83CB59D04060938F037093900380937D
:1033D0009103909392039B01AC01C301B2010E943F
:1033E000661E4B015C01C956DF4F288139814A8135
:1033F0005B81C759D040C701B6010E94661E9B0180
:10340000AC01C501B4010E94B61F9B01AC010E9432
:10341000B71FC156DF4F688379838A839B83CF5957
:10342000D040609365037093660380936703909325
:103430006803A3019201C701B6010E94661E4B01F9
:103440005C01C556DF4F288139814A815B81CB59A8
:10345000D040C956DF4F688179818A819B81C759E5
:10346000D0400E94661E9B01AC01C501B4010E94C0
:10347000B71F9B01AC010E94B71FCD55DF4F68837A
:1034800079838A839B83C35AD04060936903709386
:103490006A0380936B0390936C03A7019601C701A5
:1034A000B6010E94661E4B015C01A3019201C3019B
:1034B000B2010E94661E9B01AC01C501B4010E94CD
:1034C000B61F4B015C01C956DF4F288139814A8103
:1034D0005B81C759D040CA01B9010E94661E9B0199
:1034E000AC01C501B4010E94B61F4B015C01C55679
:1034F000DF4F288139814A815B81CB59D040CA0195
:10350000B9010E94661E9B01AC01C501B4010E9475
:10351000B71F4B015C0160936D0370936E03809342
:103520006F0390937003A7019601C701B6010E9433
:10353000B71FC955DF4F688379838A839B83C75A36
:10354000D040A3019201C301B2010E94B71FC5552B
:10355000DF4F688379838A839B83CB5AD040A7014E
:103560009601C955DF4F688179818A819B81C75A4D
:10357000D0400E94661E6B017C01A3019201C555DB
:10358000DF4F688179818A819B81CB5AD0400E942C
:10359000661E9B01AC01C701B6010E94B71F20E067
:1035A00030E040E85FE30E94B61F6B017C01C95622
:1035B000DF4F288139814A815B81C759D040C55589
:1035C000DF4F688179818A819B81CB5AD0400E94EC
:1035D000661E2B013C01C556DF4F288139814A8187
:1035E0005B81CB59D040C955DF4F688179818A8191
:1035F0009B81C75AD0400E94661E9B01AC01C3014B
:10360000B2010E94B61FA70196010E943620609366
:103610007D0170937E0180937F0190938001A501CD
:103620009401C501B4010E94661E6B017C01CD5559
:10363000DF4F288139814A815B81C35AD040CA015A
:10364000B9010E94661EA70196010E94B71F0E9441
:1036500070219B01AC01C156DF4F688179818A815D
:103660009B81CF59D0400E9495200E946620609394
:103670008101709382018093830190938401C156EC
:10368000DF4F288139814A815B81CF59D040CA01FF
:10369000B9010E94661EA70196010E94B71F0E94F1
:1036A00070219B01AC01CD55DF4F688179818A8102
:1036B0009B81C35AD0400E9495200E94662060934F
:1036C000850170938601809387019093880186E538
:1036D00091E00E94541020E030E044E353E4609114
:1036E0007D0170917E0180917F01909180010E9407
:1036F000661E2BED3FE049E450E40E9495206B01EB
:103700007C014B015C019B01AC010E94B421882328
:1037100019F088E591E01AC026013701E89477F89E
:103720002FEF3FEF4FE75FE7C301B2010E94B421E3
:1037300081110FC02FEF3FEF4FE75FE7C301B201E9
:103740000E94001E18162CF48CE591E00E94541083
:1037500074C02FEF3FEF4FE75FE4C701B6010E944F
:103760005D2118161CF480E691E0F0CF2FEF3FEFBB
:103770004FE75FECC701B6010E94001E87FDF3CF43
:1037800020E030E0A901C701B6010E94001E87FFBA
:1037900009C08DE20E944E1146015701B7FAB0945C
:1037A000B7F8B0942AE037ED43EA5BE3C501B40112
:1037B0000E94B71F4B015C010E9407216B017C0135
:1037C0000E94051E9B01AC01C501B4010E94B61FF9
:1037D0004B015C014AE0C701B6010E9495108EE2E0
:1037E0000E944E1120E030E040E251E4C501B401F6
:1037F0000E94661E4B015C010E9407216B01E12CB7
:10380000F12C4AE0C701B6010E949510C701B6012C
:103810000E94051E9B01AC01C501B4010E94B61FA8
:1038200020E030E040E251E40E94661E0E94072141
:1038300080E090E04AE00E94951084E691E00E94CA
:103840005410609172017091730180E090E04AE041
:103850000E94951082E391E00E945410C090700184
:10386000D09071010D2C000CEE08FF08F7FE0CC083
:103870008DE20E944E1166277727CB016C197D09D6
:103880008E099F094AE003C04AE0C701B6010E94C1
:1038900095108BE691E00E945410809170019091F8
:1038A000710120917B0130917C012817390721F4A7
:1038B000109273011092720190937C0180937B01AE
:1038C00098CC80919303909194030E9489228091D7
:1038D000990390919A030E94892280919F0390916D
:1038E000A0030E9489228091B0039091B1030097B8
:1038F00011F00E9489228091AE0387FD03C060E031
:103900000C941A09089510929A021092990288EE66
:1039100093E0A0E0B0E080939B0290939C02A09380
:103920009D02B0939E0224E131E0309398022093EF
:10393000970225EC30E03093A4022093A30224ECFC
:1039400030E03093A6022093A50220EC30E03093C3
:10395000A8022093A70221EC30E03093AA02209322
:10396000A90222EC30E03093AC022093AB0226ECAB
:1039700030E03093AE022093AD021092B00210926C
:10398000B1021092B2021092B30210923703109259
:1039900036038093380390933903A0933A03B0938E
:1039A0003B0384E291E0909335038093340388E6EF
:1039B0008093BD031092A9031092AF031092B60337
:1039C0001092B7031092B8031092B90381E080936C
:1039D000B5038093B2031092B30392E09093B403C3
:1039E0008093A8038FE390E09093AD038093AC03A2
:1039F0000E94F4219093B1038093B003009761F08B
:103A00002FE3FC0111922A95E9F785E190E090936C
:103A1000AB038093AA0308C01092AD031092AC03CD
:103A20001092AB031092AA0386E08093AE038091BC
:103A3000A903882341F061E086E00E941A0960E052
:103A400086E00E94CE08E1E8FAE0E491F0E0EE0FB3
:103A5000FF1FEF58F54F859194919093BB0380938E
:103A6000BA03E3E6FAE0E491E093BC0380916403D7
:103A70008C30A0F491E0980F909364038093A50399
:103A800090E0FC01EE0FFF1F8E0F9F1FFC01E05C1A
:103A9000FC4F88EB9BE09283818303C08FEF809380
:103AA000A5036CE671E08FE993E00E9461086CE683
:103AB00071E089E993E00E9461086CE671E083E9B6
:103AC00093E00E94610880E090E0A0E8BFE380936B
:103AD000830390938403A0938503B093860310928D
:103AE0008703109288031092890310928A03109220
:103AF0008B0310928C0310928D0310928E03109200
:103B00008F031092900310929103109292031092DF
:103B10007E0310927D031092800310927F03109217
:103B2000820310928103109278031092770310920F
:103B30007A031092790310927C0310927B03109207
:103B40007203109271031092740310927303109217
:103B5000760310927503109265031092660310921B
:103B60006703109268031092690310926A0310921F
:103B70006B0310926C0310926D0310926E031092FF
:103B80006F031092700308951F93FC0199278827F3
:103B9000BC01E89411911032E9F3193010F01E3095
:103BA000C8F31B3251F01D3249F4689406C00E94DC
:103BB000EB1D610F711D811D911D119110531A3064
:103BC000B0F33EF490958095709561957F4F8F4F3F
:103BD0009F4F1F910895592F482F372F262F660F7B
:103BE000771F881F991F660F771F881F991F620F05
:103BF000731F841F951F660F771F881F991F0895D5
:103C00000E94421E08F481E00895E89409C097FBE1
:103C10003EF490958095709561957F4F8F4F9F4FA3
:103C20009923A9F0F92F96E9BB279395F6958795E7
:103C300077956795B795F111F8CFFAF4BB0F11F4AA
:103C400060FF1BC06F5F7F4F8F4F9F4F16C0882351
:103C500011F096E911C0772321F09EE8872F762F87
:103C600005C0662371F096E8862F70E060E02AF0C8
:103C70009A95660F771F881FDAF7880F96958795B4
:103C800097F90895990F0008550FAA0BE0E8FEEF89
:103C900016161706E807F907C0F012161306E40710
:103CA000F50798F0621B730B840B950B39F40A2609
:103CB00061F0232B242B252B21F408950A2609F4E7
:103CC000A140A6958FEF811D811D08950E94791E48
:103CD0000C94EA1E0E94DC1E38F00E94E31E20F0C5
:103CE000952311F00C94D31E0C94D91E11240C941E
:103CF0001E1F0E94FB1E70F3959FC1F3950F50E0AD
:103D0000551F629FF001729FBB27F00DB11D639F8D
:103D1000AA27F00DB11DAA1F649F6627B00DA11D33
:103D2000661F829F2227B00DA11D621F739FB00DD9
:103D3000A11D621F839FA00D611D221F749F332749
:103D4000A00D611D231F849F600D211D822F762FE2
:103D50006A2F11249F5750409AF0F1F088234AF0BF
:103D6000EE0FFF1FBB1F661F771F881F915050402B
:103D7000A9F79E3F510580F00C94D31E0C941E1F92
:103D80005F3FE4F3983ED4F3869577956795B795B2
:103D9000F795E7959F5FC1F7FE2B880F911D9695CC
:103DA000879597F9089597F99F6780E870E060E03C
:103DB00008959FEF80EC089500240A9416161706C4
:103DC00018060906089500240A941216130614060C
:103DD00005060895092E0394000C11F4882352F06F
:103DE000BB0F40F4BF2B11F460FF04C06F5F7F4F27
:103DF0008F4F9F4F089557FD9058440F551F59F00E
:103E00005F3F71F04795880F97FB991F61F09F3FC7
:103E100079F087950895121613061406551FF2CFF0
:103E20004695F1DF08C0161617061806991FF1CF40
:103E300086957105610508940895E894BB27662767
:103E40007727CB0197F90895052E97FB1EF4009470
:103E50000E943B1F57FD07D00E94851F07FC03D01F
:103E60004EF40C943B1F50954095309521953F4F53
:103E70004F4F5F4F089590958095709561957F4F56
:103E80008F4F9F4F08950E94A71FA59F900DB49F2D
:103E9000900DA49F800D911D112408952F923F92A3
:103EA0004F925F926F927F928F929F92AF92BF924A
:103EB000CF92DF92EF92FF920F931F93CF93DF93F6
:103EC000CDB7DEB7CA1BDB0B0FB6F894DEBF0FBE53
:103ED000CDBF09942A88398848885F846E847D84A0
:103EE0008C849B84AA84B984C884DF80EE80FD80A2
:103EF0000C811B81AA81B981CE0FD11D0FB6F89418
:103F0000DEBF0FBECDBFED010895A1E21A2EAA1BA0
:103F1000BB1BFD010DC0AA1FBB1FEE1FFF1FA21779
:103F2000B307E407F50720F0A21BB30BE40BF50B76
:103F3000661F771F881F991F1A9469F760957095FF
:103F4000809590959B01AC01BD01CF010895A29F82
:103F5000B001B39FC001A39F700D811D1124911D5D
:103F6000B29F700D811D1124911D08955058BB27DB
:103F7000AA270E94CE1F0C94EA1E0E94DC1E38F075
:103F80000E94E31E20F039F49F3F19F426F40C94AC
:103F9000D91E0EF4E095E7FB0C94D31EE92F0E9486
:103FA000FB1E58F3BA17620773078407950720F0C2
:103FB00079F4A6F50C941D1F0EF4E0950B2EBA2F84
:103FC000A02D0B01B90190010C01CA01A00111241F
:103FD000FF27591B99F0593F50F4503E68F11A16CB
:103FE000F040A22F232F342F4427585FF3CF46955C
:103FF00037952795A795F0405395C9F77EF41F167E
:10400000BA0B620B730B840BBAF09150A1F0FF0F47
:10401000BB1F661F771F881FC2F70EC0BA0F621F33
:10402000731F841F48F4879577956795B795F79523
:104030009E3F08F0B0CF9395880F08F09927EE0FB8
:104040009795879508950E94DC1E60F080E891E0C6
:1040500009F49EEF0E94E31E28F040E851E071F45D
:104060005EEF0CC00C94D91E0C941D1FE92FE07854
:104070000E94FB1E40F3092E052AB1F326173707CD
:104080004807590738F00E2E07F8E02569F0E025BB
:10409000E0640AC0EF6307F8009407FADB01B90196
:1040A0009D01DC01CA01AD01EF930E94AC200E948A
:1040B000EA1E0E9466205F91552339F02BED3FE008
:1040C00049E450FD49EC0C94B71F0895DF93DD27B8
:1040D000B92FBF7740E85FE31616170648075B075E
:1040E00018F4D92F0E9462219F938F937F936F932F
:1040F0000E94B021E8E6F0E00E9436210E94EA1E0C
:104100002F913F914F915F910E94791EDD2351F0D5
:104110009058A2EA2AED3FE049EC5FE3D0785D27B2
:104120000E94CE1FDF910C94EA1E0E94A9200C94DD
:10413000EA1E0E94E31E58F00E94DC1E40F029F4A3
:104140005F3F29F00C94D31E51110C941E1F0C9448
:10415000D91E0E94FB1E68F39923B1F3552391F3F6
:10416000951B550BBB27AA2762177307840738F0E6
:104170009F5F5F4F220F331F441FAA1FA9F335D043
:104180000E2E3AF0E0E832D091505040E695001CF7
:10419000CAF72BD0FE2F29D0660F771F881FBB1FB1
:1041A000261737074807AB07B0E809F0BB0B802D8F
:1041B000BF01FF2793585F4F3AF09E3F510578F0BB
:1041C0000C94D31E0C941E1F5F3FE4F3983ED4F36F
:1041D000869577956795B795F7959F5FC9F7880F8F
:1041E000911D9695879597F90895E1E0660F771FE1
:1041F000881FBB1F621773078407BA0720F0621B72
:10420000730B840BBA0BEE1F88F7E09508950E949C
:10421000031F88F09F5798F0B92F9927B751B0F036
:10422000E1F0660F771F881F991F1AF0BA95C9F73A
:1042300014C0B13091F00E941D1FB1E008950C949C
:104240001D1F672F782F8827B85F39F0B93FCCF34F
:10425000869577956795B395D9F73EF490958095B7
:10426000709561957F4F8F4F9F4F0895DF93CF9348
:104270001F930F93FF92EF92DF927B018C01689462
:1042800006C0DA2EEF010E94791EFE01E894A59186
:104290002591359145915591A6F3EF010E94CE1FCE
:1042A000FE019701A801DA9469F7DF90EF90FF9083
:1042B0000F911F91CF91DF9108950E94421E08F443
:1042C0008FEF08959B01AC0160E070E080E89FE310
:1042D0000C94952019F416F40C94D91E0C94B92161
:1042E0000E94031FB8F39923C9F3B6F39F57550BE8
:1042F00087FF0E94C7210024A0E640EA9001805871
:104300005695979528F4805C660F771F881F20F0DC
:1043100026173707480730F4621B730B840B2029DC
:1043200031294A2BA69517940794202531254A2731
:1043300058F7660F771F881F20F0261737074807A2
:1043400030F4620B730B840B200D311D411DA095C1
:1043500081F7B901842F9158880F96958795089514
:104360009B01AC010C94661E0E94421E880B990BA7
:1043700008959F3F31F0915020F487957795679588
:10438000B795880F911D9695879597F90895915047
:104390005040660F771F881FD2F70895991B79E068
:1043A00004C0991F961708F0961B881F7A95C9F7C5
:1043B00080950895AA1BBB1B51E107C0AA1FBB1F14
:1043C000A617B70710F0A61BB70B881F991F5A95A1
:1043D000A9F780959095BC01CD010895EE0FFF1FC0
:1043E0000590F491E02D0994CF93DF9382309105ED
:1043F00010F482E090E0E091D203F091D30320E04A
:1044000030E0C0E0D0E0309711F140815181481791
:104410005907C0F04817590761F4828193812097AA
:1044200019F09B838A832BC09093D3038093D2038C
:1044300026C02115310519F04217530718F49A01C7
:10444000BE01DF01EF010280F381E02DDCCF2115F9
:10445000310509F1281B390B2430310590F41296EF
:104460008D919C9113976115710521F0FB01938348
:10447000828304C09093D3038093D203FD013296CC
:1044800044C0FD01E20FF31F819391932250310943
:104490002D933C933AC02091D0033091D103232B2C
:1044A00041F420910A0130910B013093D103209304
:1044B000D00320910801309109012115310541F403
:1044C0002DB73EB740910C0150910D01241B350BC7
:1044D000E091D003F091D103E217F307A0F42E1B73
:1044E0003F0B2817390778F0AC014E5F5F4F241758
:1044F000350748F04E0F5F1F5093D1034093D00310
:104500008193919302C0E0E0F0E0CF01DF91CF9181
:1045100008950F931F93CF93DF93009709F48CC0F6
:10452000FC013297138212820091D2031091D303BF
:104530000115110581F420813181820F931F209193
:10454000D0033091D1032817390779F5F093D103BF
:10455000E093D00371C0D80140E050E0AE17BF0730
:1045600050F412962D913C911397AD012115310510
:1045700009F1D901F3CF9D01DA01338322836081F0
:104580007181860F971F8217930769F4EC012881C8
:104590003981260F371F2E5F3F4F318320838A8159
:1045A0009B8193838283452B29F4F093D303E0937B
:1045B000D20342C01396FC93EE931297ED014991FA
:1045C00059919E01240F351FE217F30771F4808182
:1045D0009181840F951F029611969C938E938281F0
:1045E000938113969C938E931297E0E0F0E0D801AC
:1045F00012968D919C911397009719F0F8018C01F8
:10460000F6CF8D919C9198012E5F3F4F820F931FA3
:104610002091D0033091D1032817390769F43097DE
:1046200029F41092D3031092D20302C01382128293
:104630001093D1030093D003DF91CF911F910F917D
:104640000895A0E0B0E0E7E2F3E20C94521FEC0121
:10465000009721F4CB010E94F421B8C0FC01E60FC1
:10466000F71F9C0122503109E217F30708F4ACC090
:10467000D9010D911C91119706171707B0F005305D
:10468000110508F49FC0C80104978617970708F41E
:1046900099C002501109061B170B019311936D93DA
:1046A0007C93CF010E9489228DC05B01A01AB10AC0
:1046B0004C01800E911EA091D203B091D30340E033
:1046C00050E0E12CF12C109709F44AC0A815B90567
:1046D000D1F56D907C901197630182E0C80ED11CDA
:1046E000CA14DB0480F1A3014A195B096A0182E064
:1046F000C80ED11C1296BC9012971396AC91B5E0DF
:10470000CB16D10440F0B282A38351834083D901F8
:104710006D937C930AC00E5F1F4FC301800F911FE2
:10472000F90191838083EB2DFA2FE114F10431F02C
:10473000D7011396FC93EE93129744C0F093D303E2
:10474000E093D2033FC08D919C9111974817590770
:1047500008F4AC017D0112960D90BC91A02DB3CF51
:104760008091D0039091D10388159905E1F4461703
:104770005707C8F48091080190910901009741F40E
:104780008DB79EB740910C0150910D01841B950B84
:10479000E817F907C8F4F093D103E093D003F901C7
:1047A000718360830FC0CB010E94F4217C010097CC
:1047B00059F0A801BE010E94FD23CE010E9489226A
:1047C000C70104C0CE0102C080E090E0CDB7DEB7E3
:1047D000EEE00C946E1F81E090E0F8940C941624A7
:1047E000FB01DC0104C08D910190801921F441503E
:1047F0005040C8F7881B990B0895FB01DC0102C0EB
:1048000001900D9241505040D8F70895FB01DC0112
:104810008D91019080190110D9F3990B0895FB0136
:10482000DC0101900D920020E1F7089515E0C9E444
:10483000D5E004C0FE010E94EE212196CA34D107C2
:06484000C9F7F894FFCF58
:10484600610661060100DC050000D4038000E80370
:1048560000000000F8057405C1059F05B3053F0675
:1048660000000000F006C006B806A40695069406E9
:104876004C6C65004C7269004C73746F70004C7020
:1048860061004C74610D004C6672004C64694C000A
:10489600656E0064690079006E616E00696E66007F
:0E48A6006F76660073004C7265000D0A00000C
:00000001FF
