:100000000C9458000C9480000C9480000C94800098
:100010000C9480000C9480000C9480000C94800060
:100020000C9480000C9480000C9480000C94800050
:100030000C9480000C9480000C9480000C94800040
:100040000C94FA050C9480000C94C8050C94A2053D
:100050000C9480000C9480000C9480000C94800020
:100060000C9444060C948000000000002500280039
:100070002B00040404040404040402020202020229
:10008000030303030303010204081020408001025C
:1000900004081020010204081020000000080002DB
:1000A00001000003040700000000000000000D0B29
:1000B00011241FBECFEFD8E0DEBFCDBF12E0A0E01D
:1000C000B1E0EEE7F7E102C005900D92AE32B10764
:1000D000D9F723E0AEE2B2E001C01D92AF3EB20715
:1000E000E1F710E0C8E5D0E004C02197FE010E94CE
:1000F000B20BC735D107C9F70E94CD080C94BD0BD0
:100100000C940000CF92DF92EF92FF920F931F9317
:10011000CF93DF936C017A018B01C0E0D0E0CE1564
:10012000DF0589F0D8016D918D01D601ED91FC912B
:100130000190F081E02DC6010995892B11F47E0113
:1001400002C02196ECCFC701DF91CF911F910F9193
:10015000FF90EF90DF90CF900895FC01918D828DFC
:10016000981761F0828DDF01A80FB11D5D968C910B
:10017000928D9F5F9F73928F90E008958FEF9FEF16
:100180000895FC01918D828D981731F0828DE80FD2
:10019000F11D858D90E008958FEF9FEF0895FC018C
:1001A000918D228D892F90E0805C9F4F821B910959
:1001B0008F739927089587E393E00E94CF0021E091
:1001C000892B09F420E0822F0895FC01848DDF0142
:1001D000A80FB11DA35ABF4F2C91848D90E00196BA
:1001E0008F739927848FA689B7892C93A089B189A9
:1001F0008C9180648C93938D848D981306C00288B3
:10020000F389E02D80818F7D80830895EF92FF92A6
:100210000F931F93CF93DF93EC0181E0888F9B8D29
:100220008C8D981305C0E889F989808185FD24C0EB
:10023000F62E0B8D10E00F5F1F4F0F731127E02E6E
:100240008C8DE8120CC00FB607FCFACFE889F9894B
:10025000808185FFF5CFCE010E94E500F1CF8B8D27
:10026000FE01E80FF11DE35AFF4FF0820B8FEA8980
:10027000FB898081806207C0EE89FF896083E889FD
:10028000F98980818064808381E090E0DF91CF9163
:100290001F910F91FF90EF900895CF93DF93EC01A2
:1002A000888D8823C9F0EA89FB89808185FD05C096
:1002B000A889B9898C9186FD0FC00FB607FCF5CFD0
:1002C000808185FFF2CFA889B9898C9185FFEDCF18
:1002D000CE010E94E500E7CFDF91CF91089580E045
:1002E00090E0892B29F00E94DB0081110C94000022
:1002F000089585ED8093BC008091BC0084FDFCCF07
:1003000010921203089540917002262F30E0240FBE
:10031000311D21323105DCF4209112032430C9F45F
:10032000FC0180E090E0861758F430917002219132
:10033000DC01A25BBD4FA30FB11D2C930196F3CF3F
:1003400080917002680F6093700280E0089581E0F0
:10035000089582E008950895E0919F0280919E02A1
:10036000E81730F4F0E0E25DFD4F808190E0089501
:100370008FEF9FEF089590919F0280919E029817B2
:1003800050F4E92FF0E0E25DFD4F208130E09F5F07
:1003900090939F0202C02FEF3FEFC9010895809113
:1003A0009E0290E020919F02821B91090895CF92B6
:1003B000DF92EF92FF920F931F93CF93DF937C0115
:1003C000262F972F8A0180911303882391F0C62F3F
:1003D000D72F6E01C40ED51ECC15DD0571F06991C5
:1003E000D701ED91FC910190F081E02DC7010995B5
:1003F000F3CF642F822F0E948301C801DF91CF9138
:100400001F910F91FF90EF90DF90CF900895CF93C1
:10041000DF931F92CDB7DEB76983209113032223A8
:10042000D1F020913603203240F021E030E0FC0191
:100430003383228380E090E015C080911403E82F7D
:10044000F0E0EB5EFC4F998190838F5F8093140303
:100450008093360305C061E0CE0101960E948301BE
:1004600081E090E00F90DF91CF9108950E94B80B4A
:100470001F93CF93DF9300D0CDB7DEB75A83498364
:1004800091E090931303809335031092140310921C
:10049000360384ED93E00E94070219816A8184ED9E
:1004A00093E00E940702612F84ED93E00E9407020F
:1004B0000E947D0791E0811190E0892F0F900F90AD
:1004C000DF91CF911F9108950F931F93CF93DF93E7
:1004D0008C01FC0140815181C0EED3E066E088814F
:1004E0000E943802F8014281538168E088810E94AD
:1004F0003802F801448155816AE088810E943802FF
:10050000F8014681578163E188810E943802F80131
:100510004085518565E188810E943802F801428555
:10052000538567E18881DF91CF911F910F910C94E2
:1005300038022F923F924F925F926F927F928F92EA
:100540009F92AF92BF92CF92DF92EF92FF920F9362
:100550001F93CF93DF93CDB7DEB727970FB6F894ED
:10056000DEBF0FBECDBF8F83962E742F59018FB77C
:10057000F894C0909A02D0909B02E0909C02F09078
:100580009D028FBF5F81550F5B83812C312C22240C
:10059000239450E05D834C832801612C712C8716D5
:1005A00008F0A4C0209213035F815093350310928A
:1005B000140310923603692D84ED93E07E830E942C
:1005C00007020E947D07209213035F815093350339
:1005D00010921403109236037E81809112038111D0
:1005E000FCCF2C813D81281931092132310514F0CD
:1005F00020E230E0213208F020E220921203209223
:1006000011038FEF8093100310920F03820F8093DA
:100610000E032092ED028091ED024B81842B80939A
:10062000ED028091EC02813071F41092EC02809125
:10063000ED028093BB008091BC0083FDF8CF55ECA8
:100640005093BC0003C085EE8093BC0080911203E0
:100650008130E1F380910F03821710F420910F0392
:10066000AEEEB2E0EEE2F2E08E2F4EE252E0841BFC
:10067000821718F48D918193F7CF10929F022093E7
:100680009E0290919E0280919F02981749F1011558
:10069000110591F4A501430D511D37FC5A955A835C
:1006A000498384ED93E07E830E94BB01E981FA8156
:1006B000808333947E81E5CF2FB7F89480919A029E
:1006C00090919B02A0919C02B0919D022FBF8C192A
:1006D0009D09AE09BF0984159505A605B705D0F299
:1006E000872F713208F080E2880E59CF011511056D
:1006F00009F12FB7F89480919A0290919B02A091F2
:100700009C02B0919D022FBF8C199D09AE09BF09B3
:1007100020E030E080179107A207B30758F0272F99
:1007200030E0832D032C000C990B8217930714F4EF
:1007300033243A94832D27960FB6F894DEBF0FBE6C
:10074000CDBFDF91CF911F910F91FF90EF90DF9080
:10075000CF90BF90AF909F908F907F906F905F9061
:100760004F903F902F900895BF92CF92DF92EF92DB
:10077000FF920F931F93CF93DF9300D0CDB7DEB7D7
:10078000F82EE62EC42EB22ED02E08EE13E09E01D7
:100790002E5F3F4F41E00E949902882349F14C2D82
:1007A00050E04B1951094F5F5F4F21E030E002C02C
:1007B000220F331FBA94E2F721503109042E01C0F1
:1007C000220F0A94EAF78D2D01C0880F4A95EAF7A7
:1007D000322F30959A8193232823292B2A8329832A
:1007E000AE014F5F5F4F6E2D8F2D0E94FA0701C043
:1007F00080E00F900F90DF91CF911F910F91FF90AC
:10080000EF90DF90CF90BF9008954F925F926F92DC
:100810007F928F929F92AF92BF92CF92DF92EF9290
:10082000FF920F931F93CF93DF93CDB7DEB7A497BB
:100830000FB6F894DEBF0FBECDBF19821A821B829D
:100840001C821D821E821F82188619861A861B86AC
:100850001C861D861E861F86188A198A1A8A1B8A7C
:100860001C8A1D8A1E8A1F8A188EEE24E394F12C9E
:10087000CE0149965C01F4EF8F2E99249394A3E363
:100880006A2EA1E37A2EC090C402D090C502CE1485
:10089000DF040CF470C008EE13E021EE33E04EE00C
:1008A0006BE38091E0030E9499028091E10390E064
:1008B000982F88272091E203822B9A8F898F80912D
:1008C000E30390E0982F88272091E403822B9C8FEC
:1008D0008B8F8091E50390E0982F88272091E60385
:1008E000822B9E8F8D8F8091E90390E0982F88272F
:1008F0002091EA03822B98A38F8F8091EB0390E0E5
:10090000982F88272091EC03822B9AA389A320910A
:10091000ED0330E0322F22278091EE03282B3CA3F9
:100920002BA3C701B4010E94490B892B19F48EE255
:100930000E947207C3010197F1F79501FE013196FC
:10094000D9018D919D919D01092E000CAA0BBB0B25
:100950004081518162817381840F951FA61FB71F4B
:1009600081939193A193B193EA15FB0549F7BFEFEA
:10097000EB1AFB0A88CF2601D7FE03C0EFEF4E1A11
:100980005E0A55944794052C000C66087708CE0142
:1009900001964C0108EB12E00D2C000CEE08FF084C
:1009A000F40181919191A191B1914F01BC01CD01CF
:1009B000640D751D861D971DA70196010E947F0B72
:1009C000D8012D933D938D018A149B0449F7A49679
:1009D0000FB6F894DEBF0FBECDBFDF91CF911F9150
:1009E0000F91FF90EF90DF90CF90BF90AF909F90CE
:1009F0008F907F906F905F904F900895CF92DF928D
:100A0000EF92FF929093C5028093C40280E291E03E
:100A10000E94DA07C090C402D090C5020D2C000CD1
:100A2000EE08FF08F7FE0CC08DE20E9472076627F1
:100A30007727CB016C197D098E099F094AE003C015
:100A40004AE0C701B6010E945E088BE291E0FF9088
:100A5000EF90DF90CF900C94EC07AF92BF92CF92C3
:100A6000DF92EF92FF920F931F93CF93DF938091CA
:100A7000C6029091C702059744F08FE391E00E946F
:100A8000EC071092C7021092C60280E20E94720721
:100A900008EC12E084EDE82E82E0F82E90EAC92EF0
:100AA00092E0D92E2CEAA22E22E0B22EC0E0D0E0B5
:100AB0008BE50E947207F801819191918F010E944C
:100AC0009F088CE20E947207F701819191917F014A
:100AD0000E949F0882E791E00E94DA07F601819167
:100AE00091916F010E949F088CE20E947207F501AC
:100AF000819191915F010E949F08C530D10531F429
:100B00008DE50E9472078AE791E002C08DE791E0CF
:100B10000E94DA072196C630D10551F68091C602AF
:100B20009091C70201969093C7028093C602DF910D
:100B3000CF911F910F91FF90EF90DF90CF90BF90DA
:100B4000AF9008951F920F920FB60F9211242F931A
:100B50003F934F935F936F937F938F939F93AF9345
:100B6000BF93EF93FF9387E393E00E94E500FF912B
:100B7000EF91BF91AF919F918F917F916F915F9115
:100B80004F913F912F910F900FBE0F901F9018958E
:100B90001F920F920FB60F9211242F938F939F9352
:100BA000EF93FF93E0914703F09148038081E09138
:100BB0004D03F0914E0382FD12C09081809150034D
:100BC0008F5F8F7320915103821751F0E091500392
:100BD000F0E0E95CFC4F958F8093500301C0808169
:100BE000FF91EF919F918F912F910F900FBE0F90DA
:100BF0001F9018951F920F920FB60F9211242F93EA
:100C00003F938F939F93AF93BF9380919A0290915C
:100C10009B02A0919C02B0919D023091990223E029
:100C2000230F2D3720F40196A11DB11D05C026E824
:100C3000230F0296A11DB11D2093990280939A0261
:100C400090939B02A0939C02B0939D028091950289
:100C500090919602A0919702B09198020196A11DE1
:100C6000B11D8093950290939602A0939702B09342
:100C70009802BF91AF919F918F913F912F910F90CB
:100C80000FBE0F901F9018951F920F920FB60F92E4
:100C900011242F933F934F935F936F937F938F9381
:100CA0009F93AF93BF93EF93FF938091B900887F99
:100CB000803609F49CC068F5883209F45BC090F472
:100CC000803109F454C038F4882309F4F6C0883020
:100CD00009F44DC0F6C0883109F44CC0803209F4E3
:100CE0005DC0EFC0803409F468C048F4803309F473
:100CF00055C0883309F0E5C080931003D8C0803513
:100D000009F44FC0883509F45DC0883409F0D9C0B2
:100D1000D6C0883909F4C7C0A8F4883709F467C079
:100D200038F4883609F463C0803709F460C0C9C05C
:100D3000883809F4B8C0803909F45FC0803809F0F8
:100D4000C0C05BC0803B09F486C038F4803A09F427
:100D500066C0883A09F47FC0B4C0803C09F4A7C0DB
:100D6000883C09F4A4C0883B09F48AC0AAC08091D9
:100D7000ED0210C090910F0380910E03981770F54B
:100D8000E0910F0381E08E0F80930F03F0E0E251BA
:100D9000FD4F80818093BB0085EC86C0809310035B
:100DA0008EC0E0910F0381E08E0F80930F0380913E
:100DB000BB00F0E0E251FD4F808390910F038091E2
:100DC0000E036EC0E0910F0381E08E0F80930F033E
:100DD0008091BB00F0E0E251FD4F808380911103D0
:100DE00081116DC081E08093EC0284EA61C083E0F0
:100DF0008093120310929402CFCF8091940280329C
:100E000008F051C0E091940281E08E0F809394022B
:100E10008091BB00F0E0EC58FD4F8083BDCF85ECA6
:100E20008093BC001092120380919402803230F4BF
:100E3000E0919402F0E0EC58FD4F10826091940232
:100E400070E0E0917202F091730284E792E00995FC
:100E50001092940236C084E08093120310927102C3
:100E600010927002E0916E02F0916F0209958091EC
:100E70007002811105C081E08093700210924E02D1
:100E8000E091710281E08E0F80937102F0E0E25BED
:100E9000FD4F80818093BB00909171028091700220
:100EA000981708F479CF85E88093BC000AC085ECD8
:100EB0008093BC001092120304C0109210030E9491
:100EC0007901FF91EF91BF91AF919F918F917F91A8
:100ED0006F915F914F913F912F910F900FBE0F90A7
:100EE0001F901895E0913703F09138030190F0813D
:100EF000E02D682F87E393E00994209136039091C9
:100F00003503213208F04AC0809112038111FCCFD1
:100F100032E03093120331E0309311033FEF30930E
:100F2000100310920F0320930E03A5E1B3E04EEEE1
:100F300052E0FA013E2F341B321718F43D913193E1
:100F4000F9CF1092ED022091ED02990F922B909320
:100F5000ED029091EC02913061F41092EC029091CC
:100F6000ED029093BB009091BC0093FDF8CF95ECFF
:100F700001C095EE9093BC00909112039230E1F382
:100F8000909110039F3F79F080911003803241F0DF
:100F900080911003803331F084E005C081E003C00C
:100FA00082E001C083E01092140310923603109285
:100FB00013030895009769F0FC0101900020E9F700
:100FC0003197AF01481B590BBC0187E393E00C94A8
:100FD000820080E090E00895CF93DF930E94DA07CB
:100FE000EC018AE791E00E94DA078C0F9D1FDF91E8
:100FF000CF910895CF93DF93EA0191E0909313038B
:1010000080933503109214031092360384ED93E01D
:101010000E940702688184ED93E00E9407020E940B
:101020007D0791E0811190E0892FDF91CF910895A4
:1010300090E0FC01E656FF4F2491FC01EA57FF4F78
:101040003491FC01EE58FF4FE491EE23B1F12223DD
:1010500039F1233091F038F42130A9F0223001F534
:1010600084B58F7D12C0273091F02830A1F0243054
:10107000B9F4809180008F7D03C0809180008F77CC
:10108000809380000DC084B58F7784BD09C08091A6
:10109000B0008F7703C08091B0008F7D8093B00047
:1010A000F0E0EE0FFF1FE859FF4FA591B4918FB705
:1010B000F894EC913E2B3C938FBF08958F929F92B2
:1010C000AF92BF920F931F93CF93DF93CDB7DEB74D
:1010D000A1970FB6F894DEBF0FBECDBF19A2423064
:1010E00008F44AE08E010F5D1F4F842E912CA12C35
:1010F000B12CA50194010E945D0BE62FB901CA0134
:1011000001501109EA3014F4E05D01C0E95CD80136
:10111000EC93232B242B252B61F7C8010E94DA07BF
:10112000A1960FB6F894DEBF0FBECDBFDF91CF9171
:101130001F910F91BF90AF909F908F900895CF9285
:10114000DF92EF92FF92CF93DF936C01990FEE083D
:10115000FF08F7FE17C08DE20E947207EC016627B8
:101160007727CB016C197D098E099F094AE00E94FF
:101170005E088C0F9D1FDF91CF91FF90EF90DF9065
:10118000CF9008954AE0C701B601DF91CF91FF905B
:10119000EF90DF90CF900C945E08CF93DF93CDB7A4
:1011A000DEB769970FB6F894DEBF0FBECDBF789457
:1011B00084B5826084BD84B5816084BD85B582605C
:1011C00085BD85B5816085BD80916E00816080930D
:1011D0006E00109281008091810082608093810076
:1011E0008091810081608093810080918000816086
:1011F000809380008091B10084608093B1008091E1
:10120000B00081608093B00080917A008460809308
:101210007A0080917A00826080937A0080917A00CF
:10122000816080937A0080917A00806880937A0050
:101230001092C10010929F0210929E02109214030D
:10124000109236031092120381E0809311031092E2
:10125000EC0282E10E94180883E10E941808809144
:10126000B9008E7F8093B9008091B9008D7F809303
:10127000B90088E48093B80085E48093BC00E091D5
:101280004703F091480382E08083E0914303F091AB
:1012900044031082E0914503F09146038FEC808374
:1012A00010924F03E0914B03F0914C0386E0808352
:1012B000E0914903F0914A03808180618083E0914D
:1012C0004903F0914A03808188608083E09149035B
:1012D000F0914A03808180688083E0914903F09116
:1012E0004A0380818F7D808388EB91E00E94EC0728
:1012F00001E023E042E06BE68091E0030E94B4034A
:1013000000E022E044E06BE18091E0030E94B4033E
:1013100022E044E06CE18091E0030E94B403D090AD
:10132000E00308EE13E09E012F5F3F4F41E06BE6C4
:101330008D2D0E94990299819F7B9983998F7E01BF
:1013400029E1E20EF11CA7016BE68D2D0E94FA0740
:1013500084ED91E00E94EC079E012F5F3F4F41E03A
:1013600065E78091E0030E949902882339F0898122
:101370008E7790E0959587958093E1038091E103C6
:10138000843319F08EE991E002C080E891E00E9478
:10139000EC0748EC52E084ED92E0E0EEF2E01192CE
:1013A0001192DC011D921D92CD01DA011D921D9258
:1013B000AD01B2E0EC3EFB0791F780E090E4909342
:1013C000E5028093E40288EE93E00E94FE0482EF3F
:1013D00091E00E94EC0783E690E09093C70280932F
:1013E000C60288EC92E00E9464020E94050440EA72
:1013F00052E08E01035F1F4F5801A8ECB2E060EE8F
:1014000072E088EB92E099249394FC012191319150
:10141000CF01FA0121933193AF01FB01C190D1902B
:10142000BF012C153D0554F02D913C911197285E7C
:101430003340F50131832083912C06C02D913C91DE
:101440001197F501318320831296F2E0AF0EB11CA3
:1014500022E0843C9207C9F684ED92E00E94640287
:101460000E9405042CEA32E0CE0101965C013C01A9
:10147000A4EDB2E040EE52E088EB92E0FC01619115
:101480007191CF01F901619371939F01FA01C190AC
:10149000D190AF01C616D70654F06D917C9111978B
:1014A00068517C4FF30171836083912C06C06D916C
:1014B0007C911197F301718360831296F2E06F0EB5
:1014C000711C62E0843C9607C9F60E942D0524ED4C
:1014D00032E0A8ECB2E0F801819191918F018D93F7
:1014E0009D93F501819191915F01F9018193919310
:1014F0009F010E151F0579F7992009F472CF8DEF22
:1015000091E00E94EC0783E690E09093C7028093FD
:10151000C6028E010F5F1F4FF80168EC72E0B4ED58
:10152000CB2EB2E0DB2EE12CFF24F394D6014D91BB
:101530005D916D01DB018D919D91BD019C012F5F3E
:101540003F4F241735071CF09183808312C09C0104
:10155000240F351F37FF02C02F5F3F4F359527956A
:10156000318320830A96EE24E394841795070CF4C4
:10157000F12C3296B0EECB16B2E0DB06B9F6CE0116
:1015800001960E9464020E94050440EE52E0A8EB1E
:10159000B2E080E090E02D913D91FA01619171916E
:1015A000AF01F801621773075CF460817181FC017F
:1015B000EC52FD4F71836083FC01E455FD4F0AC07E
:1015C00060817181FC01E853FD4F71836083FC01F0
:1015D000E056FD4F3183208302960E5F1F4F8C3003
:1015E0009105C9F60E942D05EE2081F0FF2009F437
:1015F00090CF8091C4029091C502883E934009F03B
:1016000088CF80E197E20E94FE0483CF8AE092E0D7
:101610000E94EC070E946F01FDCFE7E3F3E0138225
:10162000128288EE93E0A0E0B0E084839583A683E5
:10163000B78324E031E03183208325EC30E0358727
:10164000248724EC30E03787268720EC30E0318B8C
:10165000208B21EC30E0338B228B22EC30E0358B79
:10166000248B26EC30E0378B268B118E128E138E56
:10167000148EE4EDF3E01382128284839583A683B3
:10168000B78384E191E09183808388E68093E003CF
:10169000089597FB072E16F4009407D077FD09D024
:1016A0000E949E0B07FC05D03EF4909581959F4FBC
:1016B0000895709561957F4F0895A1E21A2EAA1B97
:1016C000BB1BFD010DC0AA1FBB1FEE1FFF1FA217F2
:1016D000B307E407F50720F0A21BB30BE40BF50BEF
:1016E000661F771F881F991F1A9469F76095709578
:1016F000809590959B01AC01BD01CF010895052E09
:1017000097FB1EF400940E94960B57FD07D00E9491
:101710005D0B07FC03D04EF40C94960B509540954E
:10172000309521953F4F4F4F5F4F0895909580958D
:10173000709561957F4F8F4F9F4F0895AA1BBB1BDC
:1017400051E107C0AA1FBB1FA617B70710F0A61BC1
:10175000B70B881F991F5A95A9F780959095BC01E2
:10176000CD010895EE0FFF1F0590F491E02D09942F
:0E17700081E090E0F8940C94BD0BF894FFCF4C
:10177E000000000006018200CF00AD00C1004D0147
:10178E00000000000702D701CF01BB01AC01AB0185
:10179E00617665726167696E6720002072656164AB
:1017AE00696E677320656163682074696D650009F1
:1017BE0058416363656C09090959416363656C0996
:1017CE000909095A416363656C0909095847797219
:1017DE006F090909594779726F0909095A477972D0
:1017EE006F005D202D2D3E205B000D0A005D09006F
:1017FE004D50553630353020636F6E6E65637469AB
:10180E006F6E207375636365737366756C004D50F0
:10181E00553630353020636F6E6E656374696F6E4A
:10182E00206661696C656400496E697469616C69F2
:10183E007A696E6720493243206465766963657301
:10184E002E2E2E0054657374696E6720646576695A
:10185E00636520636F6E6E656374696F6E732E2E93
:10186E002E00657870616E64696E673A000A636C6B
:10187E006F73696E6720696E3A002D2D2D2D2D2DFB
:10188E002D2D2D2D2D2D2D2D20646F6E65202D2DA2
:0E189E002D2D2D2D2D2D2D2D2D2D2D2D000020
:00000001FF
